:100000000C94E4150C940E160C940E160C940E160B
:100010000C94DF960C94DF960C94DF960C94DF968C
:100020000C940E160C940E160C940E160C940E16C0
:100030000C940E160C942F7F0C940E160C940E1626
:100040000C940E160C949E780C9486750C940E16D7
:100050000C947A710C9470710C940E160C940E160C
:100060000C940E160C940E160C940E160C940E1680
:100070000C940E160C940E160C940E160C940E1670
:100080000C9465550C940E160C940E164E414E4968
:100090004E495459494E46CDCCCC3D0AD7233C1746
:1000A000B7D13877CC2B329595E6241FB14F0A0093
:1000B0000020410000C84200401C4620BCBE4CCA83
:1000C0001B0E5AAEC59D7400407A10F35A00A07200
:1000D0004E18090010A5D4E80000E8764817000083
:1000E000E40B54020000CA9A3B000000E1F5050051
:1000F0000080969800000040420F000000A086019A
:10010000000000102700000000E803000000006469
:1001100000000000000A00000000000100000000D4
:10012000002C76D888DC674F0823DFC1DFAE59E1A9
:10013000B1B796E5E3E453C63AE651997696E8E618
:10014000C28426EB898C9B62ED407C6FFCEFBC9CEB
:100150009F40F2BAA56FA5F490055A2AF75C936BFD
:100160006CF9676DC11BFCE0E40D47FEF520E6B5B8
:1001700000D0ED902E0300943577050080841E0892
:100180000000204E0A000000C80C333333330F98B0
:100190006E12831141EF8D2114893BE65516CFFE77
:1001A000E6DB18D1844B381BF77C1D901DA4BBE403
:1001B00024203284725E228100C9F124ECA1E53D45
:1001C000274750455400504C41004572726F7220D1
:1001D00077726974696E6720746F20454550524F7D
:1001E0004D210A000F150E1216170E1303021A14D2
:1001F00001000E0DFF180C040C1900012121204BE9
:10020000494C4C2063617573656420627920746F7A
:100210006F206D75636820696E616374697665200F
:1002200074696D65202D2063757272656E7420632C
:100230006F6D6D616E643A20004D343130004D3188
:100240003132004D3130380053544F505045442E18
:1002500020005072696E7465722073746F707065DF
:10026000642064756520746F206572726F72732EDE
:100270002046697820746865206572726F7220610B
:100280006E6420757365204D39393920746F207282
:100290006573746172742E202854656D7065726187
:1002A000747572652069732072657365742E2053AE
:1002B0006574206974206166746572207265737458
:1002C000617274696E67290A004E6F204368656326
:1002D0006B73756D2077697468206C696E65206E2C
:1002E000756D6265722C204C617374204C696E656B
:1002F0003A2000636865636B73756D206D69736D7B
:10030000617463682C204C617374204C696E653A8B
:1003100020004C696E65204E756D626572206973B0
:10032000206E6F74204C617374204C696E65204E92
:10033000756D6265722B312C204C617374204C6991
:100340006E653A20004D31313000506C6561736547
:10035000205265736574005052494E5445522048EE
:10036000414C5445440025533A202553004B494CF9
:100370004C45442E20005072696E7465722068618D
:100380006C7465642E206B696C6C28292063616C29
:100390006C6564210A0053544F505045442E200090
:1003A0005072696E7465722073746F70706564202A
:1003B00064756520746F206572726F72732E2046AB
:1003C000697820746865206572726F7220616E644E
:1003D00020757365204D39393920746F207265732B
:1003E000746172742E202854656D70657261747525
:1003F00072652069732072657365742E205365746D
:10040000206974206166746572207265737461720C
:1004100074696E67290A006563686F3A00457272F5
:100420006F723A0021212053544F502063616C6C4D
:1004300065642062656361757365206F6620424C58
:10044000546F756368206572726F72202D2072651B
:1004500073746172742077697468204D3939390A70
:100460000021212053544F502063616C6C6564203F
:1004700062656361757365206F6620424C546F75C9
:100480006368206572726F72202D207265737461CB
:1004900072742077697468204D3939390A000A0A64
:1004A000426564204C6576656C20436F72726563AB
:1004B00074696F6E204D61747269783A000A436FF7
:1004C000727265637465642042656420486569677B
:1004D00068742076732E2042656420546F706F6CB0
:1004E0006F67793A0A000A4265642048656967685F
:1004F0007420546F706F6772617068793A0A2020B7
:10050000202B2D2D2D204241434B202D2D2B0A2019
:1005100020207C20202020202020202020207C0A39
:10052000204C207C20202020282B29202020207CCB
:1005300020520A2045207C2020202020202020201E
:1005400020207C20490A2046207C20282D29204E6E
:1005500020282B29207C20470A2054207C20202082
:1005600020202020202020207C20480A2020207CC1
:1005700020202020282D29202020207C20540A20E3
:1005800020207C20202020202020202020207C0AC9
:100590002020204F2D2D2046524F4E54202D2D2B04
:1005A0000A2028302C30290A000A4D65616E206F20
:1005B000662073616D706C656420706F696E747312
:1005C0003A200020643A200020623A200045716EF3
:1005D00020636F656666696369656E74733A20614E
:1005E0003A200050726F62696E6720506F696E74B6
:1005F0000025532025692F2569002E0A002F005061
:10060000726F62696E67206D65736820706F696EC6
:10061000742000202844525952554E29004732393F
:10062000204175746F20426564204C6576656C6965
:100630006E67003F20284C2C522C462C4229206FFC
:100640007574206F6620626F756E64732E0A003FAA
:1006500050726F626520706F696E7473202859291B
:1006600020696D706C61757369626C652028322D2C
:1006700033292E0A003F50726F626520706F696ED9
:1006800074732028582920696D706C6175736962D4
:100690006C652028322D33292E0A003F2856296503
:1006A00072626F7365206C6576656C20696D706C25
:1006B00061757369626C652028302D34292E0A001B
:1006C00020496E76616C6964206578747275646522
:1006D000722000526573656E643A20004361703A7F
:1006E0000020573A00436F6F6C696E672E2E2E0004
:1006F00048656174696E672E2E2E004520255300D3
:1007000023646566696E652044454641554C545FD7
:1007100000626564004B6420004B6920004B702030
:1007200000504944204175746F74756E6520666988
:100730006E69736865642120507574207468652043
:100740006C617374204B702C204B6920616E6420A7
:100750004B6420636F6E7374616E74732066726F86
:100760006D2062656C6F7720696E746F20436F6EC9
:1007700066696775726174696F6E2E680A00504908
:1007800044204175746F74756E65206661696C658F
:1007900064212074696D656F75740A0050494420A6
:1007A0004175746F74756E65206661696C6564214E
:1007B0002054656D706572617475726520746F6F19
:1007C00020686967680A00204B643A2000204B6962
:1007D0003A2000204B703A20000A20436C6173736A
:1007E000696320504944200A00204B643A200020CD
:1007F0004B693A2000204B703A20000A204E6F20AF
:100800006F76657273686F6F740A002054753A20B2
:1008100000204B753A2000206D61783A2000206D51
:10082000696E3A200020643A200020626961733AC0
:100830002000504944204175746F74756E652073B3
:10084000746172740A00504944204175746F747564
:100850006E65206661696C6564212054656D706504
:1008600072617475726520746F6F20686967680AB9
:1008700000504944204175746F74756E650050498D
:1008800044204175746F74756E65206661696C658E
:1008900064212042616420657874727564657220F9
:1008A0006E756D6265720A004572723A20757466E3
:1008B0003820666F6E74206E6F7420696E6974697B
:1008C000616C697A65642E004572723A20757466AF
:1008D0003820666F6E74206E6F7420696E6974695B
:1008E000616C697A65642E004572723A207574668F
:1008F0003820666F6E74206E6F7420696E6974693B
:10090000616C697A65642E0042656400456E636CB3
:100910006F73757265002020202020202000202089
:100920002020001FE0201020102010102010202078
:1009300010201030300840048003001FE03FF03FDB
:10094000F03FF01FE01FE03FF03FF03FF00FC00727
:100950008003003FFFF038007030FC3020FC102096
:1009600078102030102C00D02E31D02F7BD02F7B50
:10097000D02E31D02C00D020301020781020FC1048
:1009800030FC303800703FFFF03FFFF0380070312E
:1009900086302387102787902F87D02F03D02030D1
:1009A000102078102078102030102F03D02F87D0FF
:1009B0002787902387103186303800703FFFF01F63
:1009C000FFF81FFFF804104002082002082004105E
:1009D0004008208010410010410008208004104091
:1009E0000000001FFFF81FFFF8454550524F4D20F3
:1009F00056657273696F6E204572726F720045455D
:100A000050524F4D20496E646578204572726F7266
:100A100000454550524F4D20435243204572726F5E
:100A200072003F0049676E6F7265005265736574AE
:100A300000496E697469616C697A65204545505258
:100A40004F4D0046696C2E204469612E004F66664A
:100A5000004F6E004520696E206D6DC2B300565484
:100A6000726176204D696E00566D696E00566D613B
:100A700078204500566D6178205A00566D617820C7
:100A80005900566D6178205800416D61782045000D
:100A9000416D6178205A00416D6178205900416DA7
:100AA0006178205800412D54726176656C00412DAB
:100AB0005265747261637400416363656C005072C7
:100AC0006F6265205A204F66667365740050726FBE
:100AD00062652059204F66667365740050726F62BC
:100AE000652058204F6666736574004520737465F1
:100AF00070732F6D6D005A2053746570732F6D6D78
:100B000000592053746570732F6D6D005820537415
:100B10006570732F6D6D00416476616E636564204E
:100B200053657474696E6773003F0043616E63655B
:100B30006C00496E6974004D34323800496E697436
:100B400069616C697A6520454550524F4D00466990
:100B50006C616D656E740053746570732F6D6D00FC
:100B600050726F6265204F666673657473004A75D4
:100B70006E6374696F6E2044657600416363656CD3
:100B800065726174696F6E0056656C6F6369747924
:100B90000053657420486F6D65204F6666736574F9
:100BA0007300436F6E66696775726174696F6E007A
:100BB0003F004E65787420436F726E657200446F1B
:100BC0006E65004E65787400486F6D696E672058D9
:100BD000595A0053746F72652053657474696E6757
:100BE00073004C6F61642053657474696E677300A1
:100BF0004C6576656C20436F726E6572730050723F
:100C00006F6265205A204F6666736574004F666692
:100C1000004F6E00426564204C6576656C696E67B6
:100C2000004C6576656C20426564004732380A479F
:100C3000323900473239004175746F20486F6D6555
:100C4000004D6F74696F6E0053746F770044657068
:100C50006C6F790053656C662D546573740053573F
:100C60002D4D6F64650052657365740042656400C4
:100C70004E6F7A7A6C650046616E205370656564CC
:100C800000436F6E66696775726174696F6E004CC0
:100C90006F61642053657474696E67730052657385
:100CA000746F72652044656661756C74730053746B
:100CB0006F72652053657474696E67730050726556
:100CC00068656174202420436F6E6600424C546F47
:100CD0007563680050726F6265205A204F666673B4
:100CE000657400416476616E636564205365747455
:100CF000696E6773004D61696E00436F6E66696768
:100D000075726174696F6E0054656D70657261749F
:100D1000757265004D6F74696F6E0054756E650075
:100D2000496E666F2053637265656E004D6F74691E
:100D30006F6E0044697361626C65205374657070F6
:100D4000657273004D383400426564204C657665E9
:100D50006C696E67004175746F20486F6D65004760
:100D60003238004D61696E005072656865617420AB
:100D70002420456E640050726568656174202420EB
:100D80004265640054656D706572617475726500CA
:100D9000C601C101436F6F6C646F776E005072655E
:100DA0006865617420240046616E20537065656437
:100DB00000426564004E6F7A7A6C65004D61696E21
:100DC000004261627973746570205A00466C6F77D7
:100DD0000046616E20537065656400426564004E94
:100DE0006F7A7A6C65005370656564004D61696E59
:100DF00000000C0F00FE07022603BC017FFE08FE68
:100E000008FE05080806000040F0C8888898781099
:100E1000050808060000C0F88888888888F8050555
:100E2000050600012030F8302005080806000020E3
:100E300070F820202020E00509090600FF2070A896
:100E4000A8B888887020050606060001E08CEA8CA8
:100E50008A0A0509090600FFF8A88888888888A8F2
:100E6000F8050A0A0600FE205050505088A8A888AD
:100E70007003030306000340A040FFFFFFFFFFFFD6
:100E8000FFFFFFFFFFFFFFFFFFFFFFFFFFFFFFFF72
:100E90000000000605FF0107070602008080808031
:100EA000800080030303060105A0A0A00506060636
:100EB000000050F85050F8500509090600FF207056
:100EC000A8A07028A87020050707060000C8C81051
:100ED0002040989805070706000040A0A040A89071
:100EE000680103030602058080800309090601FFEB
:100EF0002040408080804040200309090601FF8097
:100F0000404020202040408005070706000020A820
:100F1000702070A8200505050600012020F820207B
:100F20000203030601FFC04080050101060003F82B
:100F3000020202060100C0C00507070600000810F3
:100F40001020404080050707060000708898A8C858
:100F5000887003070706010040C040404040E0059C
:100F60000707060000708808102040F805070706EC
:100F70000000F80810300888700507070600001008
:100F8000305090F81010050707060000F880F008B0
:100F9000088870050707060000304080F0888870D8
:100FA000050707060000F808101020202005070795
:100FB00006000070888870888870050707060000A2
:100FC00070888878081060020505060100C0C0001E
:100FD000C0C00206060601FFC0C000C04080030575
:100FE000050601012040804020050303060002F8A9
:100FF00000F8030505060101804020408005070731
:101000000600007088102020002005070706000059
:101010007088B8A8B8807005070706000070888837
:10102000F8888888050707060000F0484870484897
:10103000F00507070600007088808080887005072B
:1010400007060000F04848484848F0050707060032
:1010500000F88080F08080F8050707060000F8801F
:1010600080F08080800507070600007088808098E7
:101070008870050707060000888888F88888880334
:101080000707060100E04040404040E00507070632
:101090000000381010101090600507070600008847
:1010A00090A0C0A09088050707060000808080807F
:1010B0008080F805070706000088D8A888888888F7
:1010C0000507070600008888C8A8988888050707CC
:1010D0000600007088888888887005070706000069
:1010E000F08888F0808080050707060000708888F7
:1010F00088A89068050707060000F08888F0A0908F
:10110000880507070600007088807008887005074A
:1011100007060000F82020202020200507070600F1
:1011200000888888888888700507070600008888F6
:10113000888850502005070706000088888888A8FE
:10114000A8500507070600008888502050888805A9
:101150000707060000888850202020200507070682
:101160000000F80810204080F80309090601FFE09C
:1011700080808080808080E0050707060000804036
:1011800040201010080309090601FFE0202020205C
:10119000202020E0050303060005205088050101FA
:1011A0000600FEF80303030601058040200505053F
:1011B0000600007008788878050707060000808020
:1011C000F0888888F005050506000070808088702A
:1011D000050707060000080878888888780505054F
:1011E0000600007088F08070050707060000304890
:1011F00040E04040400507070600FE708888887878
:1012000008700507070600008080F088888888033A
:1012100007070601004000C0404040E004090906FD
:1012200001FE100030101010109060050707060036
:101230000080808890E09088030707060100C04086
:1012400040404040E0050505060000D0A8A8A8A839
:10125000050505060000B0C8888888050505060054
:101260000070888888700507070600FEF088888867
:10127000F080800507070600FE78888888780808CF
:10128000050505060000B0C880808005050506003C
:101290000078807008F00507070600002020F8207D
:1012A000202018050505060000888888986805052F
:1012B000050600008888885020050505060000887E
:1012C00088A8A8500505050600008850205088050C
:1012D00007070600FE88888850204080050505061F
:1012E0000000F8102040F80309090601FF204040E3
:1012F0004080404040200109090602FF8080808034
:1013000080808080800309090601FF8040404020E2
:101310004040408005030306000248A890FF6F701C
:10132000656E00545249474745524544003A2000F3
:101330007A5F6D696E00795F6D696E00785F6D69C7
:101340006E005265706F7274696E6720656E6473AB
:10135000746F70207374617475730A00486F6D65E3
:101360002025732573257320466972737400486FB6
:101370006D696E67204661696C6564000000C84253
:101380000000C842000080405761726E696E673A83
:1013900020486F6D696E672042756D7020446976D4
:1013A00069736F72203C20310A000202040000A021
:1013B000400000A0400000004000006843000064BE
:1013C0004300005C4300005C4300005C4300005CA1
:1013D00043000040C1000000C100000000536574DC
:1013E00074696E67732053746F72656400290A0014
:1013F0002062797465733B206372632000536574C7
:1014000074696E67732053746F7265642028004599
:101410004550524F4D206461746173697A6520654F
:1014200072726F722E0A00290A0020627974657345
:101430003B2063726320002073746F7265642073B5
:10144000657474696E677320726574726965766518
:1014500064202800202863616C63756C6174656486
:1014600029210A0020213D2000454550524F4D20A2
:10147000435243206D69736D61746368202D202889
:1014800073746F7265642920002053697A653A206D
:1014900000496E6465783A2000204D61726C696E77
:1014A0003D563831290A00454550524F4D2076654A
:1014B0007273696F6E206D69736D61746368202843
:1014C000454550524F4D3D0048617264636F6465FD
:1014D000642044656661756C742053657474696E2C
:1014E0006773204C6F616465640A000000C84300A4
:1014F00000C84300000041000048420000C842000C
:1015000000C8420000C84300001643D0070000D0C6
:1015100007000064000000102700003B20003A0A8A
:101520000020204D3835312058005A2D50726F62FE
:1015300065204F66667365740020440020490020D2
:10154000204D33303420500020440020490020201A
:101550004D33303120500050494420736574746914
:101560006E67733A00204600204200204800202089
:101570004D3134352053004D6174657269616C20C2
:1015800068656174757020706172616D65746572F3
:10159000733A0020204D3432302053004175746F6F
:1015A00020426564204C6576656C696E673A002060
:1015B000204D323036205800486F6D65206F6666CA
:1015C0007365743A00204A0020530020204D3230C9
:1015D00035204200416476616E6365643A20423C86
:1015E0006D696E5F7365676D656E745F74696D6557
:1015F0005F75733E20533C6D696E5F66656564720E
:101600006174653E20543C6D696E5F7472617665ED
:101610006C5F66656564726174653E204A3C6A75FC
:101620006E635F6465763E0020520020204D3230AC
:1016300034205000416363656C65726174696F6E3C
:101640002028756E6974732F7332293A20503C70CC
:1016500072696E745F616363656C3E20523C7265B3
:1016600074726163745F616363656C3E20543C74A3
:10167000726176656C5F616363656C3E0020204D2E
:101680003230312058004D6178696D756D204163AD
:1016900063656C65726174696F6E2028756E69741C
:1016A000732F7332293A0020204D323033205800F6
:1016B0004D6178696D756D206665656472617465EC
:1016C000732028756E6974732F73293A00537465FB
:1016D00070732070657220756E69743A0020440042
:1016E00020204D3230302053002044697361626CF9
:1016F00065640A0046696C616D656E74207365747B
:1017000074696E67733A0020204D313439204320CC
:101710003B20556E69747320696E2043656C736954
:1017200075730A0020286D6D290020204732312072
:101730002020203B20556E69747320696E206D6DEA
:101740000024F4D43050C38E20C2A24017828B7084
:1017500011127A910D816CD90AA861E108C7586607
:1017600007615143061E4B5D05C145A7041A41118F
:1017700004093D9803713931034036DB026533912A
:1017800002D4305402802E1D02632CEE01752AC54E
:1017900001B028A001102781018F2564012B244B63
:1017A00001E0223401AC211F018D200D01801FFCBE
:1017B00000841EED00971DDF00B81CD200E61BC69A
:1017C00000201BBC00641AB200B219A8000A19A0BC
:1017D000006A189900D117910040178B00B5168444
:1017E0000031167E00B31579003A157300C7146FE7
:1017F0000058146A00EE1366008813630025135E18
:1018000000C7125B006C12570015125400C1115131
:101810000070114F0021114B00D61049008D104768
:10182000004610440002104200C00F4000800F3EEE
:1018300000420F3C00060F3B00CB0E3800930E37E2
:10184000005C0E3500270E3400F30D3200C10D315F
:1018500000900D3000600D2E00320D2D00050D2C76
:1018600000D90C2B00AE0C2900850C29005C0C273C
:1018700000350C27000E0C2600E80B2400C40B24B6
:1018800000A00B23007D0B23005A0B2100390B21F4
:1018900000180B2000F80A1F00D90A1E00BB0A1E00
:1018A000009D0A1D00800A1D00630A1C00470A1BD8
:1018B000002C0A1B00110A1A00F7091A00DD091989
:1018C00000C4091900AB091900920917007B091817
:1018D00000630917004C0916003609160020091686
:1018E000000A091500F5081500E0081400CC0814DA
:1018F00000B8081400A4081400900813007D081212
:10190000006B081300580812004608120034081132
:1019100000230811001208110001081100F007103F
:1019200000E0071000D0071000C0071000B0070F3C
:1019300000A107100091070E0083070F0074070F26
:101940000065070E0057070E0049070E003B070D04
:10195000002E070E0020070D0013070D0006070DCF
:1019600000F9060C00ED060D00E0060C00D4060C94
:1019700000C8060C00BC060C00B0060C00A4060B48
:101980000099060C008D060B0082060B0077060BF3
:10199000006C060B0061060A0057060B004C060A95
:1019A0000042060A0038060A002E060A0024060A2B
:1019B000001A060A001006090007060A00FD0509BC
:1019C00000F4050900EB050900E2050900D9050945
:1019D00000D0050900C7050900BE050900B50508C6
:1019E00000AD050800A50509009C05080094050840
:1019F000008C050800840508007C050800740508B3
:101A0000006C050700650508005D05070056050820
:101A1000004E050700470507004005080038050788
:101A200000310507002A050700230507001C0506ED
:101A300000160507000F0507000805060002050748
:101A400000FB040600F5040700EE040600E80406A7
:101A500000E2040700DB040600D5040600CF0406FC
:101A600000C9040600C3040600BD040600B704064E
:101A700000B1040500AC040600A6040600A004059D
:101A8000009B04060095040500900406008A0405E6
:101A90000085040500800406007A0405007504052D
:101AA00000700405006B0405006604050061040570
:101AB000005C04050057040500520405004D0405B0
:101AC0000048040500430405003E0404003A0405F0
:101AD0000035040500300404002C0405002704042C
:101AE00000230405001E0404001A04040016040563
:101AF00000110404000D040400090405000404049A
:101B00000000040400FC030400F8030400F40304D0
:101B100000F0030400EC030400E8030400E4030401
:101B200000E0030400DC030400D8030400D4030431
:101B300000D0030400CC030400C8030300C5030362
:101B40000024F404D9201BC40C5C0E9804C4095F63
:101B50000265077101F405F900FB04B3004804872E
:101B600000C10369005803550003034500BE023A53
:101B7000008402310053022A0029022500040220B9
:101B800000E4011C00C8011900AF011700980114FE
:101B90000084011300710110006101100051010E59
:101BA0000043010D0036010B002B010B0020010B3F
:101BB00000150109000C01090003010800FB0008E1
:101BC00000F3000800EB000700E4000600DE00065A
:101BD00000D8000600D2000600CC000500C70005B2
:101BE00000C2000500BD000400B9000400B50004F7
:101BF00000B1000400AD000400A9000400A500032A
:101C000000A20003009F0004009B00030098000353
:101C1000009500020093000300900003008D000275
:101C2000008B00030088000200860002008400038D
:101C300000810002007F0002007D0002007B0002A4
:101C400000790002007700010076000200740002B3
:101C50000072000100710002006F0002006D0001BF
:101C6000006C0002006A00010069000200670001C8
:101C700000660001006500010064000200620001CE
:101C80000061000100600001005F0002005D0001D2
:101C9000005C0001005B0001005A000100590001D6
:101CA00000580001005700010056000100550001D6
:101CB00000540001005300000053000100520001D5
:101CC0000051000100500001004F0001004E0000D3
:101CD000004E0001004D0001004C0001004B0000CF
:101CE000004B0001004A00010049000100480000CB
:101CF00000480001004700010046000000460001C6
:101D000000450000004500010044000100430000C0
:101D100000430001004200000042000100410000B9
:101D20000041000100400001003F0000003F0001B1
:101D3000003E0000003E0001003D0000003D0001AB
:101D4000003C0000003C0000003C0001003B0000A3
:101D5000003B0001003A0000003A00010039000099
:101D60000039000100380000003800000038000190
:101D70000037000000370001003600000036000088
:101D8000003600010035000000350000003500017C
:101D90000034000000340000003400010033000073
:101DA0000033000000330001003200000032000068
:101DB000003200010031000000310000003100015C
:101DC000003000000030000000300001002F000053
:101DD000002F0000002F0000002F0001002E000047
:101DE000002E0000002E0001002D0000002D00003C
:101DF000002D0000002D0001002C0000002C000030
:101E0000002C0000002C0001002B0000002B000023
:101E1000002B0000002B0001002A0000002A000017
:101E2000002A0000002A000100290000002900000B
:101E300000290000002900000029000100280000FE
:101E400000280000002800000028000000280001F1
:101E500000270000002700000027000000270000E6
:101E600000270001002600000026000000260000D8
:101E700000260000002600010025000000250000CB
:101E800000250000002500000025000000250001BD
:101E900000240000002400000024000000240000B2
:101EA00000240001002300000023000000230000A4
:101EB0000023000000230000002300000023000195
:101EC000002200000022000000220000002200008A
:101ED000002200000022000100210000002100007B
:101EE000002100000021000000210000002100006E
:101EF0000021000100200000002000000020000060
:101F00000020000000200000002000000020000051
:101F100000200001001F0000001F0000001F000043
:101F2000001F0000001F0000001F0000001F000134
:101F3000001E0000001E0000001E0000001E000029
:101F400000043700001E290000511B00005810003B
:101F50000010090000CC04000078020000410100DC
:101F60000020436F756E7420583A00426564004546
:101F70003100626564002C2073797374656D207381
:101F8000746F7070656421204865617465725F4983
:101F9000443A200048656174696E67204661696C47
:101FA00065640048656174696E67206661696C6587
:101FB00064004572723A204D415854454D50004DD1
:101FC000415854454D502074726967676572656465
:101FD000004572723A204D494E54454D50004D49CE
:101FE0004E54454D50207472696767657265640090
:101FF000202F002042403A0020403A0000002100FB
:10200000240027002A0000002200250028002B00C1
:102010000000200023002600290002020202020222
:10202000020204040404040404040303030303037A
:102030000303010101010101010101020408102053
:102040004080010204081020408001020408102092
:1020500040808040201008040201000000010200BE
:10206000000000000000040307060000000000005C
:102070000000000000000000000068747470733AF3
:102080002F2F6D61726C696E66772E6F72670032EA
:102090002E302E362E310001FFFFFFFFFFFFFFFF26
:1020A000FFFFFFFFFF0FFFFFFFFFFFFFFFFFFFFF30
:1020B000FFFFFF1E0000000000000000000007FFFF
:1020C000FF380000000000000000000003FFFF7068
:1020D0000000000000000000000001FFFF600000A1
:1020E000000000000000000000FFFF600000000092
:1020F000000000000000007FFFC0000000000000A2
:1021000000007800003FFFC00FC0FC00000000008E
:102110007818001FFFC03FE1FF0000000000783C7E
:10212000000FFFC07FF3FF8000000000783C000735
:10213000FFC0FFFFFFC000000000783C0003FFC1AC
:10214000F87F87E00000000078000001FFC1F03F49
:1021500003E00000000078000000FFC1E01E01E085
:102160001F0003E0783C03F07FC1E01E01E07FC068
:102170000FF8783C07FC3FC1E01E01E1FFE01FFCC7
:10218000783C0FFE1FC1E01E01E3FFF03FFE783CEC
:102190001FFE0FC1E01E01E3F3F83F3E783C3F3FD6
:1021A00007C1E01E01E7E0FC7C1F783C3E1F07C131
:1021B000E01E01E7C07C7C0F783C3C0F03C1E01EB1
:1021C00001E7807C780F783C3C0F03C1E01E01E7FB
:1021D000803C7800783C3C0F03C1E01E01E7803C66
:1021E0007800783C3C0F03C1E01E01E7803C78009A
:1021F000783C3C0F03C1E01E01E7C03C7800783C0E
:102200003C0F03C1E01E01E3E03C78007C3C3C0F46
:1022100003C1E01E01E3FF3FF8007FBC3C0F03C198
:10222000E01E01E1FF3FF8003FBFFC0F03C1E01ECD
:1022300001E0FF3FF8001FBFFC0F03C1E01E01E0FB
:102240007F3FF8000FBFFC0F03600000000000009C
:102250000000000000000760000000000000000017
:1022600000000000067000000000000000000000F8
:1022700000000E3800000000000000000000000018
:102280001C1E000000000000000000000000780F8D
:10229000FFFFFFFFFFFFFFFFFFFFFFFFF001FFFF5B
:1022A000FFFFFFFFFFFFFFFFFFFF802020506C615B
:1022B0006E6E657242756666657242797465733AD0
:1022C00020002046726565204D656D6F72793A2059
:1022D00000436F6D70696C65643A2044656320202B
:1022E0003720323032310A00204C6173742055702F
:1022F00064617465643A20323032302D30382D32CA
:1023000038207C20417574686F723A2028426F62D1
:10231000204B75686E2C20416E657420636F6E666D
:102320006967290A00322E302E362E310A004D619F
:10233000726C696E0020536F66747761726520520B
:10234000657365740A00205761746368646F672061
:1023500052657365740A002042726F776E206F7544
:10236000742052657365740A002045787465726E36
:10237000616C2052657365740A00506F7765725501
:10238000700A0073746172740A00456E6473746F2E
:1023900070730025532025632025632025632025A5
:1023A0006300205A3A0020593A0020583A00656EDE
:1023B0006473746F7073206869743A2000434F4DE2
:1023C0004D554E49434154494F4E00445259525580
:1023D0004E004552524F525300494E464F0045431E
:1023E000484F005072696E742050617573656400C7
:1023F0001000C90210012C014001220170011801D6
:10240000B0010E01F00104015002FA00B002F00028
:102410003003E600D003DC009004D2007005C80051
:10242000A006BE000008B400B009AA00D00BA000AE
:10243000600E960060118C00001582002019780053
:10244000C01D6E00A0226400B0275A00902C5000DE
:1024500000314600E0343C0010383200903A280049
:10246000603C1E00A03D1400803E0A00203F00009A
:10247000004D6F76652025736D6D004D6F7665207C
:10248000302E316D6D004D6F766520316D6D004DD4
:102490006F76652031306D6D004D6F766520417827
:1024A000697300486F74656E6420746F6F20636F8A
:1024B0006C64004578747275646572004D6F766562
:1024C000205A004D6F76652059004D6F7665205873
:1024D000006F6B00496E76616C6964206578747278
:1024E000756465720A00290A0020746F20003F5A43
:1024F000206F7574206F662072616E6765202800FA
:10250000290A0020746F20003F59206F7574206FD6
:10251000662072616E676520282D00290A002074EC
:102520006F20003F58206F7574206F662072616EB7
:10253000676520282D0050726F6265204F666673B4
:102540006574205800454550524F4D204F4B0A00AE
:102550004F666673657473204170706C69656400C2
:102560004572723A20546F6F206661722100546F79
:102570006F206661722066726F6D2072656665728B
:10258000656E636520706F696E740A00FFFFFF005F
:102590000040C1000000C100000000426564204C02
:1025A0006576656C696E6720004661696C656420BC
:1025B000746F20656E61626C6520426564204C65B5
:1025C00076656C696E670A00426564204C657665C5
:1025D0006C20436F7272656374696F6E204D617415
:1025E0007269783A0064697300656E0043290A00D5
:1025F00061626C656420286D696E2074656D702061
:1026000000436F6C64206578747275646573206133
:102610007265200020643A0020693A0020703A0078
:1026200020643A0020693A0020703A00496E7661D1
:102630006C69642065787472756465720A003A206A
:102640000020536572766F2000206F7574206F66CE
:102650002072616E67650A00536572766F200020F4
:10266000466C6F773A200046523A004F4646004F7C
:102670004E0020580020204D61783A200020002094
:10268000204D696E3A2000536F667420656E647346
:10269000746F70733A20003F4A206F7574206F6624
:1026A0002072616E67652028302E303120746F20D3
:1026B000302E33290A002054002052004163636504
:1026C0006C65726174696F6E3A2050004D3134351B
:1026D00020533C696E6465783E206F7574206F6688
:1026E0002072616E67652028302D31290A002F2F56
:1026F00020004348414D4245525F54454D5045529C
:102700004154555245004241425953544550504955
:102710004E470041524353004D4F54494F4E5F4D79
:102720004F44455300544845524D414C5F50524F21
:1027300054454354494F4E004C4F4E475F46494C19
:10274000454E414D45004155544F5245504F52540E
:102750005F53445F535441545553005344434152D3
:10276000440050524F4D50545F535550504F5254A7
:1027700000454D455247454E43595F5041525345E0
:102780005200434153455F4C494748545F425249C8
:102790004748544E45535300544F47474C455F4CB0
:1027A000494748545300534F4654574152455F5090
:1027B0004F574552004255494C445F50455243459E
:1027C0004E54004C4556454C494E475F4441544198
:1027D000005A5F50524F42450052554E4F555400DB
:1027E0004155544F4C4556454C005052494E545F4C
:1027F0004A4F420050524F4752455353004155549F
:102800004F5245504F52545F54454D5000564F4C17
:10281000554D455452494300454550524F4D004295
:10282000494E4152595F46494C455F5452414E53BF
:102830004645520053455249414C5F584F4E5F58F0
:102840004F4646004649524D574152455F4E414D15
:10285000453A4D61726C696E20322E302E362E3123
:102860002028446563202037203230323120313730
:102870003A31323A32342920534F555243455F435F
:102880004F44455F55524C3A68747470733A2F2F19
:102890006769746875622E636F6D2F4D61726C6924
:1028A0006E4669726D776172652F4D61726C696EEB
:1028B0002050524F544F434F4C5F56455253494F4F
:1028C0004E3A312E30204D414348494E455F5459D0
:1028D00050453A416E657420413820455854525550
:1028E0004445525F434F554E543A31205555494463
:1028F0003A63656465326132662D343161322D345C
:102900003734382D396231322D63353563363266CE
:1029100033363766660A00416E6574204138204FB1
:1029200046462E0020573A0042656420436F6F6C84
:10293000696E672E2E2E00426564204865617469B9
:102940006E672E2E2E004D3131322053687574641F
:102950006F776E006F666600DE23D923D223CB2308
:10296000BD2344454255473A006F6B0050726F7467
:1029700065637465642050696E0A00496E76616C07
:1029800069642050696E204D6F64650A0025697383
:102990000025696D20256973002569682025696D0A
:1029A0002025697300256964202569682025696DE3
:1029B00020256973002569792025696420256968C7
:1029C0002025696D20256973005072696E7420742A
:1029D000696D653A20004E6F204D6F76652E00437D
:1029E0006C69636B20746F20526573756D652E2E54
:1029F0002E00205A3A200020593A200042656420D7
:102A0000583A20005A2050726F62652050617374EA
:102A1000204265640A005A2050726F62652050613E
:102A200073742042656400536C6565702E2E2E0011
:102A300020746F6F206C6F6E672065787472757389
:102A4000696F6E2070726576656E7465640A002029
:102A5000636F6C6420657874727573696F6E207033
:102A6000726576656E7465640A0050726F62696E95
:102A700067204661696C65640A0050726F62696E16
:102A800067204661696C656400205A3A200020592D
:102A90003A200042656420583A2000220A00556E10
:102AA0006B6E6F776E20636F6D6D616E643A20227E
:102AB00000416E65742041382052656164792E00B2
:102AC0005072696E74696E672E2E2E0020450020AC
:102AD0005A00205900204D393220580020453A0034
:102AE000205A3A0020593A00583A00DB0FC93F45B6
:102AF000BCDA3F8FB30240FCF0274056946140FEA1
:102B00004B9B4084A5D840E0231841346A5641E8E5
:102B100059974164DBD5416E271742B4B75542CE71
:102B20001A9742C8AED542B5885A43D40684BFA688
:102B30005FA7BF7443E0BF10B11AC01C2C58C0E897
:102B4000F697C0B849D6C04E4E17C124D355C180A0
:102B50002497C1A0B5D5C1121A17C244AE55C27888
:102B60001797C26CACD5C267885AC320746F6F20A8
:102B70006C6F6E6720657874727573696F6E207004
:102B8000726576656E7465640A0020636F6C6420FC
:102B9000657874727573696F6E2070726576656E94
:102BA0007465640A00544845524D414C2052554EBC
:102BB0004157415900546865726D616C2052756EC1
:102BC0006177617900004CDF11241FBECFEFD0E4A4
:102BD000DEBFCDBF12E0A0E0B1E0E8EFFBED01E029
:102BE0000BBF02C007900D92A430B107D9F72EE0B9
:102BF000A4E0B2E001C01D92A534B207E1F715E1EF
:102C0000C4EED5E104C02197FE010E949EEDC33EB3
:102C1000D107C9F70E9428DB0C94FAED0C94000050
:102C20006091200170912101072E000C880B990BF7
:102C30000E94AAE42AE037ED43E25CE30E9409E542
:102C400020915306309154064091550650915606F6
:102C50000E9409E560934B0170934C0180934D01F4
:102C600090934E01089580914A06811104C080918D
:102C7000280680932D07089580914A06811104C08B
:102C80008091280680932D070895CF93DF93EC0160
:102C9000CB01BA010E94AAE420E030E0A9010E9421
:102CA0004FEB0E9444EC79836883DF91CF910895C4
:102CB000CF93DF93EC01CB01BA010E94AAE420E09C
:102CC00030E0A9010E944FEB0E944BEC79836883AE
:102CD000DF91CF910895CF93DF93EC01CB01BA013F
:102CE0000E94AAE429EC38EC48EC5EE30E94D2EBA7
:102CF00020E030E040E05FE30E944FEB0E944BECAD
:102D00006883DF91CF910895E0914A0686E0E8025A
:102D1000F0011124E857F94F8091280690E095833F
:102D200084830895CF93DF9300D000D0CDB7DEB772
:102D300084EF91E0A0E0B0E089839A83AB83BC8309
:102D4000BE016F5F7F4F8CE30E94CB540F900F90BA
:102D50000F900F90DF91CF910895CF93DF9300D024
:102D600000D0CDB7DEB784EF91E0A0E0B0E089837A
:102D70009A83AB83BC83BE016F5F7F4F80EA0E9462
:102D8000CB540F900F900F900F90DF91CF9108953B
:102D9000CF93DF9300D000D0CDB7DEB784EF91E0C2
:102DA000A0E0B0E089839A83AB83BC83BE016F5FF0
:102DB0007F4F88E70E94CB540F900F900F900F9099
:102DC000DF91CF910895CF93DF9300D000D0CDB79E
:102DD000DEB78EEE92E0A0E0B0E089839A83AB8309
:102DE000BC83BE016F5F7F4F8AE00E94CB540F907F
:102DF0000F900F900F90DF91CF910895CF93DF93B5
:102E000000D000D0CDB7DEB78EEE92E0A0E0B0E00B
:102E100089839A83AB83BC83BE016F5F7F4F8AE552
:102E20000E94CB540F900F900F900F90DF91CF9195
:102E30000895CF93DF93EC01CB01BA010E94AAE47D
:102E400020E030E040E251E40E94D2EB20E030E0AC
:102E5000A9010E944FEB688379838A839B83DF916A
:102E6000CF910895CF93DF93EC01CB01BA010E947B
:102E7000AAE420E030E040E251E40E94D2EB20E0FE
:102E800030E0A9010E944FEB688379838A839B839A
:102E9000DF91CF910895CF93DF93EC01CB01BA017D
:102EA0000E94AAE420E030E048EC52E40E94D2EB19
:102EB00020E030E0A9010E944FEB688379838A8388
:102EC0009B83DF91CF910895CF93DF93EC01CB01EA
:102ED000BA010E94AAE42AE037ED43E25DE30E94D2
:102EE000D2EB20E030E0A9010E944FEB0E944BECB6
:102EF000688379838A839B83DF91CF910895CF93F1
:102F0000DF93EC01CB01BA010E94AAE420E030E09B
:102F1000A9010E944FEB688379838A839B83DF91A9
:102F2000CF910895CF93DF93EC01CB01BA010E94BA
:102F3000AAE420E030E0A9010E944FEB6883798386
:102F40008A839B83DF91CF910895CF93DF93EC0128
:102F5000CB01BA010E94AAE42AE037ED43E25DE327
:102F60000E94D2EB20E030E0A9010E944FEB688381
:102F700079838A839B83DF91CF910895CF93DF93E9
:102F8000EC01CB01BA010E94AAE420E030E04AE75C
:102F900054E40E94D2EB20E030E0A9010E944FEB04
:102FA000688379838A839B83DF91CF9108958F9281
:102FB0009F92AF92BF92CF92DF92EF92FF926B01FE
:102FC0007C0120E030E0A9010E94A3E487FD6BC0F2
:102FD0006DEB77E386E095E3A70196010E944FEB46
:102FE0006B017C0120E030E040E251E40E9409E501
:102FF00020E030E040E251E40E9409E54B015C0131
:1030000020E030E0A901C701B6010E94A3E420E05E
:1030100030E040EA50E487FF04C020E030E040EABE
:1030200050ECC501B4010E944FEB20E030E040E2DB
:1030300051E40E94D2EB0E9444EC9B018BE237FFEB
:1030400005C022273327261B370B8DE28093770399
:10305000C90164E670E00E948AEDCB01EAE0F0E08D
:10306000BF010E948AED805D80937803C901BF0192
:103070000E948AED282FCB01BF010E948AED805D5E
:10308000809379038EE280937A03205D20937B0303
:1030900087E793E0FF90EF90DF90CF90BF90AF90E5
:1030A0009F908F9008956DEB77E386E095EB94CF3A
:1030B0000E94AAE420E030E040E251E40E94D2EB1A
:1030C00020E030E0A9010E944FEB0C94D7178F92BB
:1030D0009F92AF92BF92CF92DF92EF92FF92CF93E7
:1030E0006B017C0120E030E0A9010E94A3E487FD90
:1030F000AAC06DEB77E386E095E3A70196010E94F5
:103100004FEB6B017C0120E030E0A9010E94A3E4B9
:1031100087FF9EC0C701B601905820E030E040E232
:1031200051E40E9409E520E030E040E251E40E94D1
:1031300009E520E030E040EA50E40E944FEB20E057
:1031400030E040E251E40E94D2EB0E9444EC6B017B
:103150007C0180E28093750360E280E1C81687E21B
:10316000D806E104F1048CF0C701B60120E137E292
:1031700040E050E00E940DEBCA01B9012AE030E0C6
:1031800040E050E00E940DEB605D6093760360E2EA
:1031900088EEC81683E0D806E104F1048CF0C7017C
:1031A000B60128EE33E040E050E00E940DEBCA018A
:1031B000B9012AE030E040E050E00E940DEB605D94
:1031C0006093770360E284E6C816D104E104F10459
:1031D0008CF0C701B60124E630E040E050E00E94E8
:1031E0000DEBCA01B9012AE030E040E050E00E9456
:1031F0000DEB605D609378038AE0882E912CA12C02
:10320000B12CC701B601A50194010E940DEBC62F98
:10321000CA01B901A50194010E940DEB605D6093A4
:1032200079038EE280937A03C05DC0937B0385E7C8
:1032300093E0CF91FF90EF90DF90CF90BF90AF9051
:103240009F908F9008956DEB77E386E095EB55CFD7
:1032500020E030E040E251E4C701B60162CF0E94B5
:10326000AAE420E030E040E251E40E94D2EB20E00A
:1032700030E0A9010E944FEB0C9467188F929F9247
:10328000AF92BF92CF92DF92EF92FF92CF936B01FA
:103290007C0120E030E0A9010E94A3E487FD93C0F7
:1032A0006DEB77E386E095E3A70196010E944FEB73
:1032B0006B017C0120E030E040E251E40E9409E52E
:1032C00020E030E04AE754E40E9409E54B015C014C
:1032D00020E030E0A901C701B6010E94A3E420E08C
:1032E00030E040EA50E487FF04C020E030E040EAEC
:1032F00050ECC501B4010E944FEB20E030E040E209
:1033000051E40E94D2EB0E9444EC6B017C01C11499
:10331000D104E104F10409F45BC0F7FE59C0F09454
:10332000E094D094C094C11CD11CE11CF11C8DE22E
:1033300080937603C701B60128EE33E040E050E009
:103340000E940DEB8AE0882E912CA12CB12CCA0191
:10335000B901A50194010E940DEB605D60937703B4
:103360008EE280937803C701B60124E630E040E0A6
:1033700050E00E940DEBCA01B901A50194010E9421
:103380000DEB605D60937903C701B601A50194015F
:103390000E940DEBC62FCA01B901A50194010E943C
:1033A0000DEB605D60937A03C05DC0937B0386E79D
:1033B00093E0CF91FF90EF90DF90CF90BF90AF90D0
:1033C0009F908F9008956DEB77E386E095EB6CCF3F
:1033D00080E2AECF0E94AAE420E030E04AE754E465
:1033E0000E94D2EB20E030E0A9010E944FEB0C9448
:1033F0003E198F929F92AF92BF92CF92DF92EF923F
:10340000FF92CF936B017C0120E030E0A9010E9484
:10341000A3E487FFA3C06DEB77E386E095EBA701FC
:1034200096010E944FEB6B017C0120E030E040E20E
:1034300051E40E9409E520E030E048EC52E40E94AB
:1034400009E54B015C0120E030E040E251ECC701AE
:10345000B6010E94A3E4181654F420E030E048ECD2
:1034600052E4C701B6010E94D2EC87FD8BC020E078
:1034700030E0A901C701B6010E94A3E487FF73C031
:1034800060E070E080EA90ECA50194010E944FEBAF
:1034900020E030E040E251E40E94D2EB0E9444EC94
:1034A0006B017C01F7FC64C020E137E240E050E0B2
:1034B0000E940DEBCA01B9012AE030E040E050E083
:1034C0000E940DEB605D60937603C701B60128EEA4
:1034D00033E040E050E00E940DEB9AE0892E912C01
:1034E000A12CB12CCA01B901A50194010E940DEBD8
:1034F000605D60937703C701B60124E630E040E0E9
:1035000050E00E940DEBCA01B901A50194010E948F
:103510000DEB605D609378038EE280937903C701C1
:10352000B601A50194010E940DEBC62FCA01B90195
:10353000A50194010E940DEB605D60937A03C05D6C
:10354000C0937B0386E793E0CF91FF90EF90DF90ED
:10355000CF90BF90AF909F908F9008956DEB77E3E1
:1035600086E095E35CCF60E070E080EA90E48CCF89
:10357000F094E094D094C094C11CD11CE11CF11CC7
:103580006DE2A1CF20E030E0A901C701B6010E94A1
:10359000A3E487FF6AC060E070E080EA90ECA501D8
:1035A00094010E944FEB20E030E040E251E40E94A1
:1035B000D2EB0E9444EC4B015C0120E030E0A90119
:1035C000C701B6010E94D2EC87FD0BC020E030E0BD
:1035D00040E251E4C701B6010E94A3E460E287FD26
:1035E00013C0B7FC47C0C501B40128EE33E040E08A
:1035F00050E00E940DEBCA01B9012AE030E040E042
:1036000050E00E940DEB605D60937703C501B4014B
:1036100024E630E040E050E00E940DEB8AE0C82E46
:10362000D12CE12CF12CCA01B901A70196010E940D
:103630000DEB605D609378038EE280937903C501A2
:10364000B401A70196010E940DEBC62FCA01B90172
:10365000A70196010E940DEB605D60937A03C05D47
:10366000C0937B0387E793E06FCF60E070E080EA70
:1036700090E495CFB094A09490948094811C911C78
:10368000A11CB11C6DE2C0CF0E94AAE420E030E092
:1036900048EC52E40E94D2EB20E030E0A9010E9405
:1036A0004FEB0C94F919FC0184910895FC01808181
:1036B00008950F931F93522F2091DD0C3091DE0C53
:1036C0002817390721F19093DE0C8093DD0C8B01D4
:1036D00030E020E000933306109334062093350643
:1036E0003093360640932C0650932D06895F904305
:1036F00021F4109274031092700382E080932701EA
:1037000081E08093430610926F03109271031F9122
:103710000F91089520E040E070E060E085E596E3D9
:103720000E94591B81E080937403109252061092FC
:103730005106089521E02093740360930201709371
:103740000301809304019093050120E040E070E0C4
:1037500060E080912606909127060C94591B6DEC31
:103760007CEC8CEC9CE30C949A1B6DEC7CEC8CEC6C
:103770009DE30C949A1B60E070E080E89FE30C945A
:103780009A1B60E070E080E291E40C949A1B8091B7
:103790008B0C90918C0C891B8F7039F481E0909187
:1037A0000407913019F080E0089581E0089520E049
:1037B00040E070E060E089EF90E30C94591BFC015D
:1037C000A081B1811C92A281B3818C918F5F8C9377
:1037D0000280F381E02D90818CE0989F800D112470
:1037E000EFEDFCE013AE84AF08954198000087FD33
:1037F0004BC0129800000000419A00000000419860
:10380000000086FD4DC0129800000000419A0000A3
:1038100000004198000085FD41C0129800000000A2
:10382000419A000000004198000084FD35C01298C4
:1038300000000000419A000000004198000083FD54
:1038400029C0129800000000419A00000000419831
:10385000000082FD1DC0129800000000419A000087
:1038600000004198000081FD11C012980000000086
:10387000419A0000000041980000129800000000EA
:10388000419A000000000895129AB4CF129AEECF28
:10389000129AE2CF129AD6CF129ACACF129ABECFFC
:1038A000129AB2CF089590E080E00895CF93DF930D
:1038B000CDB7DEB720E24F8158856E818D810E94A1
:1038C00053BCDF91CF9108950E94AAE420E030E03C
:1038D000A9010E944FEB0E9444ECCB010C947A9C0E
:1038E000CF92DF92EF92FF926B017C0120E030E0FB
:1038F000A9010E94A3E487FD26C06DEB77E386E073
:1039000095E3A70196010E944FEB6B017C0120E03B
:1039100030E0A9010E94A3E420E030E040E05FE352
:1039200087FF04C020E030E040E05FEBC701B60154
:103930000E944FEB0E9444ECCB01FF90EF90DF9090
:10394000CF900C947A9C6DEB77E386E095EBD9CF22
:103950000E94AAE420E030E0A9010E944FEB0C9401
:10396000701C0E94AAE429EC38EC48EC5EE30E944B
:10397000D2EB20E030E040E05FE30E944FEB0E949A
:103980004BEC862F0C94DD9C0C94F5A60C94F5A6BC
:1039900010922D070E94D6780C94D71B6FE577E321
:1039A00083E00C9496D861EB79E382E00C9496D88E
:1039B00066EB79E381E00C9496D86BEB79E380E0D9
:1039C0000C9496D80E94AAE420E030E0A9010E945D
:1039D0004FEB0E944BECCB010C94AF9C80E090E04D
:1039E000A0E8B0E48093590190935A01A0935B0141
:1039F000B0935C0187E891E00E947B918091720313
:103A00008130C9F1D4F4882309F18FE891E00E9454
:103A10007B911092590110925A0110925B01109201
:103A20005C0187E891E00E947B91809172038F5F37
:103A300084309CF5809372030895823049F183307D
:103A400021F780E090E0A0EFB1E419C080E090E0C1
:103A5000A0EFB1E48093510190935201A0935301E0
:103A6000B09354018093550190935601A093570150
:103A7000B0935801CACF80E090E0AEE3B3E4809306
:103A8000510190935201A0935301B0935401BDCFC3
:103A900080E090E0AEE3B3E4E5CF109272030895C6
:103AA00080912701882331F041E068EC7BE082E0DF
:103AB0000E94F6BB8091B2068770873079F410922D
:103AC000720320E040E070E060E080E49FE20E944A
:103AD000591B81E0809371030C94EE1C08950C94A3
:103AE0003C840C943C840C943C840C943C840C9456
:103AF000EE830C94EE830C94EE830C94EE83CF93C0
:103B0000DF9300D000D0CDB7DEB70E944BEC0E940F
:103B1000A8E469837A838B839C83CE0101960E94FB
:103B2000FC9A0F900F900F900F90DF91CF91089516
:103B30000E94AAE42AE037ED43E25DE30E94D2EB63
:103B400020E030E0A9010E944FEB0C947F1DCF9242
:103B5000DF92EF92FF92CF93DF9300D000D0CDB7EA
:103B6000DEB76B017C0120E030E0A9010E94A3E4F4
:103B700087FD1BC06DEB77E386E095E3A701960117
:103B80000E944FEB69837A838B839C83CE010196DD
:103B90000E94FC9A0F900F900F900F90DF91CF91A1
:103BA000FF90EF90DF90CF9008956DEB77E386E084
:103BB00095EBE4CF0E94AAE42AE037ED43E25DE30F
:103BC0000E94D2EB20E030E0A9010E944FEB0C9460
:103BD000A71D0E94AAE420E030E0A9010E944FEB5B
:103BE0000C94A71DCF92DF92EF92FF92CF93C82F34
:103BF0000E9444756B017C0124EA30E74DE75FE3E6
:103C0000609102017091030180910401909105017E
:103C10000E94A3E487FD18C08AEF90E0A0E0B0E026
:103C20008C0D9D1DAE1DBF1D80932803909329030D
:103C3000A0932A03B0932B03C0930001CF91FF9070
:103C4000EF90DF90CF90089580E090E0DC01E8CF26
:103C5000AF92BF92CF92DF92EF92FF920F931F939A
:103C6000CF93DF936B01E9014A3009F4B8C04531C5
:103C700009F06AC0DB011296ED91FC91F280C681D9
:103C8000D781119A88E28A950000E9F7BF2CB29497
:103C900020EFB22230E1A32EAF0C48E2E42E88EFF1
:103CA0000E94F51B8E2D8A950000E9F7BFE1BF1534
:103CB00008F481C08F2D807780680E94F51B8B2DC2
:103CC0000E94F51B8E2D8A950000E9F780E80E947E
:103CD000F51B80E00E94F51B8E2D8A950000E9F708
:103CE0008AEF0E94F51B8E2D8A950000E9F78E0160
:103CF000005F1F4F8881807F0E94F51B899182950C
:103D0000807F0E94F51BC017D107A1F78E2D8A95E1
:103D10000000E9F7F394E0E1BE0EFA10C0CF11986D
:103D2000D6011296CD91DC91CE010E94E6758111EB
:103D3000DEC1DF91CF911F910F91FF90EF90DF9047
:103D4000CF90BF90AF900895FB0102811381423361
:103D500009F488C108F48CC1463409F479C14734A8
:103D600009F47CC14B3329F589812B81D801129646
:103D70006C91129713964C91213009F4CFC12330E6
:103D800009F099C138EF380F582F91E0431708F424
:103D900090E041E0531708F040E031E0561708F496
:103DA00030E0592F542B352309F0ADC1942309F08D
:103DB000AAC181E0BECF80EE8F0D8068807F0E9417
:103DC000F51B8F2D8295807F0E94F51B8E2D8A9585
:103DD0000000E9F780E80E94F51B80E87BCF099A94
:103DE00011980A9A1298399A419A119A88E28A95FA
:103DF0000000E9F788E790E0CEE9DFE0FE013197C7
:103E0000F1F70197D9F788EF0E94F51B18E2812F8F
:103E10008A950000E9F780E20E94F51B80E00E948D
:103E2000F51B812F8A950000E9F780E00E94F51BC1
:103E300080E80E94F51B812F8A950000E9F780E059
:103E40000E94F51B80E10E94F51B812F8A950000DE
:103E5000E9F7CE010197F1F7CE010197F1F7CE0115
:103E60000197F1F7CE010197F1F7CE010197F1F734
:103E7000CE010197F1F7CE010197F1F7CE0101973D
:103E8000F1F7CE010197F1F7CE010197F1F7CE01DD
:103E90000197F1F7CE010197F1F7CE010197F1F704
:103EA000CE010197F1F72197F1F780E20E94F51B0F
:103EB00080E40E94F51B812F8A950000E9F780E2DB
:103EC0000E94F51B80E60E94F51B1A950000E9F799
:103ED00010E0D0E0C8E28D2F807780680E94F51B4B
:103EE000812F0E94F51B8C2F8A950000E9F780E84E
:103EF0000E94F51B80E00E94F51B8C2F8A95000024
:103F0000E9F78AEF0E94F51B8C2F8A950000E9F7EC
:103F100080E241980000129800000000419A0000E1
:103F2000000041980000129800000000419A000033
:103F3000000041980000129800000000419A000023
:103F4000000041980000129800000000419A000013
:103F5000000041980000129800000000419A000003
:103F6000000041980000129800000000419A0000F3
:103F7000000041980000129800000000419A0000E3
:103F8000000041980000129800000000419A0000D3
:103F9000000041980000129800000000419A0000C3
:103FA000000041980000129800000000419A0000B3
:103FB000000041980000129800000000419A0000A3
:103FC000000041980000129800000000419A000093
:103FD000000041980000129800000000419A000083
:103FE000000041980000129800000000419A000073
:103FF000000041980000129800000000419A000063
:10400000000041980000129800000000419A000052
:1040100000009C2F9A950000E9F7815009F079CFB4
:1040200088EF0E94F51B8C2F8A950000E9F7DF5F6F
:10403000105FD03209F04FCF80E00E94F51B80EC7A
:104040000E94F51BCA950000E9F7119881E071CE36
:10405000D80115968C91888381E06BCEF80181811F
:104060008883FACFB901C8010E94D07581E061CE82
:10407000443171F0473109F09CCE1882F8018281F9
:104080008983858181508A8383818B8381E051CEAE
:10409000D80115964C91159750E0440F551F70E0CC
:1040A00060E016968D919C910E94B9EDC8010E9426
:1040B000FC7581E03ECE481708F47BCE861708F4E5
:1040C00078CEFA80E12CD12C243070F41DC0BE01D2
:1040D000C8010E94D075898198819D0D98838E0DAD
:1040E0008983FF0C09F465CEF7FEF6CFF0CF4D8142
:1040F00050E0440F551F70E060E08E819F810E9468
:10410000B9ED81E016CEFA8030E0F901E559FE4FB5
:10411000D08029593E4FF901E080E6CF58E0580F92
:10412000382F33CEDF92EF92FF920F931F93CF93EE
:10413000DF93EC01D62E1CAD0BAD7C0184E0E80EC4
:10414000F11CE98DFA8DC7010995412F480F2D2DDE
:10415000602FC7010E94E2779BAD890F8BAF81E092
:1041600090E0DF91CF911F910F91FF90EF90DF9042
:1041700008959F92AF92BF92CF92DF92EF92FF92FB
:104180000F931F93CF93DF93EC018B01942EA52EF9
:104190008A859B858617970731F0888199810E94CF
:1041A0009A761B870A8788859985019649F5BC8090
:1041B0000A818E81080FC880D980D6015596ED916D
:1041C000FC91C6010995B80EE92CFA2C10E0F70114
:1041D00021917F01211127C08E819F81810F911D27
:1041E0009F838E8390E080E0DF91CF911F910F91AC
:1041F000FF90EF90DF90CF90BF90AF909F90089589
:104200000E811F81692D7A2D888199810E94A9BB19
:10421000800F912F911D288539852817390738F689
:1042200081E090E0E1CF4B2D602FC6010E94E27744
:10423000080F180FCCCFEF92FF920F931F93CF93DD
:10424000DF93EC018B017A018A859B85861797079E
:1042500031F0888199810E949A761B870A87B7017D
:10426000888199810E94A9BB2E813F81820F932F63
:10427000911D9F838E8390E080E0DF91CF911F910D
:104280000F91FF90EF900895CF92DF92EF92FF92FF
:104290000F931F93CF93DF93CDB7DEB72C970FB655
:1042A000F894DEBF0FBECDBFF0901A0DE0901B0D4D
:1042B00020910F0321111DC048EC58E06E2D8F2D69
:1042C0000E9434A890E080E0F80EF0921A0DE0927F
:1042D0001B0D99272C960FB6F894DEBF0FBECDBFED
:1042E000DF91CF911F910F91FF90EF90DF90CF90D2
:1042F0000895C090E70CD090E80C23EE3CE03A83A0
:1043000029832F2D30E03C832B832E2D30E03E83FC
:104310002D8318861F827A8769871C861B8609EB86
:1043200010E29E012F5F3F4F43E55BE1BC01C601F8
:104330000E94EFA7B60183EE9CE00E949A768F81DF
:104340009885C2CF0F931F93CF93DF938C01EB011E
:104350009091CB0C2091CC0C921305C00E94089D2B
:104360000E94DE7AF5CF8091CA0C34E0839FF00181
:104370001124E353F34F11830083D383C2839F5FE0
:104380009093CB0C8F5F281739F08093CA0CDF9184
:10439000CF911F910F9108951092CA0CF8CF63E945
:1043A00072E084E690E00E94A2216AEB72E084E66B
:1043B00090E00C94A2210E948A950C94CF21811147
:1043C0000C94CF2168EB71E084E190E00C94A22181
:1043D0000E946F7F0C94DF210E9462A60C94DF2163
:1043E000CF930E948A950E946F7FC82F882319F06F
:1043F00080E00E94059E8C2F0E94DF21CF910C94BB
:10440000D71B20911601309117012F5031098217C7
:1044100093070CF49C013093520C2093510C0C9494
:10442000F5A60F931F93CF93C42F062F062E000CD3
:10443000110B67FD14C086E0809FF001819FF00D95
:104440001124E857F94F80819181009741F0853020
:1044500021E0920710F084E091E00E940122C7FD64
:1044600015C086E0C802F0011124E857F94F828197
:104470009381009759F08837910514F088E790E010
:1044800090937A06809379060E94507586E0809F0B
:10449000F001819FF00D1124E857F94F8481958137
:1044A0008F3F910519F010F08FEF90E080932D076A
:1044B000CF911F910F910C94D71B4FEF609128065D
:1044C00090E080E00C941122E0917003EE2389F0DB
:1044D000E150E093700388E0E89FF0011124E15C73
:1044E000FC4F6281738127814681808191810C9488
:1044F000591B0C94D71B4F925F926F927F928F92B1
:104500009F92AF92BF92CF92DF92EF92FF920F9362
:104510001F93CF93DF93009128060E9445BDC09161
:104520002C0610E0000F111F0057124F95E0592E76
:104530005C0E26E7E22E2DE0F22ED3E0DC1B3DE5FB
:10454000C32E32E2D32E48E6A42E4DE0B42E82E0F4
:10455000782E7C1A5DE9852E5DE0952E81E0682E2F
:104560006C1A4C2E4194C11137C080912E068823BD
:10457000B1F080912701882359F081E090912E06B7
:10458000911180E024E044E85DE0642D0E9453BC7A
:10459000CF5F5C12E8CF84E080932D060CC0809141
:1045A000210610922106882321F30E946422809123
:1045B00043068823F1F2DF91CF911F910F91FF9075
:1045C000EF90DF90CF90BF90AF909F908F907F90B3
:1045D0006F905F904F900895C13069F5F801859113
:1045E000949190934C0680934B0680912E068130D7
:1045F00081F080912701882359F21F929F928F9218
:104600006F9281E090912E06913009F478C080E09D
:1046100076C08091210610922106882351F3609183
:104620002806462F90E080E00E94112280914306E8
:104630008823F9F2C0CFC23009F044C0F801859157
:10464000949190934C0680934B0680912E06823075
:10465000D1F080912701882309F49ACFDF92CF927D
:10466000BF92AF927F9281E090912E06923009F036
:1046700080E08F930E94561C0F900F900F900F9028
:104680000F900F9085CF80912106109221068823EC
:1046900001F30E945D22809143068823D1F28BCFE3
:1046A00080912106109221068823D1F0409128069E
:1046B0006FEF8FEF9FEF0E941122809143068823B6
:1046C00079F079CFC33009F063CFF80185919491E7
:1046D00090934C0680934B0680912E06833001F315
:1046E00080912701882309F453CF1F92FF92EF9204
:1046F000DF9381E090912E06933009F088CF8F935D
:104700000E94561C0F900F900F900F900F9040CF6B
:104710002F923F924F925F926F927F928F929F92D1
:10472000AF92BF92CF92DF92EF92FF920F931F93BF
:10473000CF93DF9300D000D0CDB7DEB70E9445BD48
:1047400010912C06212E85E0382E310E94EFC92EC3
:10475000DD24D394E12CF12C05E0011B2EEE422E3A
:1047600022E0522E612C712C84E0B82EB11A83E025
:10477000A82EA11A82E0982E911A81E0882E811A23
:1047800011113EC080912E068823B9F08091270137
:10479000882361F0622D619581E090912E06911140
:1047A00080E024E041E85CE00E9453BC1F5F1311ED
:1047B000E7CF86E080932D060CC0809121061092F1
:1047C0002106882319F30E946422809143068823DE
:1047D000E9F20F900F900F900F90DF91CF911F9102
:1047E0000F91FF90EF90DF90CF90BF90AF909F9090
:1047F0008F907F906F905F904F903F902F90089593
:10480000113069F580912E068130A1F08091270149
:10481000882361F28DEA96E19F938F9386E69CE070
:104820009F938F938F9281E090912E06913089F122
:1048300080E02FC08091210610922106882331F359
:10484000C982DA82EB82FC82BE016F5F7F4F80EA11
:104850000E94CB54809143068823C1F2BACF123014
:1048600009F0A7C080912E068230E9F080912701DF
:10487000882309F49BCF88EC96E19F938F9384E57E
:104880009CE09F938F939F9281E090912E069230AF
:1048900079F68F930E94561C0F900F900F900F90F7
:1048A0000F900F9083CF80912106109221068823CC
:1048B000E9F2C982DA82EB82FC82BE016F5F7F4F30
:1048C00088E70E94CB5480914306882379F281CFF8
:1048D00080912E068330A9F080912701882309F466
:1048E00065CF83EE96E19F938F938DE49CE09F9339
:1048F0008F93AF9281E090912E06933009F098CF7C
:10490000C8CF8091210610922106882329F349827D
:104910005A826B827C82BE016F5F7F4F8AE00E9469
:10492000CB54809143068823B9F253CF80912E0651
:104930008430A9F080912701882309F437CF8EEFC6
:1049400096E19F938F9388E49CE09F938F93BF920F
:1049500081E090912E06943009F06ACF9ACF809131
:10496000210610922106882329F349825A826B82FC
:104970007C82BE016F5F7F4F8AE50E94CB5480919D
:1049800043068823B9F225CF809121061092210693
:104990008823E1F0C982DA82EB82FC82BE016F5F7C
:1049A0007F4F8CE30E94CB5480914306882371F0A3
:1049B00010CF133009F48CCF143009F4B7CF153071
:1049C00009F0F4CE80912E068530F1F28091270116
:1049D000882309F4EBCE82E996E19F938F938EE5CD
:1049E0009CE09F938F930F9381E090912E069530DA
:1049F00009F01ECF4ECFE0917003E63010F581E054
:104A00008E0F80937003409133065091340660916D
:104A100035067091360690912C0680912D0628E07F
:104A2000E29FF0011124E15CFC4F2091DD0C3091FC
:104A3000DE0C3183208342835383648375839683A2
:104A400087830895CF93DF93EC010E94FB2420E03D
:104A500040E070E060E0CE01DF91CF910C94591BF3
:104A60009F92AF92BF92CF92DF92EF92FF920F93FD
:104A70001F93CF93DF930E9445BDC0912C0685E024
:104A8000E82EEC0E94E4C92E9DE0D92ED4E0DC1B78
:104A900013E01C1B2FE5A22E2DE0B22E02E00C1B12
:104AA00081E0F82EFC1A9C2E9194C11132C08091A5
:104AB0002E068823B1F080912701882359F081E0E8
:104AC00090912E06911180E024E043E65DE0692D8F
:104AD0000E9453BCCF5FCE11E8CF85E080932D06B6
:104AE0000CC08091210610922106882321F30E9498
:104AF0006422809143068823F1F2DF91CF911F91C8
:104B00000F91FF90EF90DF90CF90BF90AF909F906C
:104B10000895C13011F580912E06813079F0809191
:104B200027018823B9F281E090912E06913009F097
:104B300080E023E049E954E26F2DCACF809121063D
:104B400010922106882359F38AE196E20E942225D9
:104B500080914306882319F3D0CFC23009F053C0A7
:104B600090912E06923071F080912701882309F4EC
:104B7000B1CF81E0923009F080E020E245E55DE0D0
:104B8000602FA6CF8091210610922106882361F321
:104B9000B0928203A092810380914306882321F37F
:104BA000ACCF80912E06833081F08091270188233D
:104BB00009F490CF81E090912E06933009F080E0C7
:104BC00023E048E45DE0612F83CF809121061092BD
:104BD0002106882351F38EEF90E50E9422258091D3
:104BE0004306882311F389CF809121061092210674
:104BF000882391F0D0928203C09281038091430672
:104C0000882351F07ACFC33061F2C43009F062CF0B
:104C100090912E06943041F380912701882309F466
:104C200059CF81E0943009F080E020E243E35DE079
:104C30006D2F4ECFDF92EF92FF920F931F93CF9382
:104C4000DF930E9445BDC0912C0685E0E82EEC0E56
:104C5000D4E0DC1B13E01C1B02E00C1B81E0F82EEF
:104C6000FC1ADC2ED194C1112EC080912E0688230F
:104C7000B1F080912701882359F081E090912E06B0
:104C8000911180E024E04CE25DE06D2D0E9453BC68
:104C9000CF5FCE11E8CF85E080932D060CC08091C8
:104CA000210610922106882321F30E94642280911C
:104CB00043068823F1F2DF91CF911F910F91FF906E
:104CC000EF90DF900895C13011F580912E0681306C
:104CD00079F0809127018823D9F281E090912E0606
:104CE000913009F080E023E04AEC54E26F2DCECF02
:104CF0008091210610922106882359F38DED9CE1C5
:104D00000E94222580914306882319F3D4CFC23014
:104D100009F055C080912E06823081F080912701E4
:104D2000882309F4B5CF81E090912E06923009F0E6
:104D300080E023E043EC54E2602FA8CF809121066D
:104D400010922106882351F388ED9CE10E942225D0
:104D500080914306882311F3AECF80912E068330D5
:104D600081F080912701882309F492CF81E090910E
:104D70002E06933009F080E023E04CEB54E2612FE3
:104D800085CF8091210610922106882351F383ED6F
:104D90009CE10E94222580914306882311F38BCF4A
:104DA0008091210610922106882391F08EEC9CE1DF
:104DB0000E94222580914306882351F07CCFC33086
:104DC00061F2C43009F064CF80912E06843041F343
:104DD00080912701882309F45BCF81E090912E0612
:104DE000943009F080E023E043EB54E26D2F4ECF86
:104DF000DF92EF92FF920F931F93CF93DF93E09098
:104E000004070E9445BDC0912C0685E0F82EFC0EDB
:104E100013E01C1B02E00C1BD1E0DC1BDC2ED19448
:104E2000C1112EC080912E068823B1F080912701F8
:104E3000882359F081E090912E06911180E024E0C2
:104E400040E25DE06D2D0E9453BCCF5FFC12E8CFC5
:104E500084E080932D060CC08091210610922106DB
:104E6000882321F30E946422809143068823F1F273
:104E7000DF91CF911F910F91FF90EF90DF900895F8
:104E800081E0E81225C0C13009F046C080912E06AD
:104E9000813079F0809127018823B9F281E09091E7
:104EA0002E06913009F080E023E04BE15DE06D2FAC
:104EB000CACF8091210610922106882359F38CE5F0
:104EC0009BE30E94222580914306882319F3D0CFCB
:104ED000C13011F580912E06813079F08091270143
:104EE000882309F4B2CF81E090912E06913009F029
:104EF00080E023E044E15DE0DACF8091210610926A
:104F00002106882359F380E395E20E9422258091AF
:104F10004306882319F3ACCFC23019F580912E06D1
:104F2000823081F080912701882309F48ECF81E0BF
:104F300090912E06923009F080E023E048E05DE099
:104F4000602F81CF8091210610922106882351F392
:104F500089EF9CE30E94222580914306882311F368
:104F600087CFC33009F071CF80912E06833081F056
:104F700080912701882309F468CF81E090912E0663
:104F8000933009F080E023E04AEF5CE0612F5BCFD3
:104F90008091210610922106882351F386E99EE331
:104FA0000E94222580914306882311F361CF8093CC
:104FB000280620E040E070E060E08EE79FE20C947D
:104FC000591B0F931F93CF93DF938C016F3F19F4FD
:104FD0001092010760E020910107862F062E000C39
:104FE000990B2817190609F0F4F460930107C8011A
:104FF0000E94F0E3800F911FEC01C01BD10BCB325C
:10500000D1053CF00197FC012491207C2038D1F39C
:10501000F3CFDD27AE01B80186ED96E00E9411E4E2
:10502000CA52D94F1882DF91CF911F910F910895E5
:10503000CF93DF93CDB7DEB78D81909101078917AC
:1050400068F0809301079E01285F3F4F4E815F818A
:105050006AE270E086ED96E00E946AE4DF91CF910B
:1050600008950F931F930E94447500913B03109184
:105070003C0320913D0330913E03601B710B820B7A
:10508000930B97FD0CC089B183FB882780F991E0D1
:1050900089274A9B8260309B846080933A03809189
:1050A0003A03817090913A0391FD826090913903A7
:1050B000981749F0813009F148F0823079F0833057
:1050C00091F0809339031F910F910895913079F0F9
:1050D0009230B9F79091380391500CC0992339F070
:1050E0009330C1F3EECF9130A9F3923051F7909104
:1050F00038039F5F90933803E4CF992359F393309B
:1051000001F7F5CF81E080930F03EFE3FCE086E148
:1051100099E0918380831382128253985B9A52980C
:105120005A9A3898409A0E9431281092380308956C
:10513000AF92BF92CF92DF92EF92FF920F931F93A5
:10514000CF93DF93EC015B018A01FB01099587FD99
:1051500016C0C82ED12CF12CE12C2196F801C0826A
:10516000D182E282F382CE01DF91CF911F910F9124
:10517000FF90EF90DF90CF90BF90AF900895982F61
:10518000907E903CA9F48F7190E0B0E0A0E06C01BB
:105190007D0126E0CC0CDD1CEE1CFF1C2A95D1F70E
:1051A000CE010196F50109958F73C82A2296D6CFB4
:1051B000982F907F903E11F58F7090E0B0E0A0E0C6
:1051C0006C017D0186E0CC0CDD1CEE1CFF1C8A9579
:1051D000D1F7CE010196F50109958F73C82A96E0A3
:1051E000CC0CDD1CEE1CFF1C9A95D1F7CE0102966B
:1051F000F50109958F73C82A2396B0CF982F987F11
:10520000903F79F5877090E0B0E0A0E06C017D01FF
:10521000F6E0CC0CDD1CEE1CFF1CFA95D1F7CE019C
:105220000196F50109958F73C82AA6E0CC0CDD1C08
:10523000EE1CFF1CAA95D1F7CE010296F501099547
:105240008F73C82AB6E0CC0CDD1CEE1CFF1CBA958F
:10525000D1F7CE010396F50109958F73C82A2496DC
:105260007DCF982F9C7F983FE1F5837090E0B0E070
:10527000A0E06C017D0156E0CC0CDD1CEE1CFF1C97
:105280005A95D1F7CE010196F50109958F73C82A79
:1052900066E0CC0CDD1CEE1CFF1C6A95D1F7CE013C
:1052A0000296F50109958F73C82A76E0CC0CDD1CB7
:1052B000EE1CFF1C7A95D1F7CE010396F5010995F6
:1052C0008F73C82AE6E0CC0CDD1CEE1CFF1CEA95AF
:1052D000D1F7CE010496F50109958F73C82A25965A
:1052E0003DCF982F9E7F9C3F09F049C0817090E090
:1052F000B0E0A0E06C017D0186E0CC0CDD1CEE1C72
:10530000FF1C8A95D1F7CE010196F50109958F739F
:10531000C82A96E0CC0CDD1CEE1CFF1C9A95D1F738
:10532000CE010296F50109958F73C82A26E0CC0CB0
:10533000DD1CEE1CFF1C2A95D1F7CE010396F5016A
:1053400009958F73C82A36E0CC0CDD1CEE1CFF1CBF
:105350003A95D1F7CE010496F50109958F73C82AC5
:1053600046E0CC0CDD1CEE1CFF1C4A95D1F7CE01AB
:105370000596F50109958F73C82A2696EFCE982FCA
:10538000907C903841F4807C803869F42196CE017D
:10539000F5010995F8CF8E7F8D3F28F02196CE013B
:1053A000F5010995F8CFC12CD12C7601D7CE1F93EA
:1053B000CF93DF9300D000D0CDB7DEB710E0AE01C1
:1053C0004F5F5F4F63E57BE10E94982849815A81D6
:1053D0006B817C81452B462B472B11F01F5FEFCF54
:1053E000812F0F900F900F900F90DF91CF911F9111
:1053F00008951F93CF93DF9300D000D0CDB7DEB7D1
:1054000010E0AE014F5F5F4F66E57BE10E94982898
:1054100049815A816B817C81452B462B472B11F0AA
:105420001F5FEFCF812F0F900F900F900F90DF91A4
:10543000CF911F9108959CE0899F802D112491E0C8
:10544000980F90930E032CE0280F2093490630E02C
:105450002E5F3F4F4091170D4217130619F014F0BD
:1054600080E008952091190D9217D0F7662341F03E
:105470008E5F0E94DDBB809149068E5F0E94DDBB7E
:10548000809149069091170D891750F32091190DBD
:1054900090910E03291720F310921A0D80931B0D83
:1054A00081E0089520910D03022E000C330B82172A
:1054B000130641F080930D0361EF7DE083EE9CE0E5
:1054C0000C949A760895CF93DF93FC0125AD2111BA
:1054D00004C021E025AF0E945BA8C091E50CD091EB
:1054E000E60CE091140DF091150D82E00995E09124
:1054F000140DF091150D81E0099530E020E044E1B4
:10550000BE0183EE9CE00E94037626E13DE047E188
:10551000BE0183EE9CE00E940376E091140DF091B1
:10552000150D80E0DF91CF9109944F925F926F92B9
:105530007F928F929F92AF92BF92CF92DF92EF9223
:10554000FF920F931F93CF93DF9300D000D0CDB77E
:10555000DEB70E9444756B017C01809100018F3F92
:10556000D9F10E9444758090280390902903A0905F
:105570002A03B0902B03681979098A099B0997FDC2
:105580002BC080918B0C90918C0C8F5F8F70891742
:1055900019F1E0910001E43008F057C024E0E29FE7
:1055A000F0011124E159FE4F80819181A281B381E4
:1055B00089839A83AB83BC838E010F5F1F4F2DE5D8
:1055C00031E049E551E065E571E081E591E00E9457
:1055D0002BBA8FEF809300010E94312880913A030B
:1055E00082FF3CC08091370381113AC091E09093D3
:1055F000370380919C0689278093210610929C0690
:1056000083E08093270110923A030E9444756C5006
:105610007E4F8F4F9F4F60933B0370933C0380936B
:105620003D0390933E0368E873E182E090E00E94BE
:10563000A22116E01150A1F00E94089D62E070E0E6
:1056400080E090E00E941175F5CF80914301909128
:105650004401A0914501B0914601AACF10923703B1
:105660008091330390913403A0913503B0913603B8
:10567000A7019601281B390B4A0B5B0BDA01C90104
:10568000B7FF05C080916F03882309F4BBC1D70120
:10569000C6018C599F4FAF4FBF4F809333039093F8
:1056A0003403A0933503B093360360913803062E7C
:1056B000000C770B77FF03C071956195710990918C
:1056C000380380913203981365C0633008F062C0DC
:1056D000109238038091380380933203643008F0CD
:1056E00069C0809121068111E7C08091DD0C909105
:1056F000DE0C895F904341F480910101882309F415
:10570000EDC08150809301010E9457868090290747
:1057100090902A07A0902B07B0902C0781110E942F
:105720006486D501C4013AE0B695A795979587950B
:105730003A95D1F7009741E0A407B10520F08FEF2B
:105740009FEFA0E0B0E09695879520912701211169
:10575000D7C030916F03311183C18091DD0C9091DE
:10576000DE0C895F904309F462C18091740381115A
:105770005EC180912E0390912F03A0913003B091D0
:105780003103C81AD90AEA0AFB0AF7FC5EC10E9473
:10579000D71B5BC1633009F09DCF8091380387FD33
:1057A00007C081E0880F880F8093380364E092CFB0
:1057B0008FEFF8CF8091480621E030E040E050E0E4
:1057C000882309F456C08090440690904506A09026
:1057D0004606B090470681149104A104B104E9F192
:1057E00070E090E080E00E94A8E420E030E040E833
:1057F0005EE30E9409E52B013C01C701B60168196F
:1058000079098A099B090E94A8E49B01AC01C301A4
:10581000B2010E94D2EB20E030E04AE754E40E945B
:1058200009E54B015C0120E030E040EA52E40E94CF
:10583000D2EC24E630E040E050E087FF12C020E0E8
:1058400030E040EF51E4C501B4010E94D2EC2AE0FF
:1058500030E040E050E087FF04C021E030E040E06D
:1058600050E0C0924406D0924506E0924606F0927F
:105870004706A09138030A2E000CBB0B0E9437EBA1
:1058800024E030E040E050E00E940DEB80913306D0
:1058900090913406A0913506B0913606820F931F81
:1058A000A41FB51F8093330690933406A09335064A
:1058B000B093360610923803D701C6018856954C2E
:1058C000AF4FBF4F80932E0390932F03A0933003CD
:1058D000B093310381E08093270107CF8CE0809360
:1058E000010180912C0390912D03009729F00197DD
:1058F00090932D0380932C0381E08093270104CFA4
:10590000009741F040912C0350912D0348175907FF
:1059100008F023CF80916F03811112C0223038F03C
:10592000243008F441C0243011F4109227018FED87
:105930009CE00E94632A81E080932F0680936F038E
:1059400083E00E94522A81E08093030DE091DD0CF8
:10595000F091DE0C099510922F0680916F03811152
:1059600027C0109221068091DD0C9091DE0C895F9A
:10597000904309F0FACE0E944475DC01CB018C19EA
:105980009D09AE09BF0980902C0390902D03B12C86
:10599000A12C88169906AA06BB0608F0DECE9093C5
:1059A0002D0380932C03D9CE81E080932701BFCFB4
:1059B00083EE9CE00E94687691E0811101C090E046
:1059C00090936F03882369F28091DD0C9091DE0C37
:1059D000895F9043B9F40E944475DC01CB018C19B6
:1059E0009D09AE09BF09C0902C03D0902D03F12C66
:1059F000E12CC816D906EA06FB0620F490932D0385
:105A000080932C030F900F900F900F90DF91CF9108
:105A10001F910F91FF90EF90DF90CF90BF90AF90CC
:105A20009F908F907F906F905F904F90089548E97E
:105A3000C40E4AE3D41EE11CF11CC0922E03D09286
:105A40002F03E0923003F092310380916F038111B4
:105A5000D9CF809127018130A9F610922701D2CFAA
:105A6000009709F46DCF4ECFCF92DF92EF92FF9265
:105A70000F931F93CF93DF93CDB7DEB72C970FB65D
:105A8000F894DEBF0FBECDBF6F3F71058105910554
:105A900009F0D0F48FED9CE00E949220E091E70C99
:105AA000F091E80C3196849190E02C960FB6F89422
:105AB000DEBF0FBECDBFDF91CF911F910F91FF9041
:105AC000EF90DF90CF900895F0901A0DE0901B0DAD
:105AD00020910F0321110FC048EE58E06E2D8F2D3D
