:020000040000FA
:100000000C9486150C94B0150C94B0150C94B01586
:100010000C94A6940C94A6940C94A6940C94A69478
:100020000C94B0150C94B0150C94B0150C94B0153C
:100030000C94B0150C94F67C0C94B0150C94B0157F
:100040000C94B0150C9465760C944D730C94B0150B
:100050000C94416F0C94376F0C94B0150C94B01540
:100060000C94B0150C94B0150C94B0150C94B015FC
:100070000C94B0150C94B0150C94B0150C94B015EC
:100080000C942C530C94B0150C94B0154E414E4961
:100090004E495459494E46CDCCCC3D0AD7233C1746
:1000A000B7D13877CC2B329595E6241FB14F0A0093
:1000B0000020410000C84200401C4620BCBE4CCA83
:1000C0001B0E5AAEC59D7400407A10F35A00A07200
:1000D0004E18090010A5D4E80000E8764817000083
:1000E000E40B54020000CA9A3B000000E1F5050051
:1000F0000080969800000040420F000000A086019A
:10010000000000102700000000E803000000006469
:1001100000000000000A00000000000100000000D4
:10012000002C76D888DC674F0823DFC1DFAE59E1A9
:10013000B1B796E5E3E453C63AE651997696E8E618
:10014000C28426EB898C9B62ED407C6FFCEFBC9CEB
:100150009F40F2BAA56FA5F490055A2AF75C936BFD
:100160006CF9676DC11BFCE0E40D47FEF520E6B5B8
:1001700000D0ED902E0300943577050080841E0892
:100180000000204E0A000000C80C333333330F98B0
:100190006E12831141EF8D2114893BE65516CFFE77
:1001A000E6DB18D1844B381BF77C1D901DA4BBE403
:1001B00024203284725E228100C9F124ECA1E53D45
:1001C000274750455400504C41004572726F7220D1
:1001D00077726974696E6720746F20454550524F7D
:1001E0004D210A000F150E1216170E1303021A14D2
:1001F00001000E0DFF180C040C1900012121204BE9
:10020000494C4C2063617573656420627920746F7A
:100210006F206D75636820696E616374697665200F
:1002200074696D65202D2063757272656E7420632C
:100230006F6D6D616E643A20004D343130004D3188
:100240003132004D3130380053544F505045442E18
:1002500020005072696E7465722073746F707065DF
:10026000642064756520746F206572726F72732EDE
:100270002046697820746865206572726F7220610B
:100280006E6420757365204D39393920746F207282
:100290006573746172742E202854656D7065726187
:1002A000747572652069732072657365742E2053AE
:1002B0006574206974206166746572207265737458
:1002C000617274696E67290A004E6F204368656326
:1002D0006B73756D2077697468206C696E65206E2C
:1002E000756D6265722C204C617374204C696E656B
:1002F0003A2000636865636B73756D206D69736D7B
:10030000617463682C204C617374204C696E653A8B
:1003100020004C696E65204E756D626572206973B0
:10032000206E6F74204C617374204C696E65204E92
:10033000756D6265722B312C204C617374204C6991
:100340006E653A20004D31313000506C6561736547
:10035000205265736574005052494E5445522048EE
:10036000414C5445440025533A202553004B494CF9
:100370004C45442E20005072696E7465722068618D
:100380006C7465642E206B696C6C28292063616C29
:100390006C6564210A0053544F505045442E200090
:1003A0005072696E7465722073746F70706564202A
:1003B00064756520746F206572726F72732E2046AB
:1003C000697820746865206572726F7220616E644E
:1003D00020757365204D39393920746F207265732B
:1003E000746172742E202854656D70657261747525
:1003F00072652069732072657365742E205365746D
:10040000206974206166746572207265737461720C
:1004100074696E67290A006563686F3A00457272F5
:100420006F723A0021212053544F502063616C6C4D
:1004300065642062656361757365206F6620424C58
:10044000546F756368206572726F72202D2072651B
:1004500073746172742077697468204D3939390A70
:100460000021212053544F502063616C6C6564203F
:1004700062656361757365206F6620424C546F75C9
:100480006368206572726F72202D207265737461CB
:1004900072742077697468204D3939390A000A0A64
:1004A000426564204C6576656C20436F72726563AB
:1004B00074696F6E204D61747269783A000A436FF7
:1004C000727265637465642042656420486569677B
:1004D00068742076732E2042656420546F706F6CB0
:1004E0006F67793A0A000A4265642048656967685F
:1004F0007420546F706F6772617068793A0A2020B7
:10050000202B2D2D2D204241434B202D2D2B0A2019
:1005100020207C20202020202020202020207C0A39
:10052000204C207C20202020282B29202020207CCB
:1005300020520A2045207C2020202020202020201E
:1005400020207C20490A2046207C20282D29204E6E
:1005500020282B29207C20470A2054207C20202082
:1005600020202020202020207C20480A2020207CC1
:1005700020202020282D29202020207C20540A20E3
:1005800020207C20202020202020202020207C0AC9
:100590002020204F2D2D2046524F4E54202D2D2B04
:1005A0000A2028302C30290A000A4D65616E206F20
:1005B000662073616D706C656420706F696E747312
:1005C0003A200020643A200020623A200045716EF3
:1005D00020636F656666696369656E74733A20614E
:1005E0003A200050726F62696E6720506F696E74B6
:1005F0000025532025692F2569002E0A002F005061
:10060000726F62696E67206D65736820706F696EC6
:10061000742000202844525952554E29004732393F
:10062000204175746F20426564204C6576656C6965
:100630006E67003F20284C2C522C462C4229206FFC
:100640007574206F6620626F756E64732E0A003FAA
:1006500050726F626520706F696E7473202859291B
:1006600020696D706C61757369626C652028322D2C
:1006700033292E0A003F50726F626520706F696ED9
:1006800074732028582920696D706C6175736962D4
:100690006C652028322D33292E0A003F2856296503
:1006A00072626F7365206C6576656C20696D706C25
:1006B00061757369626C652028302D34292E0A001B
:1006C00020496E76616C6964206578747275646522
:1006D000722000526573656E643A20004361703A7F
:1006E0000020573A00436F6F6C696E672E2E2E0004
:1006F00048656174696E672E2E2E004520255300D3
:1007000023646566696E652044454641554C545FD7
:1007100000626564004B6420004B6920004B702030
:1007200000504944204175746F74756E6520666988
:100730006E69736865642120507574207468652043
:100740006C617374204B702C204B6920616E6420A7
:100750004B6420636F6E7374616E74732066726F86
:100760006D2062656C6F7720696E746F20436F6EC9
:1007700066696775726174696F6E2E680A00504908
:1007800044204175746F74756E65206661696C658F
:1007900064212074696D656F75740A0050494420A6
:1007A0004175746F74756E65206661696C6564214E
:1007B0002054656D706572617475726520746F6F19
:1007C00020686967680A00204B643A2000204B6962
:1007D0003A2000204B703A20000A20436C6173736A
:1007E000696320504944200A00204B643A200020CD
:1007F0004B693A2000204B703A20000A204E6F20AF
:100800006F76657273686F6F740A002054753A20B2
:1008100000204B753A2000206D61783A2000206D51
:10082000696E3A200020643A200020626961733AC0
:100830002000504944204175746F74756E652073B3
:10084000746172740A00504944204175746F747564
:100850006E65206661696C6564212054656D706504
:1008600072617475726520746F6F20686967680AB9
:1008700000504944204175746F74756E650050498D
:1008800044204175746F74756E65206661696C658E
:1008900064212042616420657874727564657220F9
:1008A0006E756D6265720A004572723A20757466E3
:1008B0003820666F6E74206E6F7420696E6974697B
:1008C000616C697A65642E004572723A20757466AF
:1008D0003820666F6E74206E6F7420696E6974695B
:1008E000616C697A65642E004572723A207574668F
:1008F0003820666F6E74206E6F7420696E6974693B
:10090000616C697A65642E0042656400456E636CB3
:100910006F73757265002020202020202000202089
:100920002020001FE0201020102010102010202078
:1009300010201030300840048003001FE03FF03FDB
:10094000F03FF01FE01FE03FF03FF03FF00FC00727
:100950008003003FFFF038007030FC3020FC102096
:1009600078102030102C00D02E31D02F7BD02F7B50
:10097000D02E31D02C00D020301020781020FC1048
:1009800030FC303800703FFFF03FFFF0380070312E
:1009900086302387102787902F87D02F03D02030D1
:1009A000102078102078102030102F03D02F87D0FF
:1009B0002787902387103186303800703FFFF01F63
:1009C000FFF81FFFF804104002082002082004105E
:1009D0004008208010410010410008208004104091
:1009E0000000001FFFF81FFFF846696C2E204469C5
:1009F000612E004F6666004F6E004520696E206DC7
:100A00006DC2B3005654726176204D696E00566D0A
:100A1000696E00566D6178204500566D6178205AE8
:100A200000566D6178205900566D6178205800415C
:100A30006D6178204500416D6178205A00416D61FB
:100A400078205900416D6178205800412D54726121
:100A500076656C00412D5265747261637400416368
:100A600063656C0050726F6265205A204F66667332
:100A700065740050726F62652059204F6666736519
:100A8000740050726F62652058204F6666736574FB
:100A900000452073746570732F6D6D005A20537478
:100AA0006570732F6D6D00592053746570732F6DD1
:100AB0006D00582053746570732F6D6D004164761E
:100AC000616E6365642053657474696E6773003F7B
:100AD0000043616E63656C00496E6974004D343289
:100AE0003800496E697469616C697A6520454550C2
:100AF000524F4D0046696C616D656E7400537465AC
:100B000070732F6D6D0050726F6265204F66667353
:100B1000657473004A756E6374696F6E2044657600
:100B200000416363656C65726174696F6E00566540
:100B30006C6F636974790053657420486F6D65202C
:100B40004F66667365747300436F6E66696775728E
:100B50006174696F6E003F004E65787420436F7258
:100B60006E657200446F6E65004E65787400486F64
:100B70006D696E672058595A0053746F726520531F
:100B8000657474696E6773004C6F6164205365749B
:100B900074696E6773004C6576656C20436F726E86
:100BA0006572730050726F6265205A204F666673DB
:100BB0006574004F6666004F6E00426564204C65A8
:100BC00076656C696E67004C6576656C204265647D
:100BD000004732380A4732390047323900417574CC
:100BE0006F20486F6D65004D6F74696F6E005357CD
:100BF0002D4D6F64650053746F77004465706C6FA2
:100C0000790053656C662D54657374005265736585
:100C10007400426564004E6F7A7A6C650046616EBE
:100C200020537065656400436F6E66696775726115
:100C300074696F6E00526573746F726520446566E7
:100C400061756C7473004C6F6164205365747469D2
:100C50006E67730053746F72652053657474696EA8
:100C600067730050726568656174202420436F6E5D
:100C70006600424C546F7563680050726F62652065
:100C80005A204F666673657400416476616E6365D1
:100C9000642053657474696E6773004D61696E00FA
:100CA000436F6E66696775726174696F6E00546533
:100CB0006D7065726174757265004D6F74696F6EE9
:100CC0000054756E6500496E666F205363726565EA
:100CD0006E004D6F74696F6E0044697361626C657C
:100CE000205374657070657273004D38340042652E
:100CF00064204C6576656C696E67004175746F2081
:100D0000486F6D6500473238004D61696E00507262
:100D10006568656174202420456E640050726568C2
:100D20006561742024204265640054656D706572AD
:100D3000617475726500C601C101436F6F6C646FA9
:100D4000776E005072656865617420240046616E9C
:100D500020537065656400426564004E6F7A7A6C5A
:100D600065004D61696E004261627973746570203F
:100D70005A00466C6F770046616E2053706565645B
:100D800000426564004E6F7A7A6C65005370656549
:100D900064004D61696E00000C0F00FE070226031F
:100DA000BC017FFE08FE08FE05080806000040F0B2
:100DB000C88888987810050808060000C0F8888858
:100DC000888888F80505050600012030F8302005E0
:100DD00008080600002070F820202020E0050909FE
:100DE0000600FF2070A8A8B88888702005060606AF
:100DF0000001E08CEA8C8A0A0509090600FFF8A8C0
:100E00008888888888A8F8050A0A0600FE205050BD
:100E1000505088A8A8887003030306000340A04030
:100E2000FFFFFFFFFFFFFFFFFFFFFFFFFFFFFFFFD2
:100E3000FFFFFFFFFFFF0000000605FF0107070699
:100E4000020080808080800080030303060105A0EB
:100E5000A0A005060606000050F85050F8500509FD
:100E6000090600FF2070A8A07028A87020050707B9
:100E7000060000C8C8102040989805070706000023
:100E800040A0A040A890680103030602058080806E
:100E90000309090601FF2040408080804040200374
:100EA00009090601FF8040402020204040800507BE
:100EB0000706000020A8702070A820050505060080
:100EC000012020F820200203030601FFC040800516
:100ED0000101060003F8020202060100C0C0050776
:100EE0000706000008101020404080050707060094
:100EF00000708898A8C8887003070706010040C0E2
:100F000040404040E00507070600007088081020B8
:100F100040F8050707060000F8081030088870053B
:100F2000070706000010305090F81010050707065C
:100F30000000F880F00808887005070706000030F8
:100F40004080F0888870050707060000F808101038
:100F500020202005070706000070888870888870A8
:100F600005070706000070888878081060020505EC
:100F7000060100C0C000C0C00206060601FFC0C0D6
:100F800000C0408003050506010120408040200587
:100F90000303060002F800F803050506010180407E
:100FA00020408005070706000070881020200020E0
:100FB0000507070600007088B8A8B8807005070705
:100FC000060000708888F8888888050707060000F2
:100FD000F04848704848F005070706000070888010
:100FE00080808870050707060000F0484848484898
:100FF000F0050707060000F88080F08080F80507FC
:1010000007060000F88080F0808080050707060052
:10101000007088808098887005070706000088881F
:1010200088F8888888030707060100E040404040B0
:1010300040E005070706000038101010109060050A
:1010400007070600008890A0C0A090880507070643
:101050000000808080808080F805070706000088F7
:10106000D8A8888888880507070600008888C8A847
:101070009888880507070600007088888888887027
:10108000050707060000F08888F0808080050707C4
:1010900006000070888888A8906805070706000089
:1010A000F08888F0A0908805070706000070888007
:1010B00070088870050707060000F820202020200F
:1010C000200507070600008888888888887005073B
:1010D000070600008888888850502005070706000A
:1010E0000088888888A8A850050707060000888817
:1010F0005020508888050707060000888850202067
:101100002020050707060000F80810204080F8039B
:1011100009090601FFE080808080808080E005076B
:10112000070600008040402010100803090906014E
:10113000FFE020202020202020E0050303060005FA
:101140002050880501010600FEF80303030601058F
:10115000804020050505060000700878887805079E
:10116000070600008080F0888888F00505050600E5
:1011700000708080887005070706000008087888DE
:101180008888780505050600007088F080700507DE
:1011900007060000304840E04040400507070600D1
:1011A000FE70888888780870050707060000808030
:1011B000F0888888880307070601004000C0404087
:1011C00040E00409090601FE1000301010101090D4
:1011D0006005070706000080808890E0908803077C
:1011E00007060100C04040404040E00505050600FC
:1011F00000D0A8A8A8A8050505060000B0C88888E2
:1012000088050505060000708888887005070706B0
:1012100000FEF0888888F080800507070600FE78C9
:10122000888888780808050505060000B0C8808011
:101230008005050506000078807008F005070706A0
:1012400000002020F8202020180505050600008851
:10125000888898680505050600008888885020055C
:1012600005050600008888A8A850050505060000A9
:1012700088502050880507070600FE88888850207F
:101280004080050505060000F8102040F803090914
:101290000601FF20404040804040402001090906EF
:1012A00002FF8080808080808080800309090601A1
:1012B000FF8040404020404040800503030600027C
:1012C00048A890FF6F70656E0054524947474552D9
:1012D0004544003A20007A5F6D696E00795F6D6960
:1012E0006E00785F6D696E005265706F7274696E22
:1012F0006720656E6473746F7020737461747573A6
:101300000A00486F6D652025732573257320466993
:1013100072737400486F6D696E67204661696C6511
:1013200064000000C8420000C842000080405761CD
:10133000726E696E673A20486F6D696E67204275FC
:101340006D702044697669736F72203C20310A0009
:101350000202040000A0400000A040000000400085
:101360000068430000644300005C4300005C4300ED
:10137000005C4300005C43000040C1000000C1006D
:1013800000000053657474696E67732053746F7244
:10139000656400290A002062797465733B206372DA
:1013A00063200053657474696E67732053746F72A1
:1013B0006564202800454550524F4D20646174619A
:1013C00073697A65206572726F722E0A00290A00AD
:1013D0002062797465733B2063726320002073740C
:1013E0006F7265642073657474696E6773207265CB
:1013F00074726965766564202800202863616C63D7
:10140000756C6174656429210A0020213D20004526
:101410004550524F4D20435243206D69736D6174A6
:101420006368202D202873746F7265642920002062
:1014300053697A653A2000496E6465783A20002045
:101440004D61726C696E3D563831290A0045455030
:10145000524F4D2076657273696F6E206D69736DA2
:10146000617463682028454550524F4D3D00454505
:1014700050524F4D20496E697469616C697A656498
:101480000A0048617264636F646564204465666144
:10149000756C742053657474696E6773204C6F614A
:1014A0006465640A000000C8430000C843000000EF
:1014B00041000048420000C8420000C8420000C885
:1014C0004300000C43D0070000D007000064000078
:1014D00000102700003B20003A0A0020204D38353C
:1014E000312058005A2D50726F6265204F66667326
:1014F00065740020440020490020204D3330342002
:10150000500020440020490020204D33303120502D
:10151000005049442073657474696E67733A002003
:10152000460020420020480020204D313435205311
:10153000004D6174657269616C20686561747570D5
:1015400020706172616D65746572733A0020204D80
:101550003432302053004175746F20426564204C52
:101560006576656C696E673A0020204D3230362012
:101570005800486F6D65206F66667365743A002089
:101580004A0020530020204D323035204200416473
:1015900076616E6365643A20423C6D696E5F736587
:1015A000676D656E745F74696D655F75733E20531A
:1015B0003C6D696E5F66656564726174653E20545A
:1015C0003C6D696E5F74726176656C5F66656564BB
:1015D000726174653E204A3C6A756E635F6465762D
:1015E0003E0020520020204D323034205000416314
:1015F00063656C65726174696F6E2028756E6974BD
:10160000732F7332293A20503C7072696E745F6197
:101610006363656C3E20523C726574726163745FF3
:10162000616363656C3E20543C74726176656C5FE7
:10163000616363656C3E0020204D323031205800DC
:101640004D6178696D756D20416363656C6572618C
:1016500074696F6E2028756E6974732F7332293A1E
:101660000020204D3230332058004D6178696D756F
:101670006D206665656472617465732028756E6996
:1016800074732F73293A00537465707320706572F8
:1016900020756E69743A0020440020204D323030AD
:1016A0002053002044697361626C65640A004669D6
:1016B0006C616D656E742073657474696E67733ADE
:1016C0000020204D3134392043203B20556E697471
:1016D0007320696E2043656C736975730A00202856
:1016E0006D6D29002020473231202020203B2055DD
:1016F0006E69747320696E206D6D0024F4D43050CF
:10170000C38E20C2A24017828B7011127A910D8174
:101710006CD90AA861E108C7586607615143061EE3
:101720004B5D05C145A7041A411104093D98037199
:101730003931034036DB0265339102D430540280E4
:101740002E1D02632CEE01752AC501B028A00110E0
:101750002781018F2564012B244B01E0223401AC49
:10176000211F018D200D01801FFC00841EED0097BC
:101770001DDF00B81CD200E61BC600201BBC0064A5
:101780001AB200B219A8000A19A0006A189900D16B
:1017900017910040178B00B516840031167E00B3F8
:1017A0001579003A157300C7146F0058146A00EEDB
:1017B0001366008813630025135E00C7125B006C7C
:1017C00012570015125400C111510070114F002121
:1017D000114B00D61049008D1047004610440002FE
:1017E000104200C00F4000800F3E00420F3C000638
:1017F0000F3B00CB0E3800930E37005C0E350027F0
:101800000E3400F30D3200C10D3100900D30006038
:101810000D2E00320D2D00050D2C00D90C2B00AE25
:101820000C2900850C29005C0C2700350C27000EC4
:101830000C2600E80B2400C40B2400A00B23007D21
:101840000B23005A0B2100390B2100180B2000F844
:101850000A1F00D90A1E00BB0A1E009D0A1D008037
:101860000A1D00630A1C00470A1B002C0A1B0011FA
:101870000A1A00F7091A00DD091900C4091900AB9A
:10188000091900920917007B091800630917004C19
:1018900009160036091600200916000A091500F578
:1018A000081500E0081400CC081400B8081400A4BF
:1018B000081400900813007D0812006B08130058EC
:1018C0000812004608120034081100230811001203
:1018D00008110001081100F0071000E0071000D007
:1018E000071000C0071000B0070F00A107100091FB
:1018F000070E0083070F0074070F0065070E0057DF
:10190000070E0049070E003B070D002E070E0020B2
:10191000070D0013070D0006070D00F9060C00ED7A
:10192000060D00E0060C00D4060C00C8060C00BC36
:10193000060C00B0060C00A4060B0099060C008DE6
:10194000060B0082060B0077060B006C060B00618D
:10195000060A0057060B004C060A0042060A003829
:10196000060A002E060A0024060A001A060A0010BB
:1019700006090007060A00FD050900F4050900EB49
:10198000050900E2050900D9050900D0050900C7CD
:10199000050900BE050900B5050800AD050800A54C
:1019A0000509009C050800940508008C05080084C2
:1019B0000508007C050800740508006C0507006533
:1019C0000508005D050700560508004E050700479D
:1019D0000507004005080038050700310507002A03
:1019E000050700230507001C050600160507000F64
:1019F0000507000805060002050700FB040600F5C0
:101A0000040700EE040600E8040600E2040700DB19
:101A1000040600D5040600CF040600C9040600C36E
:101A2000040600BD040600B7040600B1040500ACBE
:101A3000040600A6040600A00405009B0406009509
:101A4000040500900406008A040500850405008052
:101A50000406007A04050075040500700405006B97
:101A600004050066040500610405005C04050057D8
:101A7000040500520405004D040500480405004318
:101A80000405003E0404003A040500350405003056
:101A90000404002C04050027040400230405001E90
:101AA0000404001A04040016040500110404000DC7
:101AB000040400090405000404040000040400FCFC
:101AC000030400F8030400F4030400F0030400EC32
:101AD000030400E8030400E4030400E0030400DC62
:101AE000030400D8030400D4030400D0030400CC92
:101AF000030400C8030300C503030024F404D92031
:101B00001BC40C5C0E9804C4095F0265077101F4E4
:101B100005F900FB04B30048048700C103690058BD
:101B200003550003034500BE023A0084023100530E
:101B3000022A002902250004022000E4011C00C83A
:101B4000011900AF011700980114008401130071FE
:101B50000110006101100051010E0043010D00361B
:101B6000010B002B010B0020010B00150109000CDB
:101B700001090003010800FB000800F3000800EB66
:101B8000000700E4000600DE000600D8000600D2D0
:101B9000000600CC000500C7000500C2000500BD1E
:101BA000000400B9000400B5000400B1000400AD59
:101BB000000400A9000400A5000300A20003009F88
:101BC0000004009B000300980003009500020093AE
:101BD000000300900003008D0002008B00030088CA
:101BE0000002008600020084000300810002007FE2
:101BF0000002007D0002007B0002007900020077F5
:101C00000001007600020074000200720001007101
:101C10000002006F0002006D0001006C0002006A0B
:101C20000001006900020067000100660001006514
:101C30000001006400020062000100610001006018
:101C40000001005F0002005D0001005C0001005B1C
:101C50000001005A0001005900010058000100571E
:101C6000000100560001005500010054000100531E
:101C7000000000530001005200010051000100501B
:101C80000001004F0001004E0000004E0001004D19
:101C90000001004C0001004B0000004B0001004A15
:101CA0000001004900010048000000480001004711
:101CB000000100460000004600010045000000450C
:101CC0000001004400010043000000430001004205
:101CD00000000042000100410000004100010040FE
:101CE0000001003F0000003F0001003E0000003EF8
:101CF0000001003D0000003D0001003C0000003CF0
:101D00000000003C0001003B0000003B0001003AE5
:101D10000000003A000100390000003900010038DD
:101D200000000038000000380001003700000037D4
:101D300000010036000000360000003600010035CA
:101D400000000035000000350001003400000034C0
:101D500000000034000100330000003300000033B5
:101D600000010032000000320000003200010031AA
:101D700000000031000000310001003000000030A0
:101D8000000000300001002F0000002F0000002F95
:101D90000000002F0001002E0000002E0000002E89
:101DA0000001002D0000002D0000002D0000002D7E
:101DB0000001002C0000002C0000002C0000002C72
:101DC0000001002B0000002B0000002B0000002B66
:101DD0000001002A0000002A0000002A0000002A5A
:101DE000000100290000002900000029000000294E
:101DF0000000002900010028000000280000002841
:101E00000000002800000028000100270000002733
:101E10000000002700000027000000270001002626
:101E2000000000260000002600000026000000261A
:101E3000000100250000002500000025000000250D
:101E400000000025000000250001002400000024FF
:101E500000000024000000240000002400010023F2
:101E600000000023000000230000002300000023E6
:101E700000000023000000230001002200000022D7
:101E800000000022000000220000002200000022CA
:101E900000010021000000210000002100000021BD
:101EA00000000021000000210000002100010020AE
:101EB00000000020000000200000002000000020A2
:101EC0000000002000000020000000200001001F92
:101ED0000000001F0000001F0000001F0000001F86
:101EE0000000001F0000001F0001001E0000001E77
:101EF0000000001E0000001E000000043700001E4D
:101F0000290000511B00005810000010090000CCEF
:101F1000040000780200004101000020436F756E4C
:101F20007420583A004265640045310062656400DF
:101F30002C2073797374656D2073746F7070656491
:101F400021204865617465725F49443A2000486504
:101F50006174696E67204661696C656400486561FB
:101F600074696E67206661696C6564004572723AD7
:101F7000204D415854454D50004D415854454D5009
:101F800020747269676765726564004572723A20F1
:101F90004D494E54454D50004D494E54454D5020ED
:101FA00074726967676572656400202F0020424083
:101FB0003A0020403A0000002100240027002A00B7
:101FC00000002200250028002B0000002000230034
:101FD0002600290002020202020202020404040492
:101FE00004040404030303030303030301010101C5
:101FF00001010101010204081020408001020408CF
:1020000010204080010204081020408080402010F1
:1020100008040201000000010200000000000000AE
:10202000040307060000000000000000000000009C
:102030000000000068747470733A2F2F6D61726C29
:10204000696E66772E6F726700322E302E362E3113
:102050000001FFFFFFFFFFFFFFFFFFFFFFFFFF0F7D
:10206000FFFFFFFFFFFFFFFFFFFFFFFFFF1E00005F
:10207000000000000000000007FFFF380000000023
:1020800000000000000003FFFF70000000000000DF
:102090000000000001FFFF600000000000000000E1
:1020A000000000FFFF6000000000000000000000D2
:1020B000007FFFC000000000000000007800003F2B
:1020C000FFC00FC0FC00000000007818001FFFC018
:1020D0003FE1FF0000000000783C000FFFC07FF3ED
:1020E000FF8000000000783C0007FFC0FFFFFFC03A
:1020F00000000000783C0003FFC1F87F87E000008B
:10210000000078000001FFC1F03F03E00000000084
:1021100078000000FFC1E01E01E01F0003E0783CF2
:1021200003F07FC1E01E01E07FC00FF8783C07FCA0
:102130003FC1E01E01E1FFE01FFC783C0FFE1FC124
:10214000E01E01E3FFF03FFE783C1FFE0FC1E01EE2
:1021500001E3F3F83F3E783C3F3F07C1E01E01E753
:10216000E0FC7C1F783C3E1F07C1E01E01E7C07CFD
:102170007C0F783C3C0F03C1E01E01E7807C780FA8
:10218000783C3C0F03C1E01E01E7803C7800783CBE
:102190003C0F03C1E01E01E7803C7800783C3C0F17
:1021A00003C1E01E01E7803C7800783C3C0F03C18E
:1021B000E01E01E7C03C7800783C3C0F03C1E01E04
:1021C00001E3E03C78007C3C3C0F03C1E01E01E3EE
:1021D000FF3FF8007FBC3C0F03C1E01E01E1FF3F61
:1021E000F8003FBFFC0F03C1E01E01E0FF3FF80015
:1021F0001FBFFC0F03C1E01E01E07F3FF8000FBFCF
:10220000FC0F036000000000000000000000000060
:1022100007600000000000000000000000000670E1
:102220000000000000000000000000000E38000068
:10223000000000000000000000001C1E0000000064
:102240000000000000000000780FFFFFFFFFFFFF0D
:10225000FFFFFFFFFFFFF001FFFFFFFFFFFFFFFF9B
:10226000FFFFFFFF802020506C616E6E657242752B
:102270006666657242797465733A2000204672651D
:1022800065204D656D6F72793A2000436F6D7069FE
:102290006C65643A20466562203138203230323233
:1022A0000A00204C61737420557064617465643A4F
:1022B00020323032302D30382D3238207C2041759C
:1022C00074686F723A2028426F62204B75686E2CDA
:1022D00020416E657420636F6E666967290A00325B
:1022E0002E302E362E310A004D61726C696E002040
:1022F000536F6674776172652052657365740A0066
:10230000205761746368646F672052657365740A4F
:10231000002042726F776E206F757420526573656E
:10232000740A002045787465726E616C2052657382
:1023300065740A00506F77657255700A0073746196
:1023400072740A00456E6473746F707300255320B5
:10235000256320256320256320256300205A3A0049
:1023600020593A0020583A00656E6473746F707398
:10237000206869743A2000434F4D4D554E49434102
:1023800054494F4E0044525952554E004552524FF7
:10239000525300494E464F004543484F0050726922
:1023A0006E7420506175736564001000C9021001DD
:1023B0002C014001220170011801B0010E01F00151
:1023C00004015002FA00B002F0003003E600D0032E
:1023D000DC009004D2007005C800A006BE00000812
:1023E000B400B009AA00D00BA000600E96006011E6
:1023F0008C000015820020197800C01D6E00A022FC
:102400006400B0275A00902C500000314600E034A0
:102410003C0010383200903A2800603C1E00A03D7D
:102420001400803E0A00203F0000004D6F766520BA
:1024300025736D6D004D6F766520302E316D6D000A
:102440004D6F766520316D6D004D6F7665203130B2
:102450006D6D004D6F766520417869730045787425
:102460007275646572004D6F7665205A004D6F7607
:10247000652059004D6F76652058006F6B00496EDE
:1024800076616C69642065787472756465720A009F
:10249000290A0020746F20003F5A206F7574206F46
:1024A000662072616E6765202800290A0020746F1B
:1024B00020003F59206F7574206F662072616E672F
:1024C0006520282D00290A0020746F20003F582025
:1024D0006F7574206F662072616E676520282D000D
:1024E00050726F6265204F666673657420580045B0
:1024F0004550524F4D204F4B0A004F66667365742E
:1025000073204170706C696564004572723A2054A2
:102510006F6F206661722100546F6F2066617220B8
:1025200066726F6D207265666572656E6365207098
:102530006F696E740A00FFFFFF000040C1000000D9
:10254000C100000000426564204C6576656C696ED0
:102550006720004661696C656420746F20656E6158
:10256000626C6520426564204C6576656C696E67B7
:102570000A00426564204C6576656C20436F727278
:10258000656374696F6E204D61747269783A0020DA
:10259000643A0020693A0020703A0020643A002032
:1025A000693A0020703A00496E76616C6964206572
:1025B000787472756465720A003A2000205365725F
:1025C000766F2000206F7574206F662072616E67D1
:1025D000650A00536572766F200020466C6F773A6B
:1025E000200046523A004F4646004F4E0020580009
:1025F00020204D61783A2000200020204D696E3A5D
:102600002000536F667420656E6473746F70733A44
:1026100020003F4A206F7574206F662072616E67DC
:10262000652028302E303120746F20302E33290A57
:1026300000205400205200416363656C6572617430
:10264000696F6E3A2050004D31343520533C696E2D
:102650006465783E206F7574206F662072616E67C6
:10266000652028302D31290A002F2F2000434841B2
:102670004D4245525F54454D504552415455524587
:1026800000424142595354455050494E470041522F
:102690004353004D4F54494F4E5F4D4F44455300F7
:1026A000544845524D414C5F50524F544543544954
:1026B0004F4E004C4F4E475F46494C454E414D45AD
:1026C000004155544F5245504F52545F53445F534D
:1026D0005441545553005344434152440050524FC7
:1026E0004D50545F535550504F525400454D455234
:1026F00047454E43595F5041525345520043415361
:10270000455F4C494748545F4252494748544E45FB
:10271000535300544F47474C455F4C494748545327
:1027200000534F4654574152455F504F5745520052
:102730004255494C445F50455243454E54004C4528
:1027400056454C494E475F44415441005A5F5052F0
:102750004F42450052554E4F5554004155544F4C31
:102760004556454C005052494E545F4A4F42005026
:10277000524F4752455353004155544F5245504FC5
:1027800052545F54454D5000564F4C554D45545290
:10279000494300454550524F4D0042494E41525920
:1027A0005F46494C455F5452414E53464552005393
:1027B000455249414C5F584F4E5F584F4646004680
:1027C00049524D574152455F4E414D453A4D617218
:1027D0006C696E20322E302E362E312028466562EE
:1027E00020313820323032322031313A34353A32E9
:1027F000342920534F555243455F434F44455F555D
:10280000524C3A68747470733A2F2F676974687504
:10281000622E636F6D2F4D61726C696E4669726DC9
:10282000776172652F4D61726C696E2050524F5402
:102830004F434F4C5F56455253494F4E3A312E301D
:10284000204D414348494E455F545950453A416EE9
:1028500065742041382045585452554445525F43D1
:102860004F554E543A3120555549443A6365646595
:10287000326132662D343161322D343734382D399E
:102880006231322D633535633632663336376666EC
:102890000A00416E6574204138204F46462E0020C4
:1028A000573A0042656420436F6F6C696E672E2E45
:1028B0002E004265642048656174696E672E2E2E75
:1028C000004D3131322053687574646F776E006F3C
:1028D000666600982393238C2385237723444542FF
:1028E00055473A006F6B0050726F7465637465648E
:1028F0002050696E0A00496E76616C6964205069E7
:102900006E204D6F64650A002569730025696D208E
:10291000256973002569682025696D202569730084
:10292000256964202569682025696D202569730063
:1029300025697920256964202569682025696D202D
:10294000256973005072696E742074696D653A2050
:10295000004E6F204D6F76652E00436C69636B20CF
:10296000746F20526573756D652E2E2E00205A3AB5
:10297000200020593A200042656420583A20005A2D
:102980002050726F62652050617374204265640A42
:10299000005A2050726F6265205061737420426546
:1029A0006400536C6565702E2E2E0020746F6F20AE
:1029B0006C6F6E6720657874727573696F6E2070C6
:1029C000726576656E7465640A0050726F62696E36
:1029D00067204661696C65640A0050726F62696EB7
:1029E00067204661696C656400205A3A20002059CE
:1029F0003A200042656420583A2000220A00556EB1
:102A00006B6E6F776E20636F6D6D616E643A20221E
:102A100000416E65742041382052656164792E0052
:102A20005072696E74696E672E2E2E00204500204C
:102A30005A00205900204D393220580020453A00D4
:102A4000205A3A0020593A00583A00DB0FC93F4556
:102A5000BCDA3F8FB30240FCF0274056946140FE41
:102A60004B9B4084A5D840E0231841346A5641E886
:102A700059974164DBD5416E271742B4B75542CE12
:102A80001A9742C8AED542B5885A43D40684BFA629
:102A90005FA7BF7443E0BF10B11AC01C2C58C0E838
:102AA000F697C0B849D6C04E4E17C124D355C18041
:102AB0002497C1A0B5D5C1121A17C244AE55C27829
:102AC0001797C26CACD5C267885AC320746F6F2049
:102AD0006C6F6E6720657874727573696F6E2070A5
:102AE000726576656E7465640A00544845524D41BE
:102AF0004C2052554E4157415900546865726D61E2
:102B00006C2052756E61776179005ADD11241FBE09
:102B1000CFEFD0E4DEBFCDBF12E0A0E0B1E0E6E051
:102B2000F8ED01E00BBF02C007900D92A230B10793
:102B3000D9F72EE0A2E0B2E001C01D92A234B207A4
:102B4000E1F715E1C6E8D5E104C02197FE010E9436
:102B5000A5EBC538D107C9F70E9436D90C9401EC12
:102B60000C9400006091200170912101072E000C4F
:102B7000880B990B0E94B1E22AE037ED43E25CE357
:102B80000E9410E320915106309152064091530665
:102B9000509154060E9410E360934B0170934C01D6
:102BA00080934D0190934E010895809148068111C4
:102BB00004C08091230680932B07089580914806D6
:102BC000811104C08091230680932B070895CF9331
:102BD000DF93EC01CB01BA010E94B1E220E030E0CA
:102BE000A9010E9456E90E944BEA79836883DF912C
:102BF000CF910895CF93DF93EC01CB01BA010E94EE
:102C0000B1E220E030E0A9010E9456E90E9452EAB8
:102C100079836883DF91CF910895CF93DF93EC019F
:102C2000CB01BA010E94B1E229EC38EC48EC5EE33A
:102C30000E94D9E920E030E040E05FE30E9456E9DD
:102C40000E9452EA6883DF91CF910895E09148068F
:102C500086E0E802F0011124EA57F94F809123063B
:102C600090E0958384830895CF93DF9300D000D0C4
:102C7000CDB7DEB784EF91E0A0E0B0E089839A831E
:102C8000AB83BC83BE016F5F7F4F80EA0E9492528C
:102C90000F900F900F900F90DF91CF910895CF93E9
:102CA000DF9300D000D0CDB7DEB784EF91E0A0E095
:102CB000B0E089839A83AB83BC83BE016F5F7F4F93
:102CC0008CE30E9492520F900F900F900F90DF9123
:102CD000CF910895CF93DF9300D000D0CDB7DEB76A
:102CE00084EF91E0A0E0B0E089839A83AB83BC835A
:102CF000BE016F5F7F4F88E70E9492520F900F9046
:102D00000F900F90DF91CF910895CF93DF9300D074
:102D100000D0CDB7DEB78EEE92E0A0E0B0E08983C0
:102D20009A83AB83BC83BE016F5F7F4F8AE00E94B2
:102D300092520F900F900F900F90DF91CF910895C6
:102D4000CF93DF9300D000D0CDB7DEB78EEE92E008
:102D5000A0E0B0E089839A83AB83BC83BE016F5F40
:102D60007F4F8AE50E9492520F900F900F900F9024
:102D7000DF91CF910895CF93DF93EC01CB01BA019E
:102D80000E94B1E220E030E040E251E40E94D9E943
:102D900020E030E0A9010E9456E9688379838A83A4
:102DA0009B83DF91CF910895CF93DF93EC01CB010B
:102DB000BA010E94B1E220E030E040E251E40E941A
:102DC000D9E920E030E0A9010E9456E968837983BF
:102DD0008A839B83DF91CF910895CF93DF93EC019A
:102DE000CB01BA010E94B1E220E030E048EC52E4AD
:102DF0000E94D9E920E030E0A9010E9456E96883E9
:102E000079838A839B83DF91CF910895CF93DF935A
:102E1000EC01CB01BA010E94B1E22AE037ED43E2B6
:102E20005DE30E94D9E920E030E0A9010E9456E963
:102E30000E9452EA688379838A839B83DF91CF91D2
:102E40000895CF93DF93EC01CB01BA010E94B1E268
:102E500020E030E0A9010E9456E9688379838A83E3
:102E60009B83DF91CF910895CF93DF93EC01CB014A
:102E7000BA010E94B1E220E030E0A9010E9456E9C7
:102E8000688379838A839B83DF91CF910895CF9361
:102E9000DF93EC01CB01BA010E94B1E22AE037EDE9
:102EA00043E25DE30E94D9E920E030E0A9010E94FD
:102EB00056E9688379838A839B83DF91CF91089554
:102EC000CF93DF93EC01CB01BA010E94B1E220E085
:102ED00030E04AE754E40E94D9E920E030E0A9015B
:102EE0000E9456E9688379838A839B83DF91CF911F
:102EF00008958F929F92AF92BF92CF92DF92EF92FE
:102F0000FF926B017C0120E030E0A9010E94AAE25F
:102F100087FD6BC06DEB77E386E095E3A701960133
:102F20000E9456E96B017C0120E030E040E251E470
:102F30000E9410E320E030E040E251E40E9410E300
:102F40004B015C0120E030E0A901C701B6010E94FD
:102F5000AAE220E030E040EA50E487FF04C020E02D
:102F600030E040EA50ECC501B4010E9456E920E08F
:102F700030E040E251E40E94D9E90E944BEA9B0113
:102F80008BE237FF05C022273327261B370B8DE244
:102F900080937303C90164E670E00E9491EBCB015A
:102FA000EAE0F0E0BF010E9491EB805D8093740342
:102FB000C901BF010E9491EB282FCB01BF010E94E4
:102FC00091EB805D809375038EE280937603205DA4
:102FD0002093770383E793E0FF90EF90DF90CF900B
:102FE000BF90AF909F908F9008956DEB77E386E050
:102FF00095EB94CF0E94B1E220E030E040E251E452
:103000000E94D9E920E030E0A9010E9456E90C9421
:1030100079178F929F92AF92BF92CF92DF92EF92E9
:10302000FF92CF936B017C0120E030E0A9010E9468
:10303000AAE287FDAAC06DEB77E386E095E3A701DE
:1030400096010E9456E96B017C0120E030E0A90165
:103050000E94AAE287FF9EC0C701B601905820E0F7
:1030600030E040E251E40E9410E320E030E040E232
:1030700051E40E9410E320E030E040EA50E40E9476
:1030800056E920E030E040E251E40E94D9E90E9494
:103090004BEA6B017C0180E28093710360E280E186
:1030A000C81687E2D806E104F1048CF0C701B60126
:1030B00020E137E240E050E00E9414E9CA01B90182
:1030C0002AE030E040E050E00E9414E9605D609347
:1030D000720360E288EEC81683E0D806E104F104CA
:1030E0008CF0C701B60128EE33E040E050E00E94CA
:1030F00014E9CA01B9012AE030E040E050E00E9442
:1031000014E9605D6093730360E284E6C816D1043D
:10311000E104F1048CF0C701B60124E630E040E0A0
:1031200050E00E9414E9CA01B9012AE030E040E011
:1031300050E00E9414E9605D609374038AE0882E79
:10314000912CA12CB12CC701B601A50194010E94BC
:1031500014E9C62FCA01B901A50194010E9414E91E
:10316000605D609375038EE280937603C05DC093CB
:10317000770381E793E0CF91FF90EF90DF90CF90BE
:10318000BF90AF909F908F9008956DEB77E386E0AE
:1031900095EB55CF20E030E040E251E4C701B601A5
:1031A00062CF0E94B1E220E030E040E251E40E94B0
:1031B000D9E920E030E0A9010E9456E90C940918F1
:1031C0008F929F92AF92BF92CF92DF92EF92FF9237
:1031D000CF936B017C0120E030E0A9010E94AAE2BC
:1031E00087FD93C06DEB77E386E095E3A701960139
:1031F0000E9456E96B017C0120E030E040E251E49E
:103200000E9410E320E030E04AE754E40E9410E31B
:103210004B015C0120E030E0A901C701B6010E942A
:10322000AAE220E030E040EA50E487FF04C020E05A
:1032300030E040EA50ECC501B4010E9456E920E0BC
:1032400030E040E251E40E94D9E90E944BEA6B0170
:103250007C01C114D104E104F10409F45BC0F7FE60
:1032600059C0F094E094D094C094C11CD11CE11CCE
:10327000F11C8DE280937203C701B60128EE33E0A2
:1032800040E050E00E9414E98AE0882E912CA12CA5
:10329000B12CCA01B901A50194010E9414E9605D35
:1032A000609373038EE280937403C701B60124E632
:1032B00030E040E050E00E9414E9CA01B901A501E4
:1032C00094010E9414E9605D60937503C701B60123
:1032D000A50194010E9414E9C62FCA01B901A501F4
:1032E00094010E9414E9605D60937603C05DC09311
:1032F000770382E793E0CF91FF90EF90DF90CF903C
:10330000BF90AF909F908F9008956DEB77E386E02C
:1033100095EB6CCF80E2AECF0E94B1E220E030E0CE
:103320004AE754E40E94D9E920E030E0A9010E9474
:1033300056E90C94E0188F929F92AF92BF92CF9271
:10334000DF92EF92FF92CF936B017C0120E030E09F
:10335000A9010E94AAE287FFA3C06DEB77E386E094
:1033600095EBA70196010E9456E96B017C0120E0D4
:1033700030E040E251E40E9410E320E030E048EC0D
:1033800052E40E9410E34B015C0120E030E040E297
:1033900051ECC701B6010E94AAE2181654F420E0CD
:1033A00030E048EC52E4C701B6010E94D9EA87FD3B
:1033B0008BC020E030E0A901C701B6010E94AAE25B
:1033C00087FF73C060E070E080EA90ECA501940193
:1033D0000E9456E920E030E040E251E40E94D9E941
:1033E0000E944BEA6B017C01F7FC64C020E137E2EC
:1033F00040E050E00E9414E9CA01B9012AE030E03F
:1034000040E050E00E9414E9605D60937203C701E0
:10341000B60128EE33E040E050E00E9414E99AE063
:10342000892E912CA12CB12CCA01B901A5019401BE
:103430000E9414E9605D60937303C701B60124E63E
:1034400030E040E050E00E9414E9CA01B901A50152
:1034500094010E9414E9605D609374038EE280938E
:103460007503C701B601A50194010E9414E9C62F96
:10347000CA01B901A50194010E9414E9605D60933D
:103480007603C05DC093770382E793E0CF91FF900E
:10349000EF90DF90CF90BF90AF909F908F90089566
:1034A0006DEB77E386E095E35CCF60E070E080EA67
:1034B00090E48CCFF094E094D094C094C11CD11CC3
:1034C000E11CF11C6DE2A1CF20E030E0A901C701B1
:1034D000B6010E94AAE287FF6AC060E070E080EA5D
:1034E00090ECA50194010E9456E920E030E040E212
:1034F00051E40E94D9E90E944BEA4B015C0120E0B3
:1035000030E0A901C701B6010E94D9EA87FD0BC0CE
:1035100020E030E040E251E4C701B6010E94AAE297
:1035200060E287FD13C0B7FC47C0C501B40128EEB7
:1035300033E040E050E00E9414E9CA01B9012AE0FA
:1035400030E040E050E00E9414E9605D6093730356
:10355000C501B40124E630E040E050E00E9414E9E7
:103560008AE0C82ED12CE12CF12CCA01B901A701A7
:1035700096010E9414E9605D609374038EE280936B
:103580007503C501B401A70196010E9414E9C62F75
:10359000CA01B901A70196010E9414E9605D609318
:1035A0007603C05DC093770383E793E06FCF60E05D
:1035B00070E080EA90E495CFB094A09490948094C9
:1035C000811C911CA11CB11C6DE2C0CF0E94B1E214
:1035D00020E030E048EC52E40E94D9E920E030E0FD
:1035E000A9010E9456E90C949B190F931F93522F27
:1035F0002091DB0C3091DC0C2817390721F19093D6
:10360000DC0C8093DB0C8B0130E020E00093310672
:1036100010933206209333063093340640932A06E3
:1036200050932B068B599E4221F41092290610923A
:103630006E0382E08093270181E08093410610921F
:103640006D03109228061F910F91089520E040E02D
:1036500070E060E087EF93E30E94F51A81E08093C9
:1036600029061092500610924F06089521E02093EB
:1036700029066093020170930301809304019093E3
:10368000050120E040E070E060E08091210690912B
:1036900022060C94F51A6DEC7CEC8CEC9CE30C94FB
:1036A000361B6DEC7CEC8CEC9DE30C94361B60E0DF
:1036B00070E080E89FE30C94361B60E070E080E2ED
:1036C00091E40C94361B8091890C90918A0C891B93
:1036D0008F7039F481E090910207913019F080E009
:1036E000089581E00895FC0184910895FC01808192
:1036F00008954198000087FD4BC01298000000001B
:10370000419A000000004198000086FD4DC01298CB
:1037100000000000419A000000004198000085FD73
:1037200041C0129800000000419A0000000041983A
:10373000000084FD35C0129800000000419A00008E
:1037400000004198000083FD29C01298000000008D
:10375000419A000000004198000082FD1DC01298AF
:1037600000000000419A000000004198000081FD27
:1037700011C0129800000000419A0000000041981A
:103780000000129800000000419A00000000089517
:10379000129AB4CF129AEECF129AE2CF129AD6CFE3
:1037A000129ACACF129ABECF129AB2CF089590E061
:1037B00080E00895CF93DF93CDB7DEB720E24F814D
:1037C00058856E818D810E941FBADF91CF91089537
:1037D0000E94B1E220E030E0A9010E9456E90E9477
:1037E0004BEACB010C94419ACF92DF92EF92FF9279
:1037F0006B017C0120E030E0A9010E94AAE287FD74
:1038000026C06DEB77E386E095E3A70196010E9461
:1038100056E96B017C0120E030E0A9010E94AAE298
:1038200020E030E040E05FE387FF04C020E030E0CC
:1038300040E05FEBC701B6010E9456E90E944BEAE7
:10384000CB01FF90EF90DF90CF900C94419A6DEBFD
:1038500077E386E095EBD9CF0E94B1E220E030E03B
:10386000A9010E9456E90C94F41B0E94B1E229ECD4
:1038700038EC48EC5EE30E94D9E920E030E040E01B
:103880005FE30E9456E90E9452EA862F0C94A49AA4
:103890000C94EDA40C94EDA461E075E383E00C942A
:1038A0001DD763E577E382E00C941DD768E577E3E5
:1038B00081E00C941DD76DE577E380E00C941DD773
:1038C0000E94B1E220E030E0A9010E9456E90E9486
:1038D00052EACB010C94769AEF92FF920F931F93CA
:1038E00086E5E82E8BE0F82E08E51BE025EC30E5B8
:1038F0004EE95CE164E67BE089E69BE00E9435BB33
:103900001F910F91FF90EF900895EF92FF920F9308
:103910001F938FECE82E8AE0F82E02EE1AE030E0DA
:1039200020E046E452E261ED7AE088ED9AE00E9400
:1039300035BB1F910F91FF90EF90089580E090E0CC
:10394000A0E8B0E48093570190935801A0935901E7
:10395000B0935A0185E891E00E94428F80916F03F5
:103960008130C9F1D4F4882309F18DE891E00E94F7
:10397000428F1092570110925801109259011092E3
:103980005A0185E891E00E94428F80916F038F5F1A
:1039900084309CF580936F030895823049F1833021
:1039A00021F780E090E0A0EFB1E419C080E090E062
:1039B000A0EFB1E480934F0190935001A093510187
:1039C000B09352018093530190935401A0935501F9
:1039D000B0935601CACF80E090E0AEE3B3E48093A9
:1039E0004F0190935001A0935101B0935201BDCF6C
:1039F00080E090E0AEE3B3E4E5CF10926F0308956A
:103A000080912701882331F041E06EE67BE082E07F
:103A10000E94C2B98091B0068770873079F4109205
:103A20006F0320E040E070E060E08CE69CE10E94E3
:103A3000F51A81E0809328060C949E1C08950C943E
:103A400003820C9403820C9403820C9403820C94E2
:103A5000B5810C94B5810C94B5810C94B581CF934C
:103A6000DF9300D000D0CDB7DEB70E9452EA0E94AB
:103A7000AFE269837A838B839C83CE0101960E9497
:103A8000C3980F900F900F900F90DF91CF910895F2
:103A90000E94B1E22AE037ED43E25DE30E94D9E9FA
:103AA00020E030E0A9010E9456E90C942F1DCF922E
:103AB000DF92EF92FF92CF93DF9300D000D0CDB78B
:103AC000DEB76B017C0120E030E0A9010E94AAE290
:103AD00087FD1BC06DEB77E386E095E3A7019601B8
:103AE0000E9456E969837A838B839C83CE01019679
:103AF0000E94C3980F900F900F900F90DF91CF917D
:103B0000FF90EF90DF90CF9008956DEB77E386E024
:103B100095EBE4CF0E94B1E22AE037ED43E25DE3AA
:103B20000E94D9E920E030E0A9010E9456E90C94F6
:103B3000571D0E94B1E220E030E0A9010E9456E941
:103B40000C94571DCF92DF92EF92FF92CF93C82F24
:103B50000E940B736B017C0124EA30E74DE75FE3C1
:103B6000609102017091030180910401909105011F
:103B70000E94AAE287FD18C08AEF90E0A0E0B0E0C2
:103B80008C0D9D1DAE1DBF1D8093260390932703B2
:103B9000A0932803B0932903C0930001CF91FF9015
:103BA000EF90DF90CF90089580E090E0DC01E8CFC7
:103BB000AF92BF92CF92DF92EF92FF920F931F933B
:103BC000CF93DF936B01E9014A3009F4B8C0453166
:103BD00009F06AC0DB011296ED91FC91F280C6817A
:103BE000D781119A88E28A950000E9F7BF2CB29438
:103BF00020EFB22230E1A32EAF0C48E2E42E88EF92
:103C00000E94791B8E2D8A950000E9F7BFE1BF1550
:103C100008F481C08F2D807780680E94791B8B2DDE
:103C20000E94791B8E2D8A950000E9F780E80E949A
:103C3000791B80E00E94791B8E2D8A950000E9F7A0
:103C40008AEF0E94791B8E2D8A950000E9F78E017C
:103C5000005F1F4F8881807F0E94791B8991829528
:103C6000807F0E94791BC017D107A1F78E2D8A95FE
:103C70000000E9F7F394E0E1BE0EFA10C0CF11980E
:103C8000D6011296CD91DC91CE010E94AD738111C7
:103C9000DEC1DF91CF911F910F91FF90EF90DF90E8
:103CA000CF90BF90AF900895FB0102811381423302
:103CB00009F488C108F48CC1463409F479C1473449
:103CC00009F47CC14B3329F589812B81D8011296E7
:103CD0006C91129713964C91213009F4CFC1233087
:103CE00009F099C138EF380F582F91E0431708F4C5
:103CF00090E041E0531708F040E031E0561708F437
:103D000030E0592F542B352309F0ADC1942309F02D
:103D1000AAC181E0BECF80EE8F0D8068807F0E94B7
:103D2000791B8F2D8295807F0E94791B8E2D8A951D
:103D30000000E9F780E80E94791B80E87BCF099AB0
:103D400011980A9A1298399A419A119A88E28A959A
:103D50000000E9F788E790E0CEE9DFE0FE01319767
:103D6000F1F70197D9F788EF0E94791B18E2812FAC
:103D70008A950000E9F780E20E94791B80E00E94AA
:103D8000791B812F8A950000E9F780E00E94791B5A
:103D900080E80E94791B812F8A950000E9F780E076
:103DA0000E94791B80E10E94791B812F8A95000077
:103DB000E9F7CE010197F1F7CE010197F1F7CE01B6
:103DC0000197F1F7CE010197F1F7CE010197F1F7D5
:103DD000CE010197F1F7CE010197F1F7CE010197DE
:103DE000F1F7CE010197F1F7CE010197F1F7CE017E
:103DF0000197F1F7CE010197F1F7CE010197F1F7A5
:103E0000CE010197F1F72197F1F780E20E94791B2B
:103E100080E40E94791B812F8A950000E9F780E2F7
:103E20000E94791B80E60E94791B1A950000E9F731
:103E300010E0D0E0C8E28D2F807780680E94791B67
:103E4000812F0E94791B8C2F8A950000E9F780E86A
:103E50000E94791B80E00E94791B8C2F8A950000BC
:103E6000E9F78AEF0E94791B8C2F8A950000E9F709
:103E700080E241980000129800000000419A000082
:103E8000000041980000129800000000419A0000D4
:103E9000000041980000129800000000419A0000C4
:103EA000000041980000129800000000419A0000B4
:103EB000000041980000129800000000419A0000A4
:103EC000000041980000129800000000419A000094
:103ED000000041980000129800000000419A000084
:103EE000000041980000129800000000419A000074
:103EF000000041980000129800000000419A000064
:103F0000000041980000129800000000419A000053
:103F1000000041980000129800000000419A000043
:103F2000000041980000129800000000419A000033
:103F3000000041980000129800000000419A000023
:103F4000000041980000129800000000419A000013
:103F5000000041980000129800000000419A000003
:103F6000000041980000129800000000419A0000F3
:103F700000009C2F9A950000E9F7815009F079CF55
:103F800088EF0E94791B8C2F8A950000E9F7DF5F8C
:103F9000105FD03209F04FCF80E00E94791B80EC97
:103FA0000E94791BCA950000E9F7119881E071CE53
:103FB000D80115968C91888381E06BCEF8018181C0
:103FC0008883FACFB901C8010E94977381E061CE5E
:103FD000443171F0473109F09CCE1882F80182819A
:103FE0008983858181508A8383818B8381E051CE4F
:103FF000D80115964C91159750E0440F551F70E06D
:1040000060E016968D919C910E94C0EBC8010E94C1
:10401000C37381E03ECE481708F47BCE861708F4C0
:1040200078CEFA80E12CD12C243070F41DC0BE0172
:10403000C8010E949773898198819D0D98838E0D88
:104040008983FF0C09F465CEF7FEF6CFF0CF4D81E2
:1040500050E0440F551F70E060E08E819F810E9408
:10406000C0EB81E016CEFA8030E0F901E759FE4F4F
:10407000D0802B593E4FF901E080E6CF58E0580F31
:10408000382F33CEDF92EF92FF920F931F93CF938F
:10409000DF93EC01D62E1CAD0BAD7C0184E0E80E65
:1040A000F11CE98DFA8DC7010995412F480F2D2D7F
:1040B000602FC7010E94A9759BAD890F8BAF81E06E
:1040C00090E0DF91CF911F910F91FF90EF90DF90E3
:1040D00008959F92AF92BF92CF92DF92EF92FF929C
:1040E0000F931F93CF93DF93EC018B01942EA52E9A
:1040F0008A859B858617970731F0888199810E9470
:1041000061741B870A8788859985019649F5BC806B
:104110000A818E81080FC880D980D6015596ED910D
:10412000FC91C6010995B80EE92CFA2C10E0F701B4
:1041300021917F01211127C08E819F81810F911DC7
:104140009F838E8390E080E0DF91CF911F910F914C
:10415000FF90EF90DF90CF90BF90AF909F90089529
:104160000E811F81692D7A2D888199810E9475B9F0
:10417000800F912F911D288539852817390738F62A
:1041800081E090E0E1CF4B2D602FC6010E94A97520
:10419000080F180FCCCFEF92FF920F931F93CF937E
:1041A000DF93EC018B017A018A859B85861797073F
:1041B00031F0888199810E9461741B870A87B70159
:1041C000888199810E9475B92E813F81820F932F3A
:1041D000911D9F838E8390E080E0DF91CF911F91AE
:1041E0000F91FF90EF900895CF92DF92EF92FF92A0
:1041F0000F931F93CF93DF93CDB7DEB72C970FB6F6
:10420000F894DEBF0FBECDBFF090180DE090190DF1
:1042100020910D0321111DC048EC58E06E2D8F2D0B
:104220000E942CA690E080E0F80EF092180DE0922B
:10423000190D99272C960FB6F894DEBF0FBECDBF8F
:10424000DF91CF911F910F91FF90EF90DF90CF9072
:104250000895C090E50CD090E60C21EE3CE03A8346
:1042600029832F2D30E03C832B832E2D30E03E839D
:104270002D8318861F827A8769871C861B8609E62C
:1042800010E29E012F5F3F4F43E75BE1BC01C60197
:104290000E94E7A5B60181EE9CE00E9461748F81C7
:1042A0009885C2CF0F931F93CF93DF938C01EB01BF
:1042B0009091C90C2091CA0C921305C00E94CF9A0C
:1042C0000E94A578F5CF8091C80C34E0839FF0015F
:1042D0001124E553F34F11830083D383C2839F5F7F
:1042E0009093C90C8F5F281739F08093C80CDF9129
:1042F000CF911F910F9108951092C80CF8CF63E9E8
:1043000072E084E690E00E9452216AEB72E084E65B
:1043100090E00C9452210E9474910C947F218111A1
:104320000C947F2168EB71E084E190E00C945221C1
:104330000E94367D0C948F210E9420A40C948F2122
:1043400020911601309117012F50310982179307E0
:104350000CF49C013093500C20934F0C0C94EDA462
:10436000E0916E03E63010F581E08E0F80936E03CE
:1043700040913106509132066091330670913406B7
:1043800090912A0680912B0628E0E29FF0011124EB
:10439000E35CFC4F2091DB0C3091DC0C31832083FB
:1043A0004283538364837583968387830895CF9371
:1043B000DF93EC010E94B02120E040E070E060E07B
:1043C000CE01DF91CF910C94F51A20E040E070E02F
:1043D00060E08BE99EE20C94F51A10922B070E9484
:1043E0009D760C94E5210F931F93CF93C42F062F36
:1043F000062E000C110B67FD14C086E0809FF001B3
:10440000819FF00D1124EA57F94F80819181009727
:1044100041F0853021E0920710F084E091E00E94A5
:10442000A021C7FD15C086E0C802F0011124EA579B
:10443000F94F82819381009759F08837910514F0E4
:1044400088E790E090937806809377060E94177330
:1044500086E0809FF001819FF00D1124EA57F94F0B
:10446000848195818F3F910519F010F08FEF90E0D6
:1044700080932B07CF911F910F910C94E5214FEF63
:104480006091230690E080E00C94F321CF930E948A
:1044900074910E94367DC82F882319F080E00E9415
:1044A000CC9B8C2F0E948F21CF910C94E521E09121
:1044B0006E03EE2389F0E150E0936E0388E0E89FFD
:1044C000F0011124E35CFC4F6281738127814681F6
:1044D000808191810C94F51A0C94E5214F925F92A2
:1044E0006F927F928F929F92AF92BF92CF92DF9204
:1044F000EF92FF920F931F93CF93DF9300912306C8
:104500000E94DFBAC0912A0610E0000F111F0A5C5A
:10451000124F95E0592E5C0E2CE1E22E2DE0F22E8A
:10452000D3E0DC1B3FE3C32E32E2D32E4EE0A42EB9
:104530004DE0B42E82E0782E7C1A53E4852E5DE0A7
:10454000952E81E0682E6C1A4C2E4194C11137C013
:1045500080912C068823B1F080912701882359F09F
:1045600081E090912C06911180E024E04AE25DE028
:10457000642D0E941FBACF5F5C12E8CF84E0809365
:104580002B060CC08091270610922706882321F362
:104590000E945722809141068823F1F2DF91CF914A
:1045A0001F910F91FF90EF90DF90CF90BF90AF9051
:1045B0009F908F907F906F905F904F900895C13043
:1045C00069F5F8018591949190934A068093490684
:1045D00080912C06813081F080912701882359F247
:1045E0001F929F928F926F9281E090912C06913052
:1045F00009F478C080E076C08091270610922706E3
:10460000882351F360912306462F90E080E00E94BA
:10461000F321809141068823F9F2C0CFC23009F01E
:1046200044C0F8018591949190934A06809349067D
:1046300080912C068230D1F080912701882309F4E3
:104640009ACFDF92CF92BF92AF927F9281E090910A
:104650002C06923009F080E08F930E94DA1B0F90B5
:104660000F900F900F900F900F9085CF809127069D
:1046700010922706882301F30E943F228091410671
:104680008823D1F28BCF80912706109227068823AA
:10469000D1F0409123066FEF8FEF9FEF0E94F3213F
:1046A00080914106882379F079CFC33009F063CF38
:1046B000F8018591949190934A06809349068091E0
:1046C0002C06833001F380912701882309F453CF0E
:1046D0001F92FF92EF92DF9381E090912C0693302E
:1046E00009F088CF8F930E94DA1B0F900F900F90E4
:1046F0000F900F9040CF9F92AF92BF92CF92DF92D8
:10470000EF92FF920F931F93CF93DF930E94DFBA34
:10471000C0912A0685E0E82EEC0E9AEEC92E9CE0A8
:10472000D92ED4E0DC1B13E01C1B25E0A22E2DE0CB
:10473000B22E02E00C1B81E0F82EFC1A9C2E919404
:10474000C11132C080912C068823B1F080912701DD
:10475000882359F081E090912C06911180E024E0AB
:1047600049E05DE0692D0E941FBACF5FCE11E8CF0E
:1047700085E080932B060CC08091270610922706B7
:10478000882321F30E945722809141068823F1F269
:10479000DF91CF911F910F91FF90EF90DF90CF901D
:1047A000BF90AF909F900895C13011F580912C0675
:1047B000813079F0809127018823B9F281E09091CE
:1047C0002C06913009F080E023E043E554E26F2DA0
:1047D000CACF8091270610922706882359F385E6D1
:1047E00094E20E94D72180914106882319F3D0CF0B
:1047F000C23009F053C090912C06923071F0809134
:104800002701882309F4B1CF81E0923009F080E0DC
:1048100020E24BEF5CE0602FA6CF8091270610923C
:104820002706882361F3B0927E03A0927D038091D6
:104830004106882321F3ACCF80912C06833081F090
:1048400080912701882309F490CF81E090912C0674
:10485000933009F080E023E04EEE5CE0612F83CFDF
:104860008091270610922706882351F380EA9EE460
:104870000E94D72180914106882311F389CF80912E
:10488000270610922706882391F0D0927E03C092CB
:104890007D0380914106882351F07ACFC33061F2C5
:1048A000C43009F062CF90912C06943041F380918E
:1048B0002701882309F459CF81E0943009F080E082
:1048C00020E249ED5CE06D2F4ECFDF92EF92FF9238
:1048D0000F931F93CF93DF930E94DFBAC0912A06F4
:1048E00085E0E82EEC0ED4E0DC1B13E01C1B02E09C
:1048F0000C1B81E0F82EFC1ADC2ED194C1112EC0C5
:1049000080912C068823B1F080912701882359F0EB
:1049100081E090912C06911180E024E042ED5CE072
:104920006D2D0E941FBACF5FCE11E8CF85E0809336
:104930002B060CC08091270610922706882321F3AE
:104940000E945722809141068823F1F2DF91CF9196
:104950001F910F91FF90EF90DF900895C13011F5F6
:1049600080912C06813079F0809127018823D9F23B
:1049700081E090912C06913009F080E023E044E73B
:1049800054E26F2DCECF8091270610922706882300
:1049900059F38BE59CE10E94D72180914106882341
:1049A00019F3D4CFC23009F055C080912C06823063
:1049B00081F080912701882309F4B5CF81E090919F
:1049C0002C06923009F080E023E04DE654E2602F9F
:1049D000A8CF8091270610922706882351F386E5F9
:1049E0009CE10E94D72180914106882311F3AECF2C
:1049F00080912C06833081F080912701882309F46F
:104A000092CF81E090912C06933009F080E023E072
:104A100046E654E2612F85CF809127061092270643
:104A2000882351F381E59CE10E94D72180914106C2
:104A3000882311F38BCF80912706109227068823B5
:104A400091F08CE49CE10E94D7218091410688235B
:104A500051F07CCFC33061F2C43009F064CF809153
:104A60002C06843041F380912701882309F45BCF21
:104A700081E090912C06943009F080E023E04DE530
:104A800054E26D2F4ECFDF92EF92FF920F931F9360
:104A9000CF93DF93E09002070E94DFBAC0912A060D
:104AA00085E0F82EFC0E13E01C1B02E00C1BD1E08D
:104AB000DC1BDC2ED194C1112EC080912C068823E2
:104AC000B1F080912701882359F081E090912C0664
:104AD000911180E024E046EC5CE06D2D0E941FBA4D
:104AE000CF5FFC12E8CF84E080932B060CC080914E
:104AF000270610922706882321F30E9457228091CF
:104B000041068823F1F2DF91CF911F910F91FF9021
:104B1000EF90DF90089581E0E81225C0C13009F0E0
:104B200046C080912C06813079F08091270188233E
:104B3000B9F281E090912C06913009F080E023E0F9
:104B400041EC5CE06D2FCACF8091270610922706BA
:104B5000882359F38EEF98E30E94D7218091410674
:104B6000882319F3D0CFC13011F580912C06813004
:104B700079F080912701882309F4B2CF81E09091E8
:104B80002C06913009F080E023E04AEB5CE0DACFBC
:104B90008091270610922706882359F38BE793E22A
:104BA0000E94D72180914106882319F3ACCFC230EF
:104BB00019F580912C06823081F08091270188239D
:104BC00009F48ECF81E090912C06923009F080E0BC
:104BD00023E04EEA5CE0602F81CF8091270610929F
:104BE0002706882351F38BE99AE30E94D72180910D
:104BF0004106882311F387CFC33009F071CF80912C
:104C00002C06833081F080912701882309F468CF36
:104C100081E090912C06933009F080E023E040EA97
:104C20005CE0612F5BCF80912706109227068823D6
:104C300051F388E39CE30E94D721809141068823A9
:104C400011F361CF2F923F924F925F926F927F92BA
:104C50008F929F92AF92BF92CF92DF92EF92FF928C
:104C60000F931F93CF93DF9300D000D0CDB7DEB763
:104C70000E94DFBA10912A06212E85E0382E310ECF
:104C800094EFC92EDD24D394E12CF12C05E0011B17
:104C90002EEE422E22E0522E612C712C84E0B82E92
:104CA000B11A83E0A82EA11A82E0982E911A81E011
:104CB000882E811A11113EC080912C068823B9F0EC
:104CC00080912701882361F0622D619581E09091A8
:104CD0002C06911180E024E047E25CE00E941FBABC
:104CE0001F5F1311E7CF86E080932B060CC08091E5
:104CF000270610922706882319F30E9457228091D5
:104D000041068823E9F20F900F900F900F90DF91EA
:104D1000CF911F910F91FF90EF90DF90CF90BF90B8
:104D2000AF909F908F907F906F905F904F903F904B
:104D30002F900895113069F580912C068130A1F0F3
:104D400080912701882361F284E396E19F938F93FA
:104D50008CE09CE09F938F938F9281E090912C0642
:104D6000913089F180E02FC08091270610922706AC
:104D7000882331F3C982DA82EB82FC82BE016F5F45
:104D80007F4F80EA0E949252809141068823C1F2AF
:104D9000BACF123009F0A7C080912C068230E9F01A
:104DA00080912701882309F49BCF8AE696E19F939F
:104DB0008F9382E09CE09F938F939F9281E09091EC
:104DC0002C06923079F68F930E94DA1B0F900F9089
:104DD0000F900F900F900F9083CF80912706109225
:104DE00027068823E9F2C982DA82EB82FC82BE01BF
:104DF0006F5F7F4F88E70E9492528091410688231F
:104E000079F281CF80912C068330A9F0809127011F
:104E1000882309F465CF85E896E19F938F938BEF04
:104E20009BE09F938F93AF9281E090912C069330FB
:104E300009F098CFC8CF80912706109227068823C3
:104E400029F349825A826B827C82BE016F5F7F4F59
:104E50008AE00E949252809141068823B9F253CF92
:104E600080912C068430A9F080912701882309F4D1
:104E700037CF80EA96E19F938F9386EF9BE09F93D5
:104E80008F93BF9281E090912C06943009F06ACF05
:104E90009ACF8091270610922706882329F349820A
:104EA0005A826B827C82BE016F5F7F4F8AE50E94CF
:104EB0009252809141068823B9F225CF809127062E
:104EC000109227068823E1F0C982DA82EB82FC8205
:104ED000BE016F5F7F4F8CE30E949252809141062A
:104EE000882371F010CF133009F48CCF143009F4FB
:104EF000B7CF153009F0F4CE80912C068530F1F251
:104F000080912701882309F4EBCE8FE496E19F93EB
:104F10008F938EEE9BE09F938F930F9381E0909100
:104F20002C06953009F01ECF4ECF0F931F93CF93D1
:104F3000DF938C016F3F19F41092FF0660E020911F
:104F4000FF06862F062E000C990B2817190609F06C
:104F5000F4F46093FF06C8010E94F7E1800F911FEF
:104F6000EC01C01BD10BCB32D1053CF00197FC0109
:104F70002491207C2038D1F3F3CFDD27AE01B80196
:104F800084ED96E00E9418E2CC52D94F1882DF914E
:104F9000CF911F910F910895CF93DF93CDB7DEB7D7
:104FA0008D819091FF06891768F08093FF069E011E
:104FB000285F3F4F4E815F816AE270E084ED96E0AA
:104FC0000E9471E2DF91CF9108950F931F930E9489
:104FD0000B730091390310913A0320913B033091F8
:104FE0003C03601B710B820B930B97FD0CC089B1C6
:104FF00083FB882780F991E089274A9B8260309B58
:1050000084608093380380913803817090913803D5
:1050100091FD826090913703981749F0813009F132
:1050200048F0823079F0833091F0809337031F91FC
:105030000F910895913079F09230B9F7909136033D
:1050400091500CC0992339F09330C1F3EECF9130D9
:10505000A9F3923051F7909136039F5F90933603F6
:10506000E4CF992359F3933001F7F5CF81E0809392
:105070000D03EDE3FCE086E199E0918380831382E8
:10508000128253985B9A52985A9A3898409A0E9482
:10509000E527109236030895FC01A081B1811C928E
:1050A000A281B3818C918F5F8C930280F381E02D7C
:1050B00090818CE0989F800D1124EDEDFCE013AE03
:1050C00084AF0895AF92BF92CF92DF92EF92FF929A
:1050D0000F931F93CF93DF93EC015B018A01FB01D8
:1050E000099587FD16C0C82ED12CF12CE12C2196F4
:1050F000F801C082D182E282F382CE01DF91CF91AA
:105100001F910F91FF90EF90DF90CF90BF90AF90E5
:105110000895982F907E903CA9F48F7190E0B0E0B4
:10512000A0E06C017D0126E0CC0CDD1CEE1CFF1C18
:105130002A95D1F7CE010196F50109958F73C82AFA
:105140002296D6CF982F907F903E11F58F7090E0E9
:10515000B0E0A0E06C017D0186E0CC0CDD1CEE1C13
:10516000FF1C8A95D1F7CE010196F50109958F7341
:10517000C82A96E0CC0CDD1CEE1CFF1C9A95D1F7DA
:10518000CE010296F50109958F73C82A2396B0CFF8
:10519000982F987F903F79F5877090E0B0E0A0E07D
:1051A0006C017D01F6E0CC0CDD1CEE1CFF1CFA95B9
:1051B000D1F7CE010196F50109958F73C82AA6E0B3
:1051C000CC0CDD1CEE1CFF1CAA95D1F7CE0102967B
:1051D000F50109958F73C82AB6E0CC0CDD1CEE1CD6
:1051E000FF1CBA95D1F7CE010396F50109958F738F
:1051F000C82A24967DCF982F9C7F983FE1F5837035
:1052000090E0B0E0A0E06C017D0156E0CC0CDD1C2C
:10521000EE1CFF1C5A95D1F7CE010196F5010995B8
:105220008F73C82A66E0CC0CDD1CEE1CFF1C6A954F
:10523000D1F7CE010296F50109958F73C82A76E061
:10524000CC0CDD1CEE1CFF1C7A95D1F7CE01039629
:10525000F50109958F73C82AE6E0CC0CDD1CEE1C25
:10526000FF1CEA95D1F7CE010496F50109958F73DD
:10527000C82A25963DCF982F9E7F9C3F09F049C0B4
:10528000817090E0B0E0A0E06C017D0186E0CC0C84
:10529000DD1CEE1CFF1C8A95D1F7CE010196F501AD
:1052A00009958F73C82A96E0CC0CDD1CEE1CFF1C00
:1052B0009A95D1F7CE010296F50109958F73C82A08
:1052C00026E0CC0CDD1CEE1CFF1C2A95D1F7CE018C
:1052D0000396F50109958F73C82A36E0CC0CDD1CC6
:1052E000EE1CFF1C3A95D1F7CE010496F501099505
:1052F0008F73C82A46E0CC0CDD1CEE1CFF1C4A95BF
:10530000D1F7CE010596F50109958F73C82A269627
:10531000EFCE982F907C903841F4807C803869F4EF
:105320002196CE01F5010995F8CF8E7F8D3F28F0AB
:105330002196CE01F5010995F8CFC12CD12C76012B
:10534000D7CE1F93CF93DF9300D000D0CDB7DEB779
:1053500010E0AE014F5F5F4F63E77BE10E94622880
:1053600049815A816B817C81452B462B472B11F05B
:105370001F5FEFCF812F0F900F900F900F90DF9155
:10538000CF911F9108951F93CF93DF9300D000D04A
:10539000CDB7DEB710E0AE014F5F5F4F66E77BE150
:1053A0000E94622849815A816B817C81452B462B62
:1053B000472B11F01F5FEFCF812F0F900F900F90B1
:1053C0000F90DF91CF911F9108959CE0899F802DD0
:1053D000112491E0980F90930C032CE0280F209358
:1053E000470630E02E5F3F4F4091150D42171306E0
:1053F00019F014F080E008952091170D9217D0F75E
:10540000662341F08E5F0E94A9B9809147068E5FA6
:105410000E94A9B9809147069091150D891750F304
:105420002091170D90910C03291720F31092180D5D
:105430008093190D81E0089520910B03022E000C3A
:10544000330B8217130641F080930B0367E97DE06D
:1054500081EE9CE00C9461740895CF93DF93FC017E
:1054600025AD211104C021E025AF0E9453A6C091B3
:10547000E30CD091E40CE091120DF091130D82E059
:105480000995E091120DF091130D81E0099530E03E
:1054900020E044E1BE0181EE9CE00E94CA7324E159
:1054A0003DE047E1BE0181EE9CE00E94CA73E091BD
:1054B000120DF091130D80E0DF91CF9109944F927E
:1054C0005F926F927F928F929F92AF92BF92CF9294
:1054D000DF92EF92FF920F931F93CF93DF9300D051
:1054E00000D0CDB7DEB70E940B736B017C018091B9
:1054F00000018F3FD9F10E940B738090260390909A
:105500002703A0902803B0902903681979098A0914
:105510009B0997FD2BC08091890C90918A0C8F5F1D
:105520008F70891719F1E0910001E43008F057C03D
:1055300024E0E29FF0011124E359FE4F8081918124
:10554000A281B38189839A83AB83BC838E010F5F71
:105550001F4F2BE531E047E551E063E571E08FE453
:1055600091E00E94F7B78FEF809300010E94E5273A
:105570008091380382FF3CC08091350381113AC08D
:1055800091E09093350380919A06892780932706AE
:1055900010929A0683E080932701109238030E94AC
:1055A0000B736C507E4F8F4F9F4F609339037093F6
:1055B0003A0380933B0390933C0368E873E182E0F5
:1055C00090E00E94522116E01150A1F00E94CF9A63
:1055D00062E070E080E090E00E94D872F5CF8091A8
:1055E000430190914401A0914501B0914601AACF99
:1055F000109235038091310390913203A0913303CF
:10560000B0913403A7019601281B390B4A0B5B0BA1
:10561000DA01C901B7FF05C080916D03882309F441
:10562000BBC1D701C6018C599F4FAF4FBF4F80936D
:10563000310390933203A0933303B093340360910A
:105640003603062E000C770B77FF03C0719561952A
:1056500071099091360380913003981365C06330CF
:1056600008F062C0109236038091360380933003B5
:10567000643008F069C0809127068111E7C08091ED
:10568000DB0C9091DC0C8B599E4241F4809101011E
:10569000882309F4EDC08150809301010E941E848B
:1056A0008090270790902807A0902907B0902A079C
:1056B00081110E942B84D501C4013AE0B695A795CB
:1056C000979587953A95D1F7009741E0A407B105E2
:1056D00020F08FEF9FEFA0E0B0E0969587952091A6
:1056E00027012111D7C030916D03311183C1809101
:1056F000DB0C9091DC0C8B599E4209F462C18091C5
:10570000290681115EC180912C0390912D03A091F7
:105710002E03B0912F03C81AD90AEA0AFB0AF7FC34
:105720005EC10E94E5215BC1633009F09DCF80918D
:10573000360387FD07C081E0880F880F809336030A
:1057400064E092CF8FEFF8CF8091460621E030E001
:1057500040E050E0882309F456C0809042069090C3
:105760004306A0904406B090450681149104A1041C
:10577000B104E9F170E090E080E00E94AFE220E047
:1057800030E040E85EE30E9410E32B013C01C701DA
:10579000B601681979098A099B090E94AFE29B0149
:1057A000AC01C301B2010E94D9E920E030E04AE730
:1057B00054E40E9410E34B015C0120E030E040EA39
:1057C00052E40E94D9EA24E630E040E050E087FF4E
:1057D00012C020E030E040EF51E4C501B4010E9466
:1057E000D9EA2AE030E040E050E087FF04C021E041
:1057F00030E040E050E0C0924206D0924306E09292
:105800004406F0924506A09136030A2E000CBB0B0D
:105810000E943EE924E030E040E050E00E9414E9BC
:105820008091310690913206A0913306B0913406F2
:10583000820F931FA41FB51F8093310690933206E9
:10584000A0933306B093340610923603D701C601F5
:105850008856954CAF4FBF4F80932C0390932D03E8
:10586000A0932E03B0932F0381E08093270107CFED
:105870008CE08093010180912A0390912B03009783
:1058800029F0019790932B0380932A0381E0809362
:10589000270104CF009741F040912A0350912B0338
:1058A0004817590708F023CF80916D03811112C06A
:1058B000223038F0243008F441C0243011F4109222
:1058C00027018DED9CE00E942D2A81E080932D061A
:1058D00080936D0383E00E941C2A81E08093010D78
:1058E000E091DB0CF091DC0C099510922D06809173
:1058F0006D03811127C0109227068091DB0C9091D7
:10590000DC0C8B599E4209F0FACE0E940B73DC012D
:10591000CB018C199D09AE09BF0980902A03909094
:105920002B03B12CA12C88169906AA06BB0608F0F9
:10593000DECE90932B0380932A03D9CE81E080930F
:105940002701BFCF81EE9CE00E942F7491E081116E
:1059500001C090E090936D03882369F28091DB0C85
:105960009091DC0C8B599E42B9F40E940B73DC01C0
:10597000CB018C199D09AE09BF09C0902A03D090B4
:105980002B03F12CE12CC816D906EA06FB0620F4FD
:1059900090932B0380932A030F900F900F900F90FA
:1059A000DF91CF911F910F91FF90EF90DF90CF90FB
:1059B000BF90AF909F908F907F906F905F904F902F
:1059C000089548E9C40E4AE3D41EE11CF11CC092BC
:1059D0002C03D0922D03E0922E03F0922F0380919E
:1059E0006D038111D9CF809127018130A9F61092E2
:1059F0002701D2CF009709F46DCF4ECFCF92DF921F
:105A0000EF92FF920F931F93CF93DF93CDB7DEB743
:105A10002C970FB6F894DEBF0FBECDBF6F3F710558
:105A20008105910509F0D0F48DED9CE00E944220A3
:105A3000E091E50CF091E60C3196849190E02C9683
:105A40000FB6F894DEBF0FBECDBFDF91CF911F918F
:105A50000F91FF90EF90DF90CF900895F090180D88
:105A6000E090190D20910D0321110FC048EE58E070
:105A70006E2D8F2D0E942CA690E080E0F80EF09203
:105A8000180DE092190D9927DACFC090E50CD0904F
:105A9000E60C21EE3CE03A8329832F2D30E03C8355
:105AA0002B832E2D30E03E832D8318861F822FEF0F
:105AB0003FEF3A8729871C861B8609E610E29E0184
:105AC0002F5F3F4FAB01BC01C6010E9423A5B60169
:105AD00081EE9CE00E9461748F819885CFCF6F9298
