:100000000C9464140C949D140C949D140C949D14E5
:100010000C94BD300C94BD300C94BD300C94BD30AC
:100020000C949D140C949D140C949D140C949D148C
:100030000C949D140C9421D10C949D140C949D143B
:100040000C9476C80C949D140C943AC10C949D1495
:100050000C9422800C9418800C949D140C949D1484
:100060000C949D140C949D140C949D140C949D144C
:100070000C949D140C949D140C949D140C949D143C
:100080000C943D6E0C949D140C949D144E414E495D
:100090004E495459494E46CDCCCC3D0AD7233C1746
:1000A000B7D13877CC2B329595E6241FB14F0A0093
:1000B0000020410000C84200401C4620BCBE4CCA83
:1000C0001B0E5AAEC59D744750455400504C41001C
:1000D00042656400456E636C6F7375726500450020
:1000E000200025002020202020202000202020206B
:1000F00000657272001FE0201020102010102010E8
:10010000202010201030300840048003001FE03F02
:10011000F03FF03FF01FE01FE03FF03FF03FF00FF7
:10012000C0078003003FFFF038007030FC3020FC37
:10013000102078102030102C00D02E31D02F7BD002
:100140002F7BD02E31D02C00D020301020781020E2
:10015000FC1030FC303800703FFFF03FFFF03800FB
:10016000703186302387102787902F87D02F03D0B8
:100170002030102078102078102030102F03D02F3E
:1001800087D02787902387103186303800703FFF53
:10019000F01FFFF81FFFF80410400208200208209B
:1001A0000410400820801041001041000820800405
:1001B00010400000001FFFF81FFFF846696C2E205A
:1001C0004469612E004F6666004F6E004520696EDF
:1001D000206D6D5E33004D696E2054726176656CE2
:1001E000205370656564004D696E2056656C6F63C1
:1001F000697479004D617820402053706565640012
:100200004D6178204520416363656C004D61782025
:100210004020416363656C0054726176656C2041D7
:100220006363656C0052657472616374204163633B
:10023000656C00416363656C0050726F6265205AA3
:10024000204F66667365740050726F626520592096
:100250004F66667365740050726F62652058204F58
:10026000666673657400402073746570732F6D6DDE
:1002700000416476616E6365642053657474696ED1
:100280006773003F0043616E63656C00496E69747B
:10029000004D34323800496E697469616C697A6561
:1002A00020454550524F4D0046696C616D656E7436
:1002B0000053746570732F6D6D0050726F6265200E
:1002C0004F666673657473004A756E6374696F6E0A
:1002D0002044657600416363656C65726174696F83
:1002E0006E004D617820537065656420286D6D2F18
:1002F00073290053657420486F6D65204F666673DF
:1003000065747300436F6E66696775726174696FB7
:100310006E003F004E65787420506F696E74004423
:100320006F6E65004E65787400486F6D696E67206A
:1003300058595A0053746F72652053657474696E0E
:100340006773004C6F61642053657474696E6773E2
:1003500000426564205472616D6D696E6700507271
:100360006F6265205A204F6666736574004F66663B
:10037000004F6E00426564204C6576656C696E675F
:10038000004C6576656C20426564004732394E004A
:10039000473239004175746F20486F6D65004D6FAD
:1003A00074696F6E0053572D4D6F64650053746F01
:1003B00077004465706C6F790053656C662D5465E9
:1003C000737400526573657400426564004E6F7A01
:1003D0007A6C650046616E20537065656400436FFA
:1003E0006E66696775726174696F6E0052657374C9
:1003F0006F72652044656661756C7473004C6F6143
:10040000642053657474696E67730053746F72650A
:100410002053657474696E67730050726568656116
:1004200074202420436F6E6600424C546F756368DD
:100430000050726F6265205A204F666673657400C3
:10044000416476616E6365642053657474696E6798
:1004500073004D61696E00436F6E66696775726106
:1004600074696F6E0054656D706572617475726544
:10047000004D6F74696F6E0054756E6500496E664D
:100480006F2053637265656E004D6F766520457809
:10049000747275646572004D6F74696F6E004469A3
:1004A0007361626C65205374657070657273004D82
:1004B000383400426564204C6576656C696E67006F
:1004C00053746F77205A2D50726F6265004D34302F
:1004D00032004465706C6F79205A2D50726F6265DE
:1004E000004D343031004175746F20486F6D6500E8
:1004F000473238004D61696E0050726568656174FD
:10050000202420426564005072656865617420246F
:1005100020456E640054656D706572617475726516
:1005200000CC00C700436F6F6C646F776E00507231
:10053000656865617420240046616E2053706565AE
:100540006400426564004E6F7A7A6C65004D6169A3
:100550006E004261627973746570205A0042616274
:100560007973746570204000466C6F770046616E49
:1005700020537065656400426564004E6F7A7A6C42
:1005800065005370656564004D61696E00486F6D6C
:10059000696E67204661696C6564006F70656E0006
:1005A000545249474745524544003A20007A5F6D0E
:1005B000696E00795F6D696E00785F6D696E0052DB
:1005C00065706F7274696E6720656E6473746F70A6
:1005D000207374617475730A00486F6D652025730C
:1005E00020466972737400000040C1000000C10021
:1005F0000000005761726E696E673A20486F6D693E
:100600006E672042756D702044697669736F722041
:100610003C20310A000202040000684300006443E9
:1006200000005C430000A0400000A040000000402B
:1006300053544F505045442E20005072696E7465DB
:10064000722073746F707065642064756520746FB8
:10065000206572726F72732E204669782074686507
:10066000206572726F7220616E6420757365204D13
:1006700039393920746F20726573746172742E2059
:100680002854656D70657261747572652069732098
:1006900072657365742E20536574206974206166D9
:1006A0007465722072657374617274696E67290A69
:1006B00000206572726F72202D20726573746172F2
:1006C000742077697468204D3939390A00424C54D6
:1006D0006F7563680021212053544F502063616C73
:1006E0006C65642062656361757365206F662000C8
:1006F00000005C4300005C4300005C43000040C11C
:10070000000000C10000000053657474696E6773D7
:100710002053746F72656400290A00206279746541
:10072000733B20637263200053657474696E677352
:100730002053746F726564202800454550524F4D18
:1007400020496E697469616C697A65640A00486160
:100750007264636F6465642044656661756C7420BF
:1007600053657474696E6773204C6F6164656400CF
:1007700020286D6D2900203B204C6576656C696EE4
:1007800067200020204D3432302053004175746FB3
:1007900020426564204C6576656C696E6700204672
:1007A0000020420020480020204D313435205300E5
:1007B0004D6174657269616C206865617475702043
:1007C000706172616D65746572730020204D313403
:1007D000392043203B20556E69747320696E204395
:1007E000656C736975730A0054656D706572617428
:1007F00075726520556E6974730020204732312070
:100800003B004C696E65617220556E6974730045DA
:100810004550524F4D206461746173697A6520655B
:1008200072726F722E0A00290A0020627974657351
:100830003B2063726320002073746F7265642073C1
:10084000657474696E677320726574726965766524
:1008500064202800202863616C63756C6174656492
:1008600029210A0020213D2000454550524F4D20AE
:10087000435243206D69736D61746368202D202895
:1008800073746F7265642920002053697A653A2079
:1008900000496E6465783A20000000C8430000C833
:1008A0004300000041000048420000C8420000C868
:1008B000420000C84300000C43D0070000D00700EE
:1008C000006400000010270000204D61726C696E0A
:1008D0003D563837290A00454550524F4D20766520
:1008E0007273696F6E206D69736D6174636820281F
:1008F000454550524F4D3D00434F4D4D554E494398
:100900004154494F4E0044525952554E004552529F
:100910004F525300494E464F004543484F005354F1
:100920004F505045442E20005072696E74657220FD
:1009300073746F707065642064756520746F2065D2
:1009400072726F72732E2046697820746865206514
:1009500072726F7220616E6420757365204D393933
:100960003920746F20726573746172742E2028545C
:10097000656D70657261747572652069732072654A
:100980007365742E205365742069742061667465E4
:10099000722072657374617274696E67290A004E01
:1009A0006F20436865636B73756D20776974682089
:1009B0006C696E65206E756D6265722C204C61737A
:1009C00074204C696E653A2000636865636B7375CB
:1009D0006D206D69736D617463682C204C61737454
:1009E000204C696E653A20004C696E65204E756D2D
:1009F000626572206973206E6F74204C617374207D
:100A00004C696E65204E756D6265722B312C204CE1
:100A1000617374204C696E653A20004D31313000AD
:100A200053657269616C20737461747573206D69AC
:100A3000736D617463680A00746F6F206D7563680D
:100A400020696E6163746976652074696D65202D17
:100A50002063757272656E7420636F6D6D616E6474
:100A60003A20002121204B494C4C2063617573656D
:100A7000642062792000506C656173652052657353
:100A80006574005052494E5445522048414C5445DB
:100A9000440025533A202553004B494C4C45442EE5
:100AA00020005072696E7465722068616C746564B0
:100AB0002E206B696C6C28292063616C6C65642145
:100AC0000A006563686F3A004572726F723A004FB0
:100AD0004646004F4E000A0A426564204C65766522
:100AE0006C20436F7272656374696F6E204D617420
:100AF0007269783A000A436F7272656374656420A4
:100B0000426564204865696768742076732E2042C8
:100B1000656420546F706F6C6F67793A0A000A42FF
:100B200065642048656967687420546F706F6772E8
:100B3000617068793A0A2020202B2D2D2D2042410A
:100B4000434B202D2D2B0A2020207C2020202020EC
:100B50002020202020207C0A204C207C20202020C7
:100B6000282B29202020207C20520A2045207C2070
:100B7000202020202020202020207C20490A2046E0
:100B8000207C20282D29204E20282B29207C20471E
:100B90000A2054207C2020202020202020202020DB
:100BA0007C20480A2020207C20202020282D29205D
:100BB0002020207C20540A2020207C20202020205F
:100BC0002020202020207C0A2020204F2D2D204670
:100BD000524F4E54202D2D2B0A2028302C30290A1C
:100BE000000A4D65616E206F662073616D706C65E3
:100BF0006420706F696E74733A200020643A20009C
:100C000020623A200045716E20636F6566666963F5
:100C100069656E74733A20613A200050726F6269A0
:100C20006E6720506F696E740025532025692F254B
:100C300069002E0A002F0050726F62696E67206D86
:100C400065736820706F696E7420002028445259C3
:100C500052554E2900473239204175746F20426544
:100C600064204C6576656C696E67003F20284C2CCB
:100C7000522C462C4229206F7574206F6620626FBB
:100C8000756E64732E0A003F50726F626520706F3C
:100C9000696E74732028592920696D706C617573B1
:100CA00069626C652028322D33292E0A003F50726C
:100CB0006F626520706F696E7473202858292069EF
:100CC0006D706C61757369626C652028322D3329F3
:100CD0002E0A003F2856296572626F7365206C6585
:100CE00076656C20696D706C61757369626C6520E6
:100CF00028302D34292E0A0020440020204D323087
:100D000030205300202844697361626C6564293A7D
:100D10000046696C616D656E742073657474696EEC
:100D200067730020204D3230312058004D6178200B
:100D3000416363656C65726174696F6E2028756EBE
:100D40006974732F7332290020204D3230332058BC
:100D5000004D617820666565647261746573202852
:100D6000756E6974732F73290020520020204D3254
:100D70003034205000416363656C65726174696F43
:100D80006E2028756E6974732F7332292028503CA9
:100D90007072696E742D616363656C3E20523C72A3
:100DA0006574726163742D616363656C3E20543CAD
:100DB00074726176656C2D616363656C3E290020F9
:100DC0004A0020540020530020204D32303520426C
:100DD00000416476616E6365642028423C6D696EF3
:100DE0005F7365676D656E745F74696D655F75735C
:100DF0003E20533C6D696E5F666565647261746523
:100E00003E20543C6D696E5F74726176656C5F66FE
:100E1000656564726174653E204A3C6A756E635F05
:100E20006465763E290020440020490020204D338F
:100E30003031205000486F74656E64205049440082
:100E400020440020490020204D33303420500042FF
:100E5000656420504944002E0A0085123B2738273C
:100E60003527206E6F742064697361626C65642E2F
:100E70002053686172656420776974680020496E48
:100E800076616C696420657874727564657220009F
:100E900020746F6F206C6F6E672065787472757345
:100EA000696F6E2070726576656E7465640A0053B2
:100EB0006C6565702E2E2E005A2050726F62652070
:100EC00050617374204265640A005A2050726F6248
:100ED0006520506173742042656400205A3A2000F6
:100EE00020593A200042656420583A2000436C693A
:100EF000636B20746F20526573756D652E2E2E0006
:100F0000616C736F20656E61626C6564290A004EC6
:100F10006F204D6F76652E002569730025696D2061
:100F2000256973002569682025696D20256973008E
:100F3000256964202569682025696D20256973006D
:100F400025697920256964202569682025696D2037
:100F5000256973005072696E742074696D653A205A
:100F6000006F6B006F666600190914090D09060908
:100F7000F80844454255473A004D31313220536814
:100F80007574646F776E00416E6574204138204F30
:100F900046462E00434F4E4649475F4558504F52F4
:100FA00054004D4541545041434B00434F4F4C4535
:100FB000525F54454D5045524154555245004348A7
:100FC000414D4245525F54454D5045524154555252
:100FD0004500424142595354455050494E47004103
:100FE000524353004D4F54494F4E5F4D4F4445536C
:100FF00000544845524D414C5F50524F5445435464
:10100000494F4E00455854454E4445445F4D32309B
:1010100000435553544F4D5F4649524D5741524539
:101020005F55504C4F4144004C464E5F5752495417
:1010300045004C4F4E475F46494C454E414D45009B
:101040004155544F5245504F52545F53445F53548F
:10105000415455530053445F57524954450052453B
:1010600050454154005344434152440050524F4D67
:1010700050545F535550504F525400484F53545F93
:10108000414354494F4E5F434F4D4D414E445300F1
:10109000454D455247454E43595F50415253455285
:1010A00000434153455F4C494748545F42524947CA
:1010B00048544E45535300544F47474C455F4C49A5
:1010C0004748545300534F4654574152455F504F81
:1010D000574552004255494C445F50455243454E96
:1010E00054004C4556454C494E475F4441544100DD
:1010F0005A5F50524F42450052554E4F5554004191
:1011000055544F4C4556454C005052494E545F4A39
:101110004F420050524F4752455353004155544F90
:101120005245504F52545F54454D50004155544F15
:101130005245504F52545F504F5300564F4C554DEF
:10114000455452494300454550524F4D0042494E87
:101150004152595F46494C455F5452414E534645B2
:10116000520053455249414C5F584F4E5F584F46CD
:1011700046004649524D574152455F4E414D453A12
:101180004D61726C696E206275676669782D322ECA
:10119000312E7820284665622031322032303233B9
:1011A0002032313A33353A31322920534F555243A8
:1011B000455F434F44455F55524C3A6769746875C3
:1011C000622E636F6D2F4D61726C696E4669726D30
:1011D000776172652F4D61726C696E2050524F5469
:1011E0004F434F4C5F56455253494F4E3A312E3084
:1011F000204D414348494E455F545950453A416E50
:1012000065742041382045585452554445525F4337
:101210004F554E543A3120555549443A63656465FB
:10122000326132662D343161322D343734382D3904
:101230006231322D63353563363266333637666652
:10124000002F2F004D31343520533C696E64657892
:101250003E206F7574206F662072616E676520286E
:10126000302D31290A003F4A206F7574206F6620A7
:1012700072616E67652028302E303120746F203007
:101280002E33290A002058003B200020204D617891
:101290003A2000200020204D696E3A2000203B209B
:1012A0000020204D323131205300250A0046523AA9
:1012B0000020466C6F773A20003A20002053657278
:1012C000766F2000206F7574206F662072616E67E4
:1012D000650A00536572766F2000426564204C6594
:1012E00076656C696E6720004661696C6564207480
:1012F0006F20656E61626C6520426564204C657686
:10130000656C696E670A00426564204C6576656CA1
:1013100020436F7272656374696F6E204D617472E1
:1013200069783A004F666673657473204170706C1B
:10133000696564004572723A20546F6F206661726D
:101340002100546F6F206661722066726F6D20728B
:1013500065666572656E636520706F696E740A00FC
:10136000454550524F4D204F4B0A00290A0020742A
:101370006F20003F5A206F7574206F662072616E77
:101380006765202800290A0020746F20003F59203B
:101390006F7574206F662072616E676520282D005E
:1013A000290A0020746F20003F58206F7574206F49
:1013B000662072616E676520282D00496E76616C2B
:1013C00069642065787472756465720A006F6B00D9
:1013D00020204D323036205800486F6D65206F66F2
:1013E00066736574004361703A00203B0020204D15
:1013F0003835312058005A2D50726F6265204F6683
:10140000667365740020573A00436F6F6C696E67AE
:101410002E2E2E0045312025530020573A004265DC
:101420006420436F6F6C696E672E2E2E00426564D8
:101430002048656174696E672E2E2E0023646566F0
:10144000696E652044454641554C545F0000626515
:1014500064004B6420004B6920004B702000206624
:10146000696E6973686564212050757420746865BD
:10147000206C617374204B702C204B6920616E646A
:10148000204B6420636F6E7374616E747320667298
:101490006F6D2062656C6F7720696E746F20436F8B
:1014A0006E66696775726174696F6E2E680A0050A6
:1014B0004944204175746F74756E650020666169DA
:1014C0006C6564212074696D656F75740A005049FC
:1014D00044204175746F74756E6500206661696C97
:1014E0006564212054656D70657261747572652044
:1014F000746F6F20686967680A005049442041751D
:10150000746F74756E6500504944204379636C654F
:10151000730025532025692F256900204B643A204C
:1015200000204B693A2000204B703A200020436C89
:10153000617373696320504944200A00204E6F2074
:101540006F76657273686F6F740A002054753A2065
:1015500000204B753A2000206D61783A2000206D04
:10156000696E3A200020643A200020626961733A73
:10157000200048656174696E672E2E2E00207374FA
:101580006172740A00504944204175746F74756E1D
:101590006500206661696C6564212054656D706525
:1015A00072617475726520746F6F20686967680A6C
:1015B00000504944204175746F74756E6500504940
:1015C00044204175746F74756E6500206661696CA6
:1015D00065642120426164206865617465722069D8
:1015E000640A00504944204175746F74756E65003B
:1015F0004572723A207574663820666F6E74206E7C
:101600006F7420696E697469616C697A65642E0013
:101610004572723A207574663820666F6E74206E5B
:101620006F7420696E697469616C697A65642E00F3
:101630004572723A207574663820666F6E74206E3B
:101640006F7420696E697469616C697A65642E00D3
:1016500020003A003A00000C0F00FE07022503BBF1
:10166000017FFE08FE08FE05080806000040F0C8DD
:101670008888987810050808060000C0F8888888CF
:101680008888F80505050600012030F83020050897
:10169000080600002070F820202020E00509090637
:1016A00000FF2070A8A8B8888870200705050700EB
:1016B00001D86C366CD80509090600FFF8A888889F
:1016C000888888A8F8050A0A0600FE205050505065
:1016D00088A8A8887003030306000340A040FFFF0A
:1016E000FFFFFFFFFFFFFFFFFFFFFFFFFFFFFFFF0A
:1016F000FFFFFFFF0000000605FF010707060200CD
:1017000080808080800080030303060105A0A0A0E4
:1017100005060606000050F85050F8500509090665
:1017200000FF2070A8A07028A870200507070600F9
:1017300000C8C8102040989805070706000040A080
:10174000A040A89068010303060205808080030979
:10175000090601FF204040808080404020030909A5
:101760000601FF80404020202040408005070706FA
:10177000000020A8702070A82005050506000120A3
:1017800020F820200203030601FFC040800501016C
:10179000060003F8020202060100C0C005070706A2
:1017A0000000081010204040800507070600007068
:1017B0008898A8C8887003070706010040C0404009
:1017C0004040E0050707060000708808102040F838
:1017D000050707060000F80810300888700507079D
:1017E00006000010305090F81010050707060000A2
:1017F000F880F00808887005070706000030408070
:10180000F0888870050707060000F80810102020EF
:101810002005070706000070888870888870050713
:101820000706000070888878081060020505060128
:1018300000C0C000C0C00206060601FFC0C000C054
:101840004080030505060101204080402005030378
:10185000060002F800F8030505060101804020405B
:10186000800507070600007088102020002005076B
:10187000070600007088B8A8B88070050707060042
:1018800000708888F8888888050707060000F048F7
:1018900048704848F005070706000070888080807F
:1018A0008870050707060000F04848484848F005DA
:1018B0000707060000F88080F08080F8050707061B
:1018C0000000F88080F08080800507070600007027
:1018D000888080988870050707060000888888F847
:1018E000888888030707060100E04040404040E048
:1018F0000507070600003810101010906005070754
:101900000600008890A0C0A0908805070706000088
:10191000808080808080F805070706000088D8A8AE
:10192000888888880507070600008888C8A89888DE
:101930008805070706000070888888888870050772
:1019400007060000F08888F0808080050707060001
:101950000070888888A89068050707060000F0884E
:1019600088F0A0908805070706000070888070083E
:101970008870050707060000F82020202020200599
:10198000070706000088888888888870050707068A
:1019900000008888888850502005070706000088C6
:1019A000888888A8A8500507070600008888502066
:1019B00050888805070706000088885020202020CE
:1019C000050707060000F80810204080F803090901
:1019D0000601FFE080808080808080E005070706A8
:1019E0000000804040201010080309090601FFE0B4
:1019F00020202020202020E00503030600052050A1
:101A0000880501010600FEF8030303060105804076
:101A10002005050506000070087888780507070688
:101A200000008080F0888888F005050506000070B9
:101A30008080887005070706000008087888888875
:101A4000780505050600007088F080700507070618
:101A50000000304840E04040400507070600FE70A7
:101A60008888887808700507070600008080F0885D
:101A70008888880307070601004000C0404040E016
:101A80000409090601FE10003010101010906005C6
:101A9000070706000080808890E09088030707060B
:101AA0000100C04040404040E0050505060000D070
:101AB000A8A8A8A8050505060000B0C8888888055C
:101AC000050506000070888888700507070600FE77
:101AD000F0888888F080800507070600FE788888EF
:101AE00088780808050505060000B0C880808005D4
:101AF000050506000078807008F00507070600005D
:101B00002020F82020201805050506000088888878
:101B10009868050505060000888888502005050599
:101B20000600008888A8A850050505060000885012
:101B30002050880507070600FE88888850204080CE
:101B4000050505060000F8102040F8030909060104
:101B5000FF2040404080404040200109090602FF2C
:101B60008080808080808080800309090601FF805A
:101B7000404040204040408005030306000248A842
:101B800090FF20436F756E7420583A0042656400E0
:101B90004531004500626564002C207379737465DB
:101BA0006D2073746F707065642120486561746581
:101BB000725F49443A20004572723A204D415854B0
:101BC000454D50004D415854454D50207472696741
:101BD00067657265640048656174696E6720466177
:101BE000696C65640048656174696E672066616947
:101BF0006C6564004572723A204D494E54454D5013
:101C0000004D494E54454D502074726967676572A6
:101C1000656400202F002042403A0020403A000036
:101C2000000001020000000000000004030706009D
:101C30000000000000000000000000000000006D37
:101C400061726C696E66772E6F7267006275676687
:101C500069782D322E312E78001FFFFFFFFFFFFF26
:101C6000600000000001FF400000000000FF800055
:101C7000000000007F83CF00000C303F87FF800012
:101C80000C301F867980000C000F8C30C7838C309D
:101C9000E78C30CFC7CC31F38C30DCECEC33B98C33
:101CA00030D86C6C33198C30D06C0C33198C30D824
:101CB0006C0C33198C30DC6C0E3B198C30CF7C07EC
:101CC0009F198C30C77C038F194000000000000270
:101CD000600000000000061FFFFFFFFFFFF810007C
:101CE000C90210012C014001220170011801B0014C
:101CF0000E01F00104015002FA00B002F0003003BE
:101D0000E600D003DC009004D2007005C800A006F5
:101D1000BE000008B400B009AA00D00BA000600EFD
:101D2000960060118C000015820020197800C01DFB
:101D30006E00A0226400B0275A00902C50000031A1
:101D40004600E0343C0010383200903A2800603CF5
:101D50001E00A03D1400803E0A00203F000020200D
:101D6000506C616E6E65724275666665724279741A
:101D700065733A20002046726565204D656D6F726F
:101D8000793A200020436F6D70696C65643A204693
:101D9000656220313220323032330A00204C6173C8
:101DA0007420557064617465643A20323032332D8A
:101DB00030322D3132207C20417574686F723A20A8
:101DC00028416E64726579205A62756B61722C20AD
:101DD000416E657420413820636F6E666967290A19
:101DE000004D61726C696E206275676669782D328C
:101DF0002E312E780A0020536F6674776172652049
:101E000052657365740A00205761746368646F6774
:101E10002052657365740A002042726F776E206FDE
:101E200075742052657365740A0020457874657274
:101E30006E616C2052657365740A00506F7765722D
:101E400055700A0073746172740A00456E6473748D
:101E50006F707300255320256320256320256320A0
:101E6000256300205A3A0020593A0020583A00656C
:101E70006E6473746F7073206869743A200024F480
:101E800004D9201BC40C5C0E9804C4095F026507CA
:101E90007101F405F900FB04B30048048700C10395
:101EA00069005803550003034500BE023A0084024E
:101EB000310053022A002902250004022000E40117
:101EC0001C00C8011900AF0117009801140084011B
:101ED0001300710110006101100051010E00430157
:101EE0000D0036010B002B010B0020010B0015012A
:101EF00009000C01090003010800FB000800F300C1
:101F00000800EB000700E4000600DE000600D80031
:101F10000600D2000600CC000500C7000500C20084
:101F20000500BD000400B9000400B5000400B100C4
:101F30000400AD000400A9000400A5000300A200F5
:101F400003009F0004009B0003009800030095001D
:101F5000020093000300900003008D0002008B003C
:101F60000300880002008600020084000300810054
:101F700002007F0002007D0002007B000200790069
:101F80000200770001007600020074000200720077
:101F90000100710002006F0002006D0001006C0082
:101FA00002006A000100690002006700010066008B
:101FB0000100650001006400020062000100610090
:101FC0000100600001005F0002005D0001005C0094
:101FD00001005B0001005A00010059000100580097
:101FE0000100570001005600010055000100540097
:101FF0000100530000005300010052000100510095
:102000000100500001004F0001004E0000004E0092
:1020100001004D0001004C0001004B0000004B008E
:1020200001004A000100490001004800000048008A
:102030000100470001004600000046000100450085
:10204000000045000100440001004300000043007F
:102050000100420000004200010041000000410078
:102060000100400001003F0000003F0001003E0071
:1020700000003E0001003D0000003D0001003C006A
:1020800000003C0000003C0001003B0000003B0061
:1020900001003A0000003A00010039000000390058
:1020A000010038000000380000003800010037004F
:1020B0000000370001003600000036000000360046
:1020C000010035000000350000003500010034003B
:1020D0000000340000003400010033000000330031
:1020E0000000330001003200000032000000320026
:1020F000010031000000310000003100010030001B
:10210000000030000000300001002F0000002F0010
:1021100000002F0000002F0001002E0000002E0004
:1021200000002E0001002D0000002D0000002D00F9
:1021300000002D0001002C0000002C0000002C00ED
:1021400000002C0001002B0000002B0000002B00E1
:1021500000002B0001002A0000002A0000002A00D5
:1021600000002A00010029000000290000002900C9
:1021700000002900000029000100280000002800BC
:1021800000002800000028000000280001002700AF
:1021900000002700000027000000270000002700A3
:1021A0000100260000002600000026000000260096
:1021B0000000260001002500000025000000250089
:1021C000000025000000250000002500010024007B
:1021D000000024000000240000002400000024006F
:1021E0000100230000002300000023000000230062
:1021F0000000230000002300000023000100220053
:102200000000220000002200000022000000220046
:102210000000220001002100000021000000210038
:10222000000021000000210000002100000021002A
:10223000010020000000200000002000000020001D
:10224000000020000000200000002000000020000E
:1022500001001F0000001F0000001F0000001F0001
:1022600000001F0000001F0000001F0001001E00F2
:1022700000001E0000001E0000001E00000024F4EC
:10228000D43050C38E20C2A24017828B7011127AB4
:10229000910D816CD90AA861E108C75866076151A0
:1022A00043061E4B5D05C145A7041A411104093DB3
:1022B0009803713931034036DB0265339102D43023
:1022C0005402802E1D02632CEE01752AC501B02830
:1022D000A001102781018F2564012B244B01E022EE
:1022E0003401AC211F018D200D01801FFC00841ED4
:1022F000ED00971DDF00B81CD200E61BC600201BB6
:10230000BC00641AB200B219A8000A19A0006A1829
:102310009900D117910040178B00B5168400311633
:102320007E00B31579003A157300C7146F00581476
:102330006A00EE1366008813630025135E00C7125F
:102340005B006C12570015125400C111510070113E
:102350004F0021114B00D61049008D104700461048
:10236000440002104200C00F4000800F3E00420FA8
:102370003C00060F3B00CB0E3800930E37005C0E7E
:102380003500270E3400F30D3200C10D3100900DE1
:102390003000600D2E00320D2D00050D2C00D90CE3
:1023A0002B00AE0C2900850C29005C0C2700350C95
:1023B00027000E0C2600E80B2400C40B2400A00B01
:1023C00023007D0B23005A0B2100390B2100180B31
:1023D0002000F80A1F00D90A1E00BB0A1E009D0A31
:1023E0001D00800A1D00630A1C00470A1B002C0AFE
:1023F0001B00110A1A00F7091A00DD091900C409A7
:102400001900AB091900920917007B09180063092C
:1024100017004C09160036091600200916000A0993
:102420001500F5081500E0081400CC081400B808E1
:102430001400A4081400900813007D0812006B0813
:10244000130058081200460812003408110023082F
:1024500011001208110001081100F0071000E00738
:102460001000D0071000C0071000B0070F00A10730
:10247000100091070E0083070F0074070F00650717
:102480000E0057070E0049070E003B070D002E07F0
:102490000E0020070D0013070D0006070D00F906BA
:1024A0000C00ED060D00E0060C00D4060C00C8067A
:1024B0000C00BC060C00B0060C00A4060B0099062C
:1024C0000C008D060B0082060B0077060B006C06D5
:1024D0000B0061060A0057060B004C060A00420674
:1024E0000A0038060A002E060A0024060A001A0608
:1024F0000A001006090007060A00FD050900F40598
:102500000900EB050900E2050900D9050900D0051D
:102510000900C7050900BE050900B5050800AD059D
:102520000800A50509009C050800940508008C0515
:102530000800840508007C050800740508006C0587
:102540000700650508005D050700560508004E05F3
:10255000070047050700400508003805070031055A
:1025600007002A050700230507001C0506001605BD
:1025700007000F0507000805060002050700FB0419
:102580000600F5040700EE040600E8040600E20475
:102590000700DB040600D5040600CF040600C904CA
:1025A0000600C3040600BD040600B7040600B1041B
:1025B0000500AC040600A6040600A00405009B0468
:1025C000060095040500900406008A0405008504B1
:1025D0000500800406007A040500750405007004F7
:1025E00005006B04050066040500610405005C0439
:1025F000050057040500520405004D040500480479
:102600000500430405003E0404003A0405003504B7
:102610000500300404002C040500270404002304F2
:1026200005001E0404001A04040016040500110429
:1026300004000D040400090405000404040000045F
:102640000400FC030400F8030400F4030400F00396
:102650000400EC030400E8030400E4030400E003C6
:102660000400DC030400D8030400D4030400D003F6
:102670000400CC030400C8030300C50303003A2E82
:1026800000007B1D0000181100004A090000DB0457
:1026900000007C02000041010000A10000004D6F1D
:1026A000766520246D6D00302E303235004D6F760A
:1026B0006520302E316D6D004D6F766520316D6D6A
:1026C000004D6F76652031306D6D004D6F76652061
:1026D00041786973004D6F7665202A004D6F7665ED
:1026E0002040002000200020002000FFFFFF50724B
:1026F0006F62696E67204661696C65640A0050729A
:102700006F62696E67204661696C656400205A3AA1
:10271000200020593A200042656420583A200022C7
:102720000A00556E6B6E6F776E20636F6D6D616E14
:10273000643A202200204500205A00205900202021
:102740004D393220580053746570732070657220C3
:10275000756E697400DB0FC93F45BCDA3F8FB30269
:1027600040FCF0274056946140FE4B9B4084A5D826
:1027700040E0231841346A5641E859974164DBD55B
:10278000416E271742B4B75542CE1A9742C8AED50C
:1027900042B5885A43D40684BFA65FA7BF7443E0FE
:1027A000BF10B11AC01C2C58C0E8F697C0B849D663
:1027B000C04E4E17C124D355C1802497C1A0B5D5B2
:1027C000C1121A17C244AE55C2781797C26CACD565
:1027D000C267885AC320746F6F206C6F6E67206564
:1027E0007874727573696F6E2070726576656E7439
:1027F00065640A006F6B0A00526573656E643A2067
:102800000020453A00205A3A0020593A00583A0030
:1028100000002200250028002B00000021002400D9
:1028200027002A0002020202020202020404040437
:10283000040404040303030303030303010101016C
:102840000101010101020408102040800102040876
:102850001020408001020408102040808040201099
:10286000080402014572726F722077726974696E92
:102870006720746F20454550524F4D210A0054483F
:1028800045524D414C2052554E41574159005468D4
:1028900065726D616C2052756E6177617900416E71
:1028A00065742041382052656164792E0050726948
:1028B0006E74696E672E2E2E005072696E742050F1
:1028C00061757365640040D311241FBECFEFD0E45F
:1028D000DEBFCDBF84B78093290F14BE0FB6F89426
:1028E000A8958091600088618093600010926000DC
:1028F0000FBE12E0A0E0B1E0E2E3F8EC01E00BBFB4
:1029000002C007900D92AA37B107D9F72FE0AAE7C6
:10291000B2E001C01D92A932B207E1F714E1C4E6AA
:10292000D4E104C02197FE010E94BBE3C336D10766
:10293000C9F70E944CD40C9417E40C940000CF9279
:10294000DF92EF92FF928091D702882309F457C05B
:10295000C090D302D090D402E090D502F090D6027D
:1029600020E030E0A901C701B6010E9414DD8823F0
:1029700009F445C020E030E040E05FE3C701B60164
:102980000E947ADD9B01AC010E947ADD2BED3FE0D5
:1029900049E450E40E947ADD9B01AC0160E070E004
:1029A00080E89FE30E94EFE16B017C01C092CE02C0
:1029B000D092CF02E092D002F092D10260911A013F
:1029C00070911B01072E000C880B990B0E941BDDD8
:1029D0002AE037ED43E25CE30E947ADDA70196012D
:1029E0000E947ADD609360017093610180936201BF
:1029F00090936301FF90EF90DF90CF900895C12CEA
:102A0000D12C80E8E82E8FE3F82ED0CFFC01708126
:102A1000472F50E0062E02C0559547950A94E2F7DD
:102A200040FF14C04091B10250E0062E02C05595FF
:102A300047950A94E2F740FF09C021E030E001C069
:102A4000220F6A95EAF72095272320830895CF92D5
:102A5000DF92EF92FF92FC01C080D180E280F38090
:102A600020E030E0A901C701B6010E9414DD87FF14
:102A700068C0C701B601905820E030E040E251E460
:102A80000E947ADD20E030E040EA50E40E946CE1F0
:102A900020E030E040E251E40E94EFE10E9461E278
:102AA0009B0160E22031F7E23F0730F0C90160E1AD
:102AB00077E20E9493E3605D60934604283E83E0E2
:102AC000380708F445C0C90168EE73E00E9493E33B
:102AD000CB016AE070E00E9493E3805D809347043D
:102AE00080E22436310558F0C90164E670E00E94A6
:102AF00093E3CB016AE070E00E9493E3805D8093F2
:102B0000480480E22A30310558F0EAE0F0E0C901DB
:102B1000BF010E9493E3CB01BF010E9493E3805D5C
:102B200080934904C9016AE070E00E9493E3805DEC
:102B300080934A0486E494E0FF90EF90DF90CF907A
:102B4000089520E030E040E251E4C701B60198CF9B
:102B500080E2C4CF8F929F92AF92BF92CF92DF92CA
:102B6000EF92FF92FC01C080D180E280F38020E0F0
:102B700030E040E251E4C701B6010E947ADD20E076
:102B800030E040E251E40E947ADD4B015C0120E03C
:102B900030E0A901C701B6010E9414DD20E030E059
:102BA00040EA50E487FF04C020E030E040EA50EC07
:102BB000C501B4010E946CE120E030E040E251E444
:102BC0000E94EFE10E9461E29B018BE237FF05C0AA
:102BD00022273327261B370B8DE280934504C9013A
:102BE00068EE73E00E94A7E3CB01EAE0F0E0BF01EA
:102BF0000E94A7E3805D80934604C90164E670E00B
:102C00000E94A7E3CB01BF010E94A7E3805D8093F0
:102C10004704C901BF010E94A7E3282FCB01BF01D0
:102C20000E94A7E3805D809348048EE2809349046C
:102C3000205D20934A0485E494E0FF90EF90DF90BC
:102C4000CF90BF90AF909F908F9008959C0197FF79
:102C500026C0EE27FF27E81BF90B2D398FEF380729
:102C60000CF05DC08DE280934704CF0164E670E014
:102C70000E94A7E3CB012AE030E0B9010E94A7E35C
:102C8000805D80934804CF01B9010E94A7E3CB0186
:102C9000B9010E94A7E3805D809349042AC0283EC1
:102CA00083E03807B4F1C90168EE73E00E94A7E33E
:102CB000CB01EAE0F0E0BF010E94A7E3805D8093D2
:102CC0004704C90164E670E00E94A7E3CB01BF019D
:102CD0000E94A7E3805D80934804C901BF010E9460
:102CE000A7E3CB01BF010E94A7E3805D8093490465
:102CF000F901CF016AE070E00E94A7E3805D809354
:102D00004A0487E494E008958DE237FDC5CF80E260
:102D1000C3CFF90180E2243631050CF0A4CF80E264
:102D20008093470480934804EA30F1056CF38DE208
:102D300037FF80E280934804CF016AE070E00E9490
:102D4000A7E3605D60934904D4CF9C01EAE0F0E022
:102D5000BF010E94A7E3805D80934A042A303105B9
:102D6000CCF0CB01BF010E94A7E3805D80934904B2
:102D70002436310594F0C90164E670E00E94A7E3AF
:102D8000CB01BF010E94A7E3805D8093480488E4E3
:102D900094E008958AE494E0089589E494E0089525
:102DA0009C0197FD2DC080E2243631055CF0C901FD
:102DB00064E670E00E94A7E3CB016AE070E00E9445
:102DC000A7E3805D8093480480E22A3031055CF0FF
:102DD000EAE0F0E0C901BF010E94A7E3CB01BF0117
:102DE0000E94A7E3805D80934904C9016AE070E016
:102DF0000E94A7E3805D80934A0488E494E00895EC
:102E00003195219531098DE2DDCF24E6829FC00105
:102E1000112481589F4F6FEF70E00E94A7E3262F87
:102E200081E3643609F080E28093470490E22A301F
:102E300040F03AE0822F632F0E9479E30E9479E309
:102E4000905D90934804822F6AE00E9479E3905D40
:102E50009093490485E280934A0487E494E00895BE
:102E600060911A0170911B01072E000C880B990BC1
:102E70000E941BDD2AE037ED43E25CE30E947ADD2D
:102E80002091CE023091CF024091D0025091D102D8
:102E90000E947ADD6093600170936101809362010A
:102EA0009093630108958091FF06811104C0809181
:102EB000DA068093250708958F929F92AF92BF9272
:102EC000CF92DF92EF92FF92CF936B017C0120E0D3
:102ED00030E0A9010E9414DD87FFA3C06DEB77E30A
:102EE00086E095EBA70196010E946CE16B017C01E5
:102EF00020E030E040E251E40E947ADD20E030E062
:102F000048EC52E40E947ADD4B015C0120E030E0A5
:102F100040E251ECC701B6010E9414DD181654F4CA
:102F200020E030E048EC52E4C701B6010E94EFE235
:102F300087FD8BC020E030E0A901C701B6010E94E7
:102F400014DD87FF73C060E070E080EA90ECA501BB
:102F500094010E946CE120E030E040E251E40E94E4
:102F6000EFE10E9461E26B017C01F7FC64C020E1AB
:102F700037E240E050E00E942AE1CA01B9012AE0AC
:102F800030E040E050E00E942AE1605D609345043B
:102F9000C701B60128EE33E040E050E00E942AE18C
:102FA0009AE0892E912CA12CB12CCA01B901A5015E
:102FB00094010E942AE1605D60934604C701B60156
:102FC00024E630E040E050E00E942AE1CA01B90165
:102FD000A50194010E942AE1605D609347048EE29E
:102FE00080934804C701B601A50194010E942AE11B
:102FF000C62FCA01B901A50194010E942AE1605DB2
:1030000060934904C05DC0934A0485E494E0CF9185
:10301000FF90EF90DF90CF90BF90AF909F908F90F8
:1030200008956DEB77E386E095E35CCF60E070E0B8
:1030300080EA90E48CCFF094E094D094C094C11CCA
:10304000D11CE11CF11C6DE2A1CF20E030E0A90110
:10305000C701B6010E9414DD87FF6AC060E070E01E
:1030600080EA90ECA50194010E946CE120E030E040
:1030700040E251E40E94EFE10E9461E24B015C01F9
:1030800020E030E0A901C701B6010E94EFE287FD10
:103090000BC020E030E040E251E4C701B6010E94DD
:1030A00014DD60E287FD13C0B7FC47C0C501B40161
:1030B00028EE33E040E050E00E942AE1CA01B90165
:1030C0002AE030E040E050E00E942AE1605D609339
:1030D0004604C501B40124E630E040E050E00E941F
:1030E0002AE18AE0C82ED12CE12CF12CCA01B901C9
:1030F000A70196010E942AE1605D609347048EE279
:1031000080934804C501B401A70196010E942AE1F9
:10311000C62FCA01B901A70196010E942AE1605D8C
:1031200060934904C05DC0934A0486E494E06FCF85
:1031300060E070E080EA90E495CFB094A094909421
:103140008094811C911CA11CB11C6DE2C0CFCF9357
:10315000DF93EC01CB01BA010E941BDD0E9461E20A
:1031600079836883DF91CF9108950E941BDD0E94CF
:1031700061E2CB010C94D016CF93DF93EC01CB012D
:10318000BA010E941BDD29EC38EC48EC5EE30E949A
:10319000EFE120E030E040E05FE30E946CE10E945C
:1031A00068E26883DF91CF9108950E941BDD29ECCE
:1031B00038EC48EC5EE30E94EFE120E030E040E0D4
:1031C0005FE30E946CE10E9468E2862F0C94051771
:1031D000E091FF0686E0E802F0011124E853F94F80
:1031E0008091DA0690E0958384830895CF93DF93EE
:1031F00000D000D0CDB7DEB70E9468E20E9419DD92
:1032000069837A838B839C83CE0101960E94271564
:103210000F900F900F900F90DF91CF9108958F92A4
:103220009F92AF92BF92CF92DF92EF92FF926B018B
:103230007C0120E030E0A9010E9414DD87FD6BC015
:103240006DEB77E386E095E3A70196010E946CE1C0
:103250006B017C0120E030E040E251E40E947ADD25
:1032600020E030E040E251E40E947ADD4B015C0155
:1032700020E030E0A901C701B6010E9414DD20E082
:1032800030E040EA50E487FF04C020E030E040EA4C
:1032900050ECC501B4010E946CE120E030E040E256
:1032A00051E40E94EFE10E9461E29B018BE237FF53
:1032B00005C022273327261B370B8DE28093460457
:1032C000C90164E670E00E94A7E3CB01EAE0F0E008
:1032D000BF010E94A7E3805D80934704C901BF013D
:1032E0000E94A7E3282FCB01BF010E94A7E3805DC6
:1032F000809348048EE280934904205D20934A0421
:1033000086E494E0FF90EF90DF90CF90BF90AF9075
:103310009F908F9008956DEB77E386E095EB94CFC7
:103320008F929F92AF92BF92CF92DF92EF92FF92D5
:10333000CF936B017C0120E030E0A9010E9414DDF5
:1033400087FDD6C06DEB77E386E095E3A701960194
:103350000E946CE16B017C0120E030E0A9010E9439
:1033600014DD87FFCAC0C701B601905820E030E0E5
:1033700040E251E40E947ADD20E030E048EC52E483
:103380000E947ADD20E030E040EA50E40E946CE1E7
:1033900020E030E040E251E40E94EFE10E9461E26F
:1033A0006B017C0160E280E4C81682E4D8068FE0FD
:1033B000E806F1048CF0C701B60120E432E44FE0E6
:1033C00050E00E942AE1CA01B9012AE030E040E061
:1033D00050E00E942AE1605D6093430460E280EA6D
:1033E000C81686E8D80681E0E806F1048CF0C7012B
:1033F000B60120EA36E841E050E00E942AE1CA0125
:10340000B9012AE030E040E050E00E942AE1605D2E
:103410006093440460E280E1C81687E2D806E104C4
:10342000F1048CF0C701B60120E137E240E050E042
:103430000E942AE1CA01B9012AE030E040E050E0F0
:103440000E942AE1605D6093450460E288EEC81640
:1034500083E0D806E104F1048CF0C701B60128EE40
:1034600033E040E050E00E942AE1CA01B9012AE0BD
:1034700030E040E050E00E942AE1605D6093460445
:10348000C701B60124E630E040E050E00E942AE1A6
:103490008AE0882E912CA12CB12CCA01B901A5017A
:1034A00094010E942AE1605D609347048EE280935C
:1034B0004804C701B601A50194010E942AE1C62F64
:1034C000CA01B901A50194010E942AE1605D6093DF
:1034D0004904C05DC0934A0483E494E0CF91FF9017
:1034E000EF90DF90CF90BF90AF909F908F90089516
:1034F0006DEB77E386E095EB29CF20E030E040E20A
:1035000051E4C701B60136CFCF92DF92EF92FF921E
:10351000CF93DF9300D000D0CDB7DEB76B017C0135
:1035200020E030E0A9010E9414DD87FD1BC06DEB97
:1035300077E386E095E3A70196010E946CE1698339
:103540007A838B839C83CE0101960E9427150F906E
:103550000F900F900F90DF91CF91FF90EF90DF9041
:10356000CF9008956DEB77E386E095EBE4CF8F92F3
:103570009F92AF92BF92CF92DF92EF92FF92CF9342
:103580006B017C0120E030E0A9010E9414DD87FD81
:1035900093C06DEB77E386E095E3A70196010E9467
:1035A0006CE16B017C0120E030E040E251E40E94DC
:1035B0007ADD20E030E04AE754E40E947ADD4B01F6
:1035C0005C0120E030E0A901C701B6010E9414DDD2
:1035D00020E030E040EA50E487FF04C020E030E023
:1035E00040EA50ECC501B4010E946CE120E030E0FB
:1035F00040E251E40E94EFE10E9461E26B017C0134
:10360000C114D104E104F10409F45BC0F7FE59C010
:10361000F094E094D094C094C11CD11CE11CF11C26
:103620008DE280934504C701B60128EE33E040E007
:1036300050E00E942AE18AE0882E912CA12CB12C26
:10364000CA01B901A50194010E942AE1605D60935D
:1036500046048EE280934704C701B60124E630E0B9
:1036600040E050E00E942AE1CA01B901A50194019D
:103670000E942AE1605D60934804C701B601A5017C
:1036800094010E942AE1C62FCA01B901A501940143
:103690000E942AE1605D60934904C05DC0934A04C2
:1036A00085E494E0CF91FF90EF90DF90CF90BF90B2
:1036B000AF909F908F9008956DEB77E386E095EB48
:1036C0006CCF80E2AECFCF93DF93EC01CB01BA0198
:1036D0000E941BDD20E030E048EC52E40E94EFE164
:1036E000688379838A839B83DF91CF910895CF93F9
:1036F000DF93EC01CB01BA010E941BDD20E030E03A
:1037000048EC52E40E94EFE1688379838A839B83CB
:10371000DF91CF9108950E941BDD20E030E048EC5E
:1037200052E40E94EFE10C9490190E941BDD20E00E
:1037300030E048EC52E40E94EFE10C945C17CF9328
:10374000DF93EC01CB01BA010E941BDD20E030E0E9
:1037500040E251E40E94EFE1688379838A839B838E
:10376000DF91CF9108950E941BDD20E030E040E220
:1037700051E40E94EFE10C940F19CF93DF93EC0119
:10378000CB01BA010E941BDD2AE037ED43E25DE385
:103790000E94EFE10E9468E2688379838A839B83B9
:1037A000DF91CF9108950E941BDD2AE037ED43E2BF
:1037B0005DE30E94EFE10C94F618CF93DF93EC01E8
:1037C000CB01BA010E941BDD2AE037ED43E25DE345
:1037D0000E94EFE1688379838A839B83DF91CF9195
:1037E00008950E941BDD2AE037ED43E25DE30E946D
:1037F000EFE10C94841ACF93DF93EC01CB01BA0173
:103800000E941BDD688379838A839B83DF91CF913C
:1038100008950E941BDD0C94841ACF93DF93EC0172
:10382000CB01BA010E941BDD20E030E04AE754E4FE
:103830000E94EFE1688379838A839B83DF91CF9134
:1038400008950E941BDD20E030E04AE754E40E9426
:10385000EFE10C94B71A0F931F93522F20910A0E89
:1038600030910B0E2817390721F190930B0E80939E
:103870000A0E8B0130E020E00093E8061093E90681
:103880002093EA063093EB064093E1065093E2065C
:1038900084549C4521F41092E0061092400482E08A
:1038A00080934F0181E08093F80610923F041092BC
:1038B000DE061F910F91089520E040E070E060E087
:1038C0008EED98E30E942B1C81E08093E00610921D
:1038D000AB021092AA02089520E040E070E060E0A0
:1038E0008AEC9EE10C942B1C21E02093E006FC0165
:1038F00080819181A281B381809310019093110105
:10390000A0931201B093130120E040E070E060E06A
:103910008091D8069091D9060C942B1CCF93DF93FD
:1039200000D000D0CDB7DEB78DEC9CECACECBCE3A6
:1039300089839A83AB83BC83CE0101960E94741C59
:103940000F900F900F900F90DF91CF910895CF932C
:10395000DF9300D000D0CDB7DEB78DEC9CECACECA3
:10396000BDE389839A83AB83BC83CE0101960E9419
:10397000741C0F900F900F900F90DF91CF910895CE
:10398000CF93DF9300D000D0CDB7DEB780E090E0DA
:10399000A0E8BFE389839A83AB83BC83CE01019601
:1039A0000E94741C0F900F900F900F90DF91CF9199
:1039B0000895CF93DF9300D000D0CDB7DEB780E07D
:1039C00090E0A0E2B1E489839A83AB83BC83CE010B
:1039D00001960E94741C0F900F900F900F90DF9132
:1039E000CF910895FC0184910895FC018081089590
:1039F0004091D80221E042276CE070E00C9492B430
:103A00004091D80221E0422764E070E00C9492B427
:103A10004091D80221E0422761E070E00C9492B41A
:103A20004091D80221E0422761E070E00C9492B40A
:103A30004091D80221E0422768E070E00C9492B4F3
:103A40004091D80221E042276CE070E00C9492B4DF
:103A500041E061E070E00C9492B44091D80221E022
:103A600042270C9492B46CE070E00C9490C064E037
:103A700070E00C9490C061E070E00C9490C061E044
:103A800070E00C9490C06CE070E00C9490C0CF9308
:103A9000C82FCB010E94CA6E8AEA95E00E94CA6EC6
:103AA0008BE995E0CC2311F080EA95E0CF910C945E
:103AB00098779091D20281E089270C94246A81E062
:103AC0008093E006809104078770873051F0109250
:103AD00004071092B10280EF94E090933F05809329
:103AE0003E058091D2028093420480E00E94246AC5
:103AF00020E040E070E060E08FEC9EE10C942B1C35
:103B0000CF93DF9300D000D0CDB7DEB719821A82F1
:103B10001B821C82AE014F5F5F4FBC0184E691E0C7
:103B20000E94DDB50F900F900F900F90DF91CF9115
:103B3000089580E090E0A0E8B0E480936C01909359
:103B40006D01A0936E01B0936F0185E392E00E9436
:103B5000801DE091410480E090E0ACEDB2E4E430FF
:103B600009F44AC080E090E0A0EFB1E480936401E2
:103B700090936501A0936601B093670180936801FB
:103B800090936901A0936A01B0936B01EE0FFF0B54
:103B9000EB5EFD4F808191818330910549F1843046
:103BA0009105D9F1029761F480E090E0AEE3B3E4CF
:103BB0008093640190936501A0936601B0936701BF
:103BC0008DE192E00E94801D10926C0110926D01B7
:103BD00010926E0110926F0185E392E00E94801DA9
:103BE000809141048F5F8530ECF480934104089507
:103BF00080E090E0AEE3B3E48093640190936501CC
:103C0000A0936601B0936701809368019093690166
:103C1000A0936A01B0936B01D3CF80E090E0AEE354
:103C2000B3E4F2CF109241040895CF93DF9300D014
:103C300000D0CDB7DEB784EF91E0A0E0B0E089839B
:103C40009A83AB83BC83BE016F5F7F4F88E70E947E
:103C5000326D0F900F900F900F90DF91CF910895DC
:103C6000CF93DF93C091630DD091640D209729F11C
:103C700060915F0D7091600D8091610D9091620D6A
:103C80000E9461E26E5F7F4F24976C177D07ACF452
:103C900070931E0560931D050E94F8C0605E714B15
:103CA0008F4F9F4F60931F057093200580932105D0
:103CB00090932205DF91CF91089510921F051092E5
:103CC00020051092210510922205F4CF0C94301E8D
:103CD000CF92DF92EF92FF92CF93C82F0E94F8C04D
:103CE0006B017C0124EA30E74DE75FE3609110014E
:103CF0007091110180911201909113010E9414DDC5
:103D000087FD18C08AEF90E0A0E0B0E08C0D9D1D0B
:103D1000AE1DBF1D8093F3039093F403A093F503AE
:103D2000B093F603C0930E01CF91FF90EF90DF9018
:103D3000CF90089580E090E0DC01E8CFCF93DF934F
:103D4000CDB7DEB720E24F8158856E818D810E940C
:103D5000C8BCDF91CF9108956091DA068FEF0C9483
:103D6000F6D28091DA06682F0C94F6D26FEF80912C
:103D7000DA060C94F6D26EED70E482E00C946CD10D
:103D800061EE70E481E00C946CD164EE70E480E04C
:103D90000C946CD169E678E383E00C946CD180914B
:103DA0004F01882331F041E069E273E082E00E9434
:103DB00063BC8091B1028770873079F4109241041E
:103DC00020E040E070E060E08EEE9EE10E942B1C5F
:103DD00081E08093DE060C94991D0895EF92FF9286
:103DE0000F931F9382E1E82E83E0F82E04E113E0A5
:103DF0002CE335E449E95DE16FE173E084E293E0AF
:103E00000E94C2C31F910F91FF90EF900895EF920F
:103E1000FF920F931F9383E8E82E82E0F82E06E9C5
:103E200012E030E020E04EE658E565E872E08CE80C
:103E300092E00E94C2C31F910F91FF90EF900895EE
:103E4000BF92CF92DF92EF92FF920F931F93CF9387
:103E5000DF936B01E9014A3009F4E1C0453109F013
:103E600089C0DB011296ED91FC911281C681D78148
:103E7000119A00C0000086E290E00197F0F7012F50
:103E80000295007F20E1B22EB10E88EF0E945C65A2
:103E900000C0000086E290E00197F0F7103208F0D1
:103EA000A8C0812F807780680E945C65802F0E9467
:103EB0005C6500C0000086E290E00197F0F780E8C2
:103EC0000E945C6580E00E945C6500C0000086E2A4
:103ED00090E00197F0F78AEF0E945C6500C0000057
:103EE00086E290E00197F0F77E01B0E1EB0EF11C65
:103EF0008881807F0E945C6589918295807F0E9485
:103F00005C65CE15DF05A1F700C0000086E290E0F9
:103F10000197F0F71F5F005F1B11B7CF1198D60113
:103F20001296ED91FC9180819281980F928321816C
:103F3000921708F0DAC194819F5F94839381890F6F
:103F4000821710F08FEF820F8383458150E0440F7A
:103F5000551F70E060E0868197810E94D6E381E082
:103F6000DF91CF911F910F91FF90EF90DF90CF9055
:103F7000BF900895FB0102811381423309F4B7C158
:103F800008F4BFC1463409F4ACC1473409F4B4C1E4
:103F90004B3329F789812B81D80112967C91129796
:103FA00013963C91213009F4F1C1233009F0D2C1BC
:103FB00048EF480F582F91E0341708F490E031E0B3
:103FC000541708F030E0492F432B61E0571708F4ED
:103FD00060E0462319F4932309F4C1CFFA8030E05E
:103FE000F901EF5FFD4FD08023503E4FF901E08093
:103FF000CAC180EE810F8068807F0E945C65812F3E
:104000008295807F0E945C6500C0000086E290E09F
:104010000197F0F780E80E945C6580E854CF099A28
:1040200011980A9A1298399A419A119A00C0000080
:1040300086E290E00197F0F788E790E0CEE9DFE0D4
:10404000FE013197F1F70197D9F788EF0E945C657F
:1040500000C0000086E290E00197F0F780E20E9445
:104060005C6580E00E945C6500C0000086E290E034
:104070000197F0F780E00E945C6580E80E945C6533
:1040800000C0000086E290E00197F0F780E00E9417
:104090005C6580E10E945C6500C0000086E290E003
:1040A0000197F0F7CE010197F1F7CE010197F1F7F3
:1040B000CE010197F1F7CE010197F1F7CE010197FB
:1040C000F1F7CE010197F1F7CE010197F1F7CE019B
:1040D0000197F1F7CE010197F1F7CE010197F1F7C2
:1040E000CE010197F1F7CE010197F1F7CE010197CB
:1040F000F1F7CE010197F1F72197F1F780E20E94E5
:104100005C6580E40E945C6500C0000086E290E08F
:104110000197F0F780E20E945C6580E60E945C6592
:1041200000C0000086E290E00197F0F7D0E0C0E028
:104130008C2F807780680E945C658D2F0E945C6563
:1041400000C0000086E290E00197F0F780E80E944E
:104150005C6580E00E945C6500C0000086E290E043
:104160000197F0F78AEF0E945C6500C0000086E2CC
:1041700090E00197F0F780E2419800C000001298AB
:1041800000C00000419A00C000C0419800C000007B
:10419000129800C00000419A00C000C0419800C0C1
:1041A0000000129800C00000419A00C000C0419871
:1041B00000C00000129800C00000419A00C000C07A
:1041C000419800C00000129800C00000419A00C051
:1041D00000C0419800C00000129800C00000419A41
:1041E00000C000C0419800C00000129800C000004C
:1041F000419A00C000C0419800C00000129800C061
:104200000000419A00C000C0419800C00000129810
:1042100000C00000419A00C000C0419800C00000EA
:10422000129800C00000419A00C000C0419800C030
:104230000000129800C00000419A00C000C04198E0
:1042400000C00000129800C00000419A00C000C0E9
:10425000419800C00000129800C00000419A00C0C0
:1042600000C0419800C00000129800C00000419AB0
:1042700000C000C0419800C00000129800C00000BB
:10428000419A00C000C0419800C00000129800C0D0
:104290000000419A00C000C000C00000E6E2F0E06B
:1042A0003197F0F7815009F067CF88EF0E945C6585
:1042B00000C0000086E290E00197F0F7CF5FD05F8A
:1042C000C03209F035CF80E00E945C6580EC0E942E
:1042D0005C6500C0000086E290E00197F0F711985D
:1042E0003ECEF801858188833ACE80E039CEB9018F
:1042F000C8010E9484C133CED80111968C91888365
:104300002ECE443191F0473109F029CE1882D801E0
:1043100012968C911297898315968C9115978150DE
:104320008A8313968C918B831ACED80115964C9163
:10433000159750E0440F551F70E060E016968D9180
:104340009C910E94D6E3F801128280818150838380
:10435000148205CE381708F402CE871708F4FFCD73
:10436000FA80E12CD12C243070F439CEBE01C80182
:104370000E9484C1898198819D0D98838E0D8983C7
:10438000FF0C09F4ECCDF7FEF6CFF0CF58E0580F54
:10439000482F11CE8091D902982F977F9093D90200
:1043A000982F937081E011F080E008955E9A08954F
:1043B0005E988091D90288608093D9020895E82F91
:1043C000F0E021E030E0082E02C0220F331F0A94F3
:1043D000E2F7209530959091D90292239093D902DB
:1043E000E750FE4F2081922321E019F020E0822F38
:1043F0000895813079F038F08230C9F7159A90919C
:1044000004079B7F04C05E9A909104079E7F90935F
:104410000407EDCF5E9A909104079D7FF8CF81301D
:1044200079F070F0823071F021E030E001C0220FAD
:104430008A95EAF78091D902822B8093D902089558
:104440005E98F2CF1598F0CFCF93DF93EC0189916E
:10445000882319F00E94C36EFACFDF91CF9108959F
:10446000CF92DF92EF92FF920F931F93CF93C82FBB
:1044700041E062E078E00E943670C11102C00E9403
:1044800032708AEF97E00E94CA6E80E797E00E9440
:10449000987741E068EE77E08C2F0E943670C1116A
:1044A00002C00E9432708BEC97E00E94CA6E8C2F83
:1044B0000E9490768C2F0E9417B88C2F0E9418773C
:1044C0008C2F0E9442778C2F0E94F6768C2F0E94B0
:1044D000BE768C2F0E943C766CE877E08C2F0E9491
:1044E0000BB81091D20283E897E00E94CA6E612F48
:1044F00070E090E080E00E9477B486E797E00E9449
:10450000CA6E8091D2020E94227041E060EB77E097
:104510008C2F0E94367008EC16E0C12CD12C76014D
:10452000C11102C00E94327087EA97E00E94CA6EF1
:10453000C701B6010E940DB4F80160817181072E98
:10454000000C880B990B0E941BDDAB01BC0184EAB7
:1045500097E00E948070F80162817381072E000C41
:10456000880B990B0E941BDDAB01BC0181EA97E02F
:104570000E948070F801648175818EE997E00E9445
:1045800089770A5F1F4FCA94CD28CE28CF2881F49F
:104590008C2F0E9491708C2F0E945E768C2FCF9171
:1045A0001F910F91FF90EF90DF90CF900C949D772B
:1045B000C12CD12C7601C394B3CFAF92BF92CF92CE
:1045C000DF92EF92FF920F931F93CF93DF93C9E394
:1045D000D7E00DE017E089E4A82E87E0B82EC12CC3
:1045E000D12C7601C39469917991899199910E9416
:1045F00019DD288939894A895B890E947ADD0E9400
:1046000068E2F80161937193819391938F01C616CB
:10461000D706E806F90610F46B017C01AC16BD065E
:1046200011F76FEF7FEFCB01A70196010E9408E120
:1046300020931D0730931E0740931F0750932007B8
:10464000DF91CF911F910F91FF90EF90DF90CF906E
:10465000BF90AF9008950F931F93CF93DF930DE416
:1046600017E0C6E2D7E0F8012191319141915191D3
:104670008F0160E070E080E89FE30E94EFE16993C2
:10468000799389939993F7E0C633DF0761F70E9426
:10469000E8B6DF91CF911F910F910C94DD220C941D
:1046A0002B230C942B230C94DD220C94DD220C94F0
:1046B000DD220C94DD229091C00D8091C10D9813E4
:1046C00006C08091360790913707892B21F080E052
:1046D0000E946478F0CF08959091C00D8091C10D33
:1046E000981308C08091360790913707892B11F4F1
:1046F0000C9461D180E00E946478EECF4F925F927B
:104700006F927F928F929F92AF92BF92CF92DF92E1
:10471000EF92FF920F931F93CF93DF93CDB7DEB746
:104720002E970FB6F894DEBF0FBECDBF9E878D8744
:104730005B018A01DC01D6966D917D918D919C91F2
:10474000D9970E9419DD6B017C01F501208131812F
:10475000428153810E947ADD0E94D8E14B015C01C5
:10476000D8012D913D914D915C91C701B6010E94F8
:104770007ADD0E94D8E12B013C01C501B4010E9401
:1047800068E26D837E838F83988768377105810522
:10479000910540F408E710E020E030E00D831E832F
:1047A0002F833887C301B2010E9468E269837A834C
:1047B0008B839C83683771058105910540F428E758
:1047C00030E040E050E029833A834B835C83AD8541
:1047D000BE8595968D909D90AD90BC909897FD016B
:1047E000EE5BFF4F6081718182819381611571055C
:1047F0008105910509F4D7C00E941BDD9B01AC0126
:1048000060E070E080E89FE30E94EFE120E030E0AC
:1048100040E05FE30E947ADD2B013C01A701960195
:10482000C701B6010E947ADD6B017C0169817A8142
:104830008B819C810E9419DD9B01AC010E947ADD75
:104840009B01AC01C701B6010E946BE1A30192017B
:104850000E947ADD69877A878B879C876D817E814C
:104860008F8198850E9419DD9B01AC010E947ADD41
:104870009B01AC01C701B6010E946BE1A30192014B
:104880000E947ADD2B013C010E94D8E10E9468E27F
:104890006B017C0169857A858B859C850E9497E2F6
:1048A0000E9468E2DC01CB01B701A601480F591F45
:1048B0006A1F7B1F95018401041B150B260B370B08
:1048C000B901A80177FF35C0C501B4010E9419DD07
:1048D000A30192010E946CE129853A854B855C8594
:1048E0000E946BE120E030E040E05FE30E947ADD6F
:1048F0000E94D8E16B017C0120E030E0A9010E9418
:10490000EFE218161CF0C12CD12C7601C701B601BC
:104910000E9468E26B017C018C149D04AE04BF040C
:1049200010F475016401D501C4018C199D09AE090B
:10493000BF09ED85FE85C1A6D2A6E3A6F4A6950122
:104940008401081B190B2A0B3B0BD901C80185A751
:1049500096A7A7A7B0AB0D811E812F81388502AF26
:1049600013AF24AF35AFFE9609811A812B813C81AC
:1049700000831183228333832E960FB6F894DEBF13
:104980000FBECDBFDF91CF911F910F91FF90EF90A0
:10499000DF90CF90BF90AF909F908F907F906F905F
:1049A0005F904F90089580E090E0DC01C12CD12C05
:1049B0007601BFCF90916F0081E091FD02C080E051
:1049C000089590916F009D7F90936F000895EFE69A
:1049D000F0E080818260808308950E94DA24109242
:1049E00021071092220710922307109224078111A9
:1049F0000C94E72408950F931F938091C00D90911C
:104A0000C10D891B8F7009F449C09091BD0D992388
:104A100061F0833040F48FEF890F29F08093BD0D52
:104A200090E080E038C01092BD0D8091C10D2BE464
:104A3000829FC00111248F57984FFC01208120FDD7
:104A4000EFCF409121075091220760912307709189
:104A50002407E95BFF4F0081118122813381401BD4
:104A6000510B620B730B4093210750932207609305
:104A70002307709324072091C10D2F5F2F7020937F
:104A8000BE0D3091C10D2091BF0D321304C0209195
:104A9000BE0D2093BF0D1F910F9108950E94ED242C
:104AA000BFCFFC0120813181428153816091590740
:104AB00070915A0780915B0790915C070E947ADDA4
:104AC0000E94F4E26093CE0D7093CF0D8093D00DD1
:104AD0009093D10D9091C00D8091C10D98130C94BD
:104AE000A4B50E945B230E94DA244091CE0D509120
:104AF000CF0D6091D00D7091D10D40931005509362
:104B00001105609312057093130581110C94E7242D
:104B100008954F925F926F927F928F929F92AF9281
:104B2000BF92CF92DF92EF92FF92CF93DF93EC018F
:104B30002091590730915A0740915B0750915C07CB
:104B40006C857D858E859F850E947ADD0E94F4E2CA
:104B50006B017C0120915507309156074091570712
:104B600050915807688579858A859B850E947ADDF2
:104B70000E94F4E24B015C012091510730915207F1
:104B800040915307509154076C817D818E819F81A4
:104B90000E947ADD0E94F4E22B013C0120914D0736
:104BA00030914E0740914F075091500768817981AD
:104BB0008A819B810E947ADD0E94F4E26093C20D9B
:104BC0007093C30D8093C40D9093C50D4092C60D94
:104BD0005092C70D6092C80D7092C90D8092CA0D97
:104BE0009092CB0DA092CC0DB092CD0DC092CE0D77
:104BF000D092CF0DE092D00DF092D10D9091C00DDA
:104C00008091C10D981781F0DF91CF91FF90EF90C7
:104C1000DF90CF90BF90AF909F908F907F906F90DC
:104C20005F904F900C94A4B50E945B230E94DA24FD
:104C3000C82F82EC9DE00E942BCCCC2381F0DF9129
:104C4000CF91FF90EF90DF90CF90BF90AF909F906B
:104C50008F907F906F905F904F900C94E724DF913E
:104C6000CF91FF90EF90DF90CF90BF90AF909F904B
:104C70008F907F906F905F904F900895CF92DF92CA
:104C8000EF92FF92CF93DF93C82F0E94DA2494E033
:104C9000C99FE0011124FE01EC5FFA4FC080D18072
:104CA000E280F38081110E94E724CA5DD84FC701DA
:104CB000B6010E941BDD288139814A815B810E94F7
:104CC0007ADDDF91CF91FF90EF90DF90CF90089544
:104CD000CF92DF92EF92FF92CF93DF93C82F0E9483
:104CE000DA2494E0C99FE0011124FE01E850FB4F53
:104CF000C080D180E280F38081110E94E724CA5DE8
:104D0000D84FC701B6010E941BDD288139814A8135
:104D10005B810E947ADDDF91CF91FF90EF90DF9071
:104D2000CF9008950E9424228DE00E94C36E8AE0F5
:104D30000C94C36ECF93DF9324E0829FC0011124B3
:104D4000EC01C65ED24FFC01EF5CFA4F8E549D4FD2
:104D5000DC012D913D914D915C9160817181828149
:104D600093810E946CE1688379838A839B83DF91BE
:104D7000CF910895CF93DF931F92CDB7DEB789838C
:104D800060E0CE0101960E94061561E0CE01019619
:104D90000E94061562E0CE0101960E9406158981E7
:104DA0000F90DF91CF9108958091630490916404F6
:104DB000A0916504B0916604809316019093170149
:104DC000A0931801B093190180916104909162043D
:104DD000909315018093140108958091160190918C
:104DE0001701A0911801B091190180936304909369
:104DF0006404A0936504B0936604809114019091BB
:104E00001501909362048093610484E690E090938E
:104E100015018093140108958F929F92AF92BF92D3
:104E2000CF92DF92EF92FF920F931F93CF93DF9376
:104E3000CDB7DEB728970FB6F894DEBF0FBECDBF53
:104E40007C016B018A01F90180809180A280B3808E
:104E500020E030E0A901B401C5010E9414DD8111F8
:104E600096C05091500140915101309152012091D2
:104E70005301852F942FA32FB22F89839A83AB835D
:104E8000BC8320E030E0A901B401C5010E9414DD1B
:104E9000811106C0812C912C80E8A82E90E4B92EB7
:104EA000C401D5018D839E83AF83B887F8018080CC
:104EB0009180A280B380A501940160916C017091F2
:104EC0006D0180916E0190916F010E9414DD87FF4A
:104ED0000CC080926C0190926D01A0926E01B09214
:104EE0006F01CE0105960E94801DF601808191819F
:104EF000A281B381F7014081518162817381409326
:104F0000640150936501609366017093670180931B
:104F1000680190936901A0936A01B0936B01CE017F
:104F200001960E94801DF801C080D180E280F3804C
:104F3000A701960160916C0170916D0180916E01E5
:104F400090916F010E94EFE2181664F4C0926C0118
:104F5000D0926D01E0926E01F0926F01CE01059644
:104F60000E94801D0E945B2328960FB6F894DEBF36
:104F70000FBECDBFDF91CF911F910F91FF90EF90AA
:104F8000DF90CF90BF90AF909F908F900895582D55
:104F9000492D3A2D2B2D6DCFCF93DF93CDB7DEB7B3
:104FA00028970FB6F894DEBF0FBECDBFAC019B01B2
:104FB00098E0E4E6F1E0DE01119601900D929A95F9
:104FC000E1F7BE016B5F7F4FCE0101960E940C2777
:104FD00028960FB6F894DEBF0FBECDBFDF91CF91FC
:104FE00008950C94E8B6CF93DF93CDB7DEB72C9736
:104FF0000FB6F894DEBF0FBECDBF0E94E7B40E948B
:10500000DA249CE0E4E0F5E0DE01119601900D92D7
:105010009A95E1F781110E94E724CE0101960E9442
:10502000D7CB2C960FB6F894DEBF0FBECDBFDF9165
:10503000CF9108952F923F924F925F926F927F92FD
:105040008F929F92AF92BF92CF92DF92EF92FF9298
:105050000F931F93CF93DF9300D000D000D01F9207
:10506000CDB7DEB78091640190916501A091660192
:10507000B09167018A839B83AC83BD8340906801B4
:105080005090690160906A0170906B0180906C0192
:1050900090906D01A0906E01B0906F01C090700172
:1050A000D0907101E0907201F09073010E94DD22B6
:1050B00081E08093660D0E949F140CEF16E0AEE134
:1050C000B1E0BF83AE8380EF282E86E0382E1982B0
:1050D00089810E949A26C8010E94156AEE81FF818B
:1050E0006193719381939193FF83EE83C1010E9439
:1050F000156AAE81BF8118966D937D938D939C93B5
:105100001B97B981BF5FB9830C5F1F4FE4E02E0E80
:10511000311CB330E9F60E942B232A813B814C815C
:105120005D8160916401709165018091660190914B
:1051300067010E9414DD81112AC0A30192016091D0
:1051400068017091690180916A0190916B010E94E0
:1051500014DD81111CC0A501940160916C01709156
:105160006D0180916E0190916F010E9414DD81119B
:105170000EC0A7019601609170017091710180913C
:105180007201909173010E9414DD8823D1F027965B
:105190000FB6F894DEBF0FBECDBFDF91CF911F9148
:1051A0000F91FF90EF90DF90CF90BF90AF909F90C6
:1051B0008F907F906F905F904F903F902F900C94C6
:1051C000F32727960FB6F894DEBF0FBECDBFDF9151
:1051D000CF911F910F91FF90EF90DF90CF90BF90F4
:1051E000AF909F908F907F906F905F904F903F9087
:1051F0002F9008952F923F924F925F926F927F92DD
:105200008F929F92AF92BF92CF92DF92EF92FF92D6
:105210000F931F93CF93DF93CDB7DEB7C758D10954
:105220000FB6F894DEBF0FBECDBF2DB73EB7CA573D
:10523000DF4F39832883C658D04041E064E070E0F6
:10524000CE0183589F4F0E9492B443E050E0BE01CC
:1052500063587F4F85E492E00E94EFE3892B81F150
:10526000C058DF4F8881C058D040882339F08FE381
:10527000EE968FAFEE97EF961FAEEF970E943270CB
:1052800087ED98E00E94CA6ECE0183589F4F0E941E
:10529000242289EC98E00E94CA6E81E08093670422
:1052A0008091D802811107C080913005833018F0B9
:1052B00080E00E9430228091670491E0892714C029
:1052C00041E064E070E0CE018B589F4F0E9492B4A1
:1052D000E9968CAD9DADAEADBFADE9978B339244F1
:1052E000A54BB14331F180E0CA57DF4F28813981A6
:1052F000C658D0400FB6F8943EBF0FBE2DBFC95759
:10530000DF4F0FB6F894DEBF0FBECDBFDF91CF9158
:105310001F910F91FF90EF90DF90CF90BF90AF90D3
:105320009F908F907F906F905F904F903F902F90C5
:10533000089541E062E070E0CE018F579F4F0E94D8
:1053400092B4ED961CAE1DAE1EAE1FAEED97109240
:105350002E0D10922D0DCE018D579F4F0E94281DAE
:10536000CDB6DEB6CD57DF4F0881C358D04010E030
:105370000D5F1F4F000F111F000F111F8DB79EB73C
:10538000801B910B0FB6F8949EBF0FBE8DBFEDB77B
:10539000FEB731965F012DB73EB7201B310B0FB61C
:1053A000F8943EBF0FBE2DBF8DB79EB701964C013E
:1053B000EDB7FEB7E01BF10B0FB6F894FEBF0FBEC2
:1053C000EDBF2DB73EB72F5F3F4F7901B801C50143
:1053D0000E942D1D4091D80281E0482764E070E0D2
:1053E00089E497E00E9492B4B801C4010E942D1D87
:1053F000B801C7010E942D1D1091D80211114DC096
:10540000CD57DF4F8881C358D04090E00296A9E382
:10541000B7E070E060E030E020E045EC58E0821753
:1054200093070CF49CC0F501E60FF71F40805180F4
:10543000628073804D925D926D927D928217930788
:105440000CF493C0F401E60FF71F20803180028135
:10545000E3812101602E7E2E50964D925D926D92D9
:105460007C925397821793070CF489C0F701E60FDB
:10547000F71F208031800281E3812101602E7E2E82
:1054800090964D925D926D927C9293972F5F3F4FD5
:105490006C5F7F4F2430310511F68DE697E00E9456
:1054A000001D81E797E00E94001D85E797E00E94BC
:1054B000001D89E797E00E94001D8DE797E00E949C
:1054C000001DCE0187589F4F0E94001DCE018758B6
:1054D0009F4F0E94001DCE0187589F4F0E94001DC4
:1054E000CE0187589F4F0E94001D89E097E00E94DF
:1054F000001D0FB6F894DEBE0FBECDBE81E395E071
:105500000E94201DCE0183599F4F0E94081DCE018D
:1055100001967C010E94001DCE0187589F4F0E947A
:10552000001DCE0187589F4F0E94001DC7010E9499
:10553000281DCE0183599F4F0E94281DC980AE9619
:105540008FADAE97C89E6001112491E0C91AD108B1
:1055500000F1CE0187589F4F0E94001DF6CFFA013F
:10556000459055906590749065CFE5EBF8E04590D7
:105570005590659074901201062DE72D6ACFE5EAEB
:10558000F8E045905590659074901201062DE72D36
:1055900074CF8FEA9DE00E94201D41E0412764E224
:1055A00070E082ED9DE00E9492B4CE018C579F4F37
:1055B0000E94281DCE018B579F4F0E94281DC701B6
:1055C0000E94181DCE0183599F4F0E94181DCC5771
:1055D000DF4F0881C458D040CB57DF4F8881C55872
:1055E000D040089F800111240150110930F0CE01F4
:1055F00087589F4F0E94001DF7CFC7010E94101DC2
:10560000CE0183599F4F0E94081D4091D80211E09E
:10561000412764E070E0C7010E9492B48FE295E0F8
:105620000E94101D4091D80241276CE070E088EC88
:1056300096E00E9492B44091D802412764E170E064
:10564000C7010E9492B41091D80211113AC089800A
:105650009A80AB80BC80A5019401C501B4010E9471
:105660006DE381112EC049845A846B847C846D81E2
:105670007E818F81988580927B0D90927C0DA09287
:105680007D0DB0927E0D2CEA35EC47E25EE30E9480
:105690007ADD60937F0D7093800D8093810D9093E0
:1056A000820D2CEA35EC47E25EE3C301B2010E94B1
:1056B000EFE16093830D7093840D8093850D90933B
:1056C000860D41E0412762E070E0C7010E9492B47C
:1056D000C7010E94F81C1091D80211113AC08980AC
:1056E0009A80AB80BC80A5019401C501B4010E94E1
:1056F0006DE381112EC049845A846B847C846D8152
:105700007E818F81988580924F0D9092500DA0924E
:10571000510DB092520D2CEA35EC47E25EE30E9447
:105720007ADD6093530D7093540D8093550D9093D3
:10573000560D2CEA35EC47E25EE3C301B2010E944C
:10574000EFE16093570D7093580D8093590D90932E
:105750005A0DC7010E94F81CC7010E94081DC7010D
:105760000E94081DC7010E94081D85E0F7011192E3
:105770008A95E9F701E0412F402765E070E0C70115
:105780000E9492B4C7010E94101D4091D802402788
:1057900060E270E0C7010E9492B4CE0183599F4F2E
:1057A0000E94101D4091D802402769E070E0C701B7
:1057B0000E9492B44091D80241110FC08981809318
:1057C000D7028A819B81AC81BD818093D302909363
:1057D000D402A093D502B093D60211E0412762E132
:1057E00070E0C7010E9492B44091D802412764E260
:1057F00070E0C7010E9492B44091D802412760E155
:1058000070E0C7010E9492B44091D802412762E043
:1058100070E0C7010E9492B4C7010E94001D409130
:10582000D802412760E170E0C7010E9492B4409124
:10583000D80241276CE670E0C7010E9492B483E071
:1058400090E5A0E8BAEB89839A83AB83BC831D8281
:105850001E821F82188619861A861B861C86C7011F
:105860000E94F81C4091D802412768E070E0C7010F
:105870000E9492B4C7010E94201DCE018C579F4FF9
:105880000E94081DCE0183599F4F0E94001D8091E8
:10589000260D9091270D813D924029F10E942E7096
:1058A0008FE098E00E94CA6E109367040E943270E5
:1058B0006091260D7091270D6456710981E998E079
:1058C0000E947C776DE672E089E898E00E94897713
:1058D0008091D8028111E4CC809167048111E0CCE1
:1058E0000E941A28DDCC1092670420912D0D309172
:1058F0002E0DCF57DF4F88819981C158D04028178E
:10590000390729F1109367040E942E70CF57DF4F9B
:1059100008811981C158D04089E698E00E94CA6E7A
:10592000B80190E080E00E940DB400912D0D10911F
:105930002E0D84E698E00E94CA6EB80190E080E0E7
:105940000E940DB484E598E00E94CA6EC1CF809198
:10595000D8028111BDCF0E94327085E492E00E948E
:1059600024226091260D7091270D6456710987E3FA
:1059700098E00E947C77C0902D0DD0902E0DF12CD8
:10598000E12C8AE298E00E94CA6EC701B6010E942B
:105990000DB487E298E0D8CF84E690E09093270D8D
:1059A0008093260D10922E0D10922D0D0C94FA2836
:1059B00080912D05811105C080910507882309F488
:1059C0005BC080915404329951C08160809354042B
:1059D0008091540433994CC0826080935404809128
:1059E0005404349947C08B7F809354048091F6040B
:1059F00080FF10C080912E0580FF0CC08091540460
:105A000080FF08C08091C70681608093C70680E050
:105A10000E940BCC8091F60481FF10C080912E056E
:105A200081FF0CC08091540481FF08C08091C7069B
:105A300082608093C70681E00E940BCC8091F604BF
:105A400082FF1AC080912E0582FF16C08091050743
:105A5000882391F08091540482FF0EC08091C70684
:105A600084608093C70682E00C940BCC8E7FAECF0F
:105A70008D7FB3CF8460B8CF08951F93CF93DF930A
:105A800000D000D0CDB7DEB784EF91E0A0E0B0E069
:105A900089839A83AB83BC83BE016F5F7F4F8CE3A6
:105AA0000E94326D8FEB95E00E94CA6E86B111E0C4
:105AB00082FB882780F969EB75E081270E94471DEA
:105AC00086B183FB882780F963EB75E081270E940C
:105AD000471D86B16DEA75E0829581700E94471D71
